0187725724241742018010100564+40219-111723FM-15+137199999V0202801N001512200059N016093199-00061-00561102771ADDGD11991+0609619GE19AGL   +99999+99999GF102995999999060961999999MA1102511999999REMMET078METAR KPVU 010056Z 28003KT 10SM FEW200 M01/M06 A3027 RMK AO2 SLP277 T10061056=EQDD01      0ADE726
0187725724241742018010101564+40219-111723FM-15+137199999V0209999C000012200059N016093199-00061-00671102821ADDGD11991+0609619GE19AGL   +99999+99999GF102995999999060961999999MA1102541999999REMMET078METAR KPVU 010156Z 00000KT 10SM FEW200 M01/M07 A3028 RMK AO2 SLP282 T10061067=EQDD01      0ADE726
0193725724241742018010102564+40219-111723FM-15+137199999V0209999C000012200059N016093199-00391-00781102891ADDGD11991+0609619GE19AGL   +99999+99999GF102995999999060961999999MA1102571999999REMMET084METAR KPVU 010256Z 00000KT 10SM FEW200 M04/M08 A3029 RMK AO2 SLP289 T10391078 51008=EQDD01      0ADE726
0128725724241742018010103564+40219-111723FM-15+137199999V0200301N001512200019N016093199-00331-00671102871ADDGF100991999999999999999999MA1102571999999REMMET075METAR KPVU 010356Z 03003KT 10SM CLR M03/M07 A3029 RMK AO2 SLP287 T10331067=
0128725724241742018010104564+40219-111723FM-15+137199999V0209999C000012200019N016093199-00391-00721102901ADDGF100991999999999999999999MA1102641999999REMMET075METAR KPVU 010456Z 00000KT 10SM CLR M04/M07 A3031 RMK AO2 SLP290 T10391072=
0172725724241742018010105564+40219-111723FM-15+137199999V0209999C000012200019N016093199-00501-00781102921ADDGF100991999999999999999999KA1060M+00281KA2060N-00561MA1102641999999REMMET093METAR KPVU 010556Z 00000KT 10SM CLR M05/M08 A3031 RMK AO2 SLP292 T10501078 10028 21056 51008=
0164725724241742018010106564+40219-111723FM-15+137199999V0209999C000012200019N016093199-00501-00721102901ADDGF100991999999999999999999KA1240M+00501KA2240N-00561MA1102641999999REMMET085METAR KPVU 010656Z 00000KT 10SM CLR M05/M07 A3031 RMK AO2 SLP290 T10501072 400501056=
0176725724241742018010107567+40219-111723FM-15+1371KPVU V0201705N001552200059N0160935N5-00565-00895102915ADDGA1005+999999999GD10991+9999999GF100991999999999999999999MA1102685087085REMMET09201/01/18 00:56:02 METAR KPVU 010756Z 17003KT 10SM CLR M06/M09 A3032 RMK AO2 SLP291 T10561089
0196725724241742018010108567+40219-111723FM-15+1371KPVU V0201005N002152200059N0160935N5-00615-00785102945ADDGA1005+999999999GD10991+9999999GF100991999999999999999999MA1102715087105MD1390059+9999REMMET09801/01/18 01:56:02 METAR KPVU 010856Z 10004KT 10SM CLR M06/M08 A3033 RMK AO2 SLP294 T10611078 53005
0176725724241742018010109567+40219-111723FM-15+1371KPVU V0209999C000052200059N0160935N5-00615-00785102955ADDGA1005+999999999GD10991+9999999GF100991999999999999999999MA1102715087105REMMET09201/01/18 02:56:02 METAR KPVU 010956Z 00000KT 10SM CLR M06/M08 A3033 RMK AO2 SLP295 T10611078
0176725724241742018010110567+40219-111723FM-15+1371KPVU V0209999C000052200059N0160935N5-00615-00835102935ADDGA1005+999999999GD10991+9999999GF100991999999999999999999MA1102715087105REMMET09201/01/18 03:56:02 METAR KPVU 011056Z 00000KT 10SM CLR M06/M08 A3033 RMK AO2 SLP293 T10611083
0234725724241742018010111567+40219-111723FM-15+1371KPVU V0209999C000052200059N0160935N5-00615-00785102965ADDGA1005+999999999GD10991+9999999GF100991999999999999999999KA1060M-00331KA2060N-00721MA1102685087085MD1890019+9999REMMET11001/01/18 04:56:02 METAR KPVU 011156Z 00000KT 10SM CLR M06/M08 A3032 RMK AO2 SLP296 T10611078 11033 21072 58001
0176725724241742018010112567+40219-111723FM-15+1371KPVU V0209999C000052200059N0160935N5-00565-00785103025ADDGA1005+999999999GD10991+9999999GF100991999999999999999999MA1102715087105REMMET09201/01/18 05:56:02 METAR KPVU 011256Z 00000KT 10SM CLR M06/M08 A3033 RMK AO2 SLP302 T10561078
0239725724241742018010113567+40219-111723FM-15+1371KPVU V0201005N00155060965MN0160935N5-00615-00785103105ADDGA1025+021345999GA2075+060965999GD11991+0213459GD23991+0609659GE19MSL   +99999+99999GF199999999999021341999999MA1102785087165REMMET10201/01/18 06:56:02 METAR KPVU 011356Z 10003KT 10SM FEW070 BKN200 M06/M08 A3035 RMK AO2 SLP310 T10611078
0259725724241742018010114567+40219-111723FM-15+1371KPVU V0203405N00155060965MN0160935N5-00675-00785103145ADDGA1045+030485999GA2075+060965999GD12991+0304859GD23991+0609659GE19MSL   +99999+99999GF199999999999030481999999MA1102745087135MD1090059+9999REMMET10801/01/18 07:56:02 METAR KPVU 011456Z 34003KT 10SM SCT100 BKN200 M07/M08 A3034 RMK AO2 SLP314 T10671078 50005
0239725724241742018010115567+40219-111723FM-15+1371KPVU V0209999C00005060965MN0160935N5-00115-00395103105ADDGA1025+030485999GA2075+060965999GD11991+0304859GD23991+0609659GE19MSL   +99999+99999GF199999999999030481999999MA1102815087195REMMET10201/01/18 08:56:02 METAR KPVU 011556Z 00000KT 10SM FEW100 BKN200 M01/M04 A3036 RMK AO2 SLP310 T10111039
0239725724241742018010116567+40219-111723FM-15+1371KPVU V0209999C00005060965MN0160935N5-00065-00505103115ADDGA1025+030485999GA2075+060965999GD11991+0304859GD23991+0609659GE19MSL   +99999+99999GF199999999999030481999999MA1102815087195REMMET10201/01/18 09:56:02 METAR KPVU 011656Z 00000KT 10SM FEW100 BKN200 M01/M05 A3036 RMK AO2 SLP311 T10061050
0315725724241742018010117567+40219-111723FM-15+1371KPVU V0209999V001552200059N0160935N5+00005-00505103105ADDGA1025+030485999GA2045+060965999GD11991+0304859GD22991+0609659GE19AGL   +99999+99999GF104995999999030481999999KA1060M+00171KA2060N-00721MA1102815087195MD1090059+9999REMMET11901/01/18 10:56:02 METAR KPVU 011756Z VRB03KT 10SM FEW100 SCT200 00/M05 A3036 RMK AO2 SLP310 T00001050 10017 21072 50005EQDD01      0ADE726
0257725724241742018010118567+40219-111723FM-15+1371KPVU V0209999C000052200059N0160935N5+00175-00505103065ADDGA1025+030485999GA2025+060965999GD11991+0304859GD21991+0609659GE19AGL   +99999+99999GF102995999999030481999999MA1102785087165REMMET10101/01/18 11:56:02 METAR KPVU 011856Z 00000KT 10SM FEW100 FEW200 02/M05 A3035 RMK AO2 SLP306 T00171050EQDD01      0ADE726
0219725724241742018010119567+40219-111723FM-15+1371KPVU V0202605N002652200059N0160935N5+00285-00505102945ADDGA1025+030485999GD11991+0304859GE19AGL   +99999+99999GF102995999999030481999999MA1102715087105REMMET09401/01/18 12:56:02 METAR KPVU 011956Z 26005KT 10SM FEW100 03/M05 A3033 RMK AO2 SLP294 T00281050EQDD01      0ADE726
0195725724241742018010120567+40219-111723FM-15+1371KPVU V0202705N002152200059N0160935N5+00335-00565102885ADDGA1005+999999999GD10991+9999999GF100991999999999999999999MA1102645087055MD1890169+9999REMMET09701/01/18 13:56:02 METAR KPVU 012056Z 27004KT 10SM CLR 03/M06 A3031 RMK AO2 SLP288 T00331056 58016
0175725724241742018010121567+40219-111723FM-15+1371KPVU V0203005N001552200059N0160935N5+00445-00565102875ADDGA1005+999999999GD10991+9999999GF100991999999999999999999MA1102645087055REMMET09101/01/18 14:56:02 METAR KPVU 012156Z 30003KT 10SM CLR 04/M06 A3031 RMK AO2 SLP287 T00441056
0219725724241742018010122567+40219-111723FM-15+1371KPVU V0202605N001552200059N0160935N5+00395-00675102895ADDGA1045+033535999GD12991+0335359GE19AGL   +99999+99999GF104995999999033531999999MA1102645087055REMMET09401/01/18 15:56:02 METAR KPVU 012256Z 26003KT 10SM SCT110 04/M07 A3031 RMK AO2 SLP289 T00391067EQDD01      0ADE726
0233725724241742018010123567+40219-111723FM-15+1371KPVU V0202505N001552200059N0160935N5+00065-00445102955ADDGA1005+999999999GD10991+9999999GF100991999999999999999999KA1060M+00501KA2060N-00111MA1102645087055MD1090019+9999REMMET10901/01/18 16:56:02 METAR KPVU 012356Z 25003KT 10SM CLR 01/M04 A3031 RMK AO2 SLP295 T00061044 10050 21011 50001
0176725724241742018010200567+40219-111723FM-15+1371KPVU V0209999C000052200059N0160935N5-00115-00565102995ADDGA1005+999999999GD10991+9999999GF100991999999999999999999MA1102645087055REMMET09201/01/18 17:56:01 METAR KPVU 020056Z 00000KT 10SM CLR M01/M06 A3031 RMK AO2 SLP299 T10111056
0176725724241742018010201567+40219-111723FM-15+1371KPVU V0209999C000052200059N0160935N5-00175-00565103055ADDGA1005+999999999GD10991+9999999GF100991999999999999999999MA1102715087105REMMET09201/01/18 18:56:01 METAR KPVU 020156Z 00000KT 10SM CLR M02/M06 A3033 RMK AO2 SLP305 T10171056
0196725724241742018010202567+40219-111723FM-15+1371KPVU V0209999C000052200059N0160935N5-00225-00565103085ADDGA1005+999999999GD10991+9999999GF100991999999999999999999MA1102715087105MD1190069+9999REMMET09801/01/18 19:56:02 METAR KPVU 020256Z 00000KT 10SM CLR M02/M06 A3033 RMK AO2 SLP308 T10221056 51006
0176725724241742018010203567+40219-111723FM-15+1371KPVU V0209999C000052200059N0160935N5-00335-00615103035ADDGA1005+999999999GD10991+9999999GF100991999999999999999999MA1102745087135REMMET09201/01/18 20:56:02 METAR KPVU 020356Z 00000KT 10SM CLR M03/M06 A3034 RMK AO2 SLP303 T10331061
0176725724241742018010204567+40219-111723FM-15+1371KPVU V0209999C000052200059N0160935N5-00445-00675103085ADDGA1005+999999999GD10991+9999999GF100991999999999999999999MA1102785087165REMMET09201/01/18 21:56:02 METAR KPVU 020456Z 00000KT 10SM CLR M04/M07 A3035 RMK AO2 SLP308 T10441067
0234725724241742018010205567+40219-111723FM-15+1371KPVU V0202705N001552200059N0160935N5-00175-00505103075ADDGA1005+999999999GD10991+9999999GF100991999999999999999999KA1060M+00111KA2060N-00561MA1102845087225MD1390129+9999REMMET11001/01/18 22:56:02 METAR KPVU 020556Z 27003KT 10SM CLR M02/M05 A3037 RMK AO2 SLP307 T10171050 10011 21056 53012
0212725724241742018010206567+40219-111723FM-15+1371KPVU V0209999C000052200059N0160935N5-00675-00835103165ADDGA1005+999999999GD10991+9999999GF100991999999999999999999KA1240M+00501KA2240N-00721MA1102885087255REMMET10201/01/18 23:56:02 METAR KPVU 020656Z 00000KT 10SM CLR M07/M08 A3038 RMK AO2 SLP316 T10671083 400501072
0176725724241742018010207567+40219-111723FM-15+1371KPVU V0200905N001552200059N0160935N5-00675-00835103155ADDGA1005+999999999GD10991+9999999GF100991999999999999999999MA1102885087255REMMET09201/02/18 00:56:02 METAR KPVU 020756Z 09003KT 10SM CLR M07/M08 A3038 RMK AO2 SLP315 T10671083
0196725724241742018010208567+40219-111723FM-15+1371KPVU V0201105N001552200059N0160935N5-00615-00785103205ADDGA1005+999999999GD10991+9999999GF100991999999999999999999MA1102955087315MD1390099+9999REMMET09801/02/18 01:56:02 METAR KPVU 020856Z 11003KT 10SM CLR M06/M08 A3040 RMK AO2 SLP320 T10611078 53009
0133725724241742018010209564+40219-111723FM-15+137199999V0209999C000012200019N016093199-00671-00831103281ADDGF100991999999999999999999MA1103011999999REMMET080METAR KPVU 020956Z AUTO 00000KT 10SM CLR M07/M08 A3042 RMK AO2 SLP328 T10671083=
0176725724241742018010210567+40219-111723FM-15+1371KPVU V0200705N002152200059N0160935N5-00725-00895103365ADDGA1005+999999999GD10991+9999999GF100991999999999999999999MA1103085087435REMMET09201/02/18 03:56:02 METAR KPVU 021056Z 07004KT 10SM CLR M07/M09 A3044 RMK AO2 SLP336 T10721089
0234725724241742018010211567+40219-111723FM-15+1371KPVU V0209999C000052200059N0160935N5-00835-00945103495ADDGA1005+999999999GD10991+9999999GF100991999999999999999999KA1060M-00171KA2060N-00831MA1103125087465MD1190169+9999REMMET11001/02/18 04:56:02 METAR KPVU 021156Z 00000KT 10SM CLR M08/M09 A3045 RMK AO2 SLP349 T10831094 11017 21083 51016
0176725724241742018010212567+40219-111723FM-15+1371KPVU V0209999C000052200059N0160935N5-00725-00835103535ADDGA1005+999999999GD10991+9999999GF100991999999999999999999MA1103155087495REMMET09201/02/18 05:56:02 METAR KPVU 021256Z 00000KT 10SM CLR M07/M08 A3046 RMK AO2 SLP353 T10721083
0175725724241742018010213567+40219-111723FM-15+1371KPVU V0209999C000052200059N0144845N5-00785-00945103635ADDGA1005+999999999GD10991+9999999GF100991999999999999999999MA1103255087585REMMET09101/02/18 06:56:02 METAR KPVU 021356Z 00000KT 9SM CLR M08/M09 A3049 RMK AO2 SLP363 T10781094
0195725724241742018010214567+40219-111723FM-15+1371KPVU V0209999C000052200059N0048285N5-00895-01065103705ADDGA1005+999999999GD10991+9999999GF100991999999999999999999MA1103255087585MD1190139+9999REMMET09701/02/18 07:56:02 METAR KPVU 021456Z 00000KT 3SM CLR M09/M11 A3049 RMK AO2 SLP370 T10891106 51013
0176725724241742018010215567+40219-111723FM-15+1371KPVU V0209999C000052200059N0160935N5-00445-00565103715ADDGA1005+999999999GD10991+9999999GF100991999999999999999999MA1103325087645REMMET09201/02/18 08:56:02 METAR KPVU 021556Z 00000KT 10SM CLR M04/M06 A3051 RMK AO2 SLP371 T10441056
0176725724241742018010216567+40219-111723FM-15+1371KPVU V0201805N002152200059N0160935N5-00115-00335103775ADDGA1005+999999999GD10991+9999999GF100991999999999999999999MA1103425087735REMMET09201/02/18 09:56:02 METAR KPVU 021656Z 18004KT 10SM CLR M01/M03 A3054 RMK AO2 SLP377 T10111033
0233725724241742018010217567+40219-111723FM-15+1371KPVU V0202405N002152200059N0160935N5+00115-00285103705ADDGA1005+999999999GD10991+9999999GF100991999999999999999999KA1060M+00111KA2060N-00891MA1103455087765MD1190189+9999REMMET10901/02/18 10:56:02 METAR KPVU 021756Z 24004KT 10SM CLR 01/M03 A3055 RMK AO2 SLP370 T00111028 10011 21089 51018
0175725724241742018010218567+40219-111723FM-15+1371KPVU V0209999C000052200059N0160935N5+00115-00505103735ADDGA1005+999999999GD10991+9999999GF100991999999999999999999MA1103395087705REMMET09101/02/18 11:56:02 METAR KPVU 021856Z 00000KT 10SM CLR 01/M05 A3053 RMK AO2 SLP373 T00111050
0175725724241742018010219567+40219-111723FM-15+1371KPVU V0202605N002152200059N0160935N5+00175-00445103625ADDGA1005+999999999GD10991+9999999GF100991999999999999999999MA1103325087645REMMET09101/02/18 12:56:02 METAR KPVU 021956Z 26004KT 10SM CLR 02/M04 A3051 RMK AO2 SLP362 T00171044
0195725724241742018010220567+40219-111723FM-15+1371KPVU V0202805N001552200059N0160935N5+00285-00565103465ADDGA1005+999999999GD10991+9999999GF100991999999999999999999MA1103185087525MD1890259+9999REMMET09701/02/18 13:56:02 METAR KPVU 022056Z 28003KT 10SM CLR 03/M06 A3047 RMK AO2 SLP346 T00281056 58025
0175725724241742018010221567+40219-111723FM-15+1371KPVU V0203205N001552200059N0160935N5+00335-00565103425ADDGA1005+999999999GD10991+9999999GF100991999999999999999999MA1103125087465REMMET09101/02/18 14:56:02 METAR KPVU 022156Z 32003KT 10SM CLR 03/M06 A3045 RMK AO2 SLP342 T00331056
0175725724241742018010222567+40219-111723FM-15+1371KPVU V0209999C000052200059N0160935N5+00175-00505103435ADDGA1005+999999999GD10991+9999999GF100991999999999999999999MA1103125087465REMMET09101/02/18 15:56:02 METAR KPVU 022256Z 00000KT 10SM CLR 02/M05 A3045 RMK AO2 SLP343 T00171050
0234725724241742018010223567+40219-111723FM-15+1371KPVU V0209999C000052200059N0160935N5-00065-00395103485ADDGA1005+999999999GD10991+9999999GF100991999999999999999999KA1060M+00391KA2060N-00061MA1103085087435MD1690079+9999REMMET11001/02/18 16:56:02 METAR KPVU 022356Z 00000KT 10SM CLR M01/M04 A3044 RMK AO2 SLP348 T10061039 10039 21006 56007
0176725724241742018010300567+40219-111723FM-15+1371KPVU V0209999C000052200059N0160935N5-00175-00505103455ADDGA1005+999999999GD10991+9999999GF100991999999999999999999MA1103085087435REMMET09201/02/18 17:56:01 METAR KPVU 030056Z 00000KT 10SM CLR M02/M05 A3044 RMK AO2 SLP345 T10171050
0176725724241742018010301567+40219-111723FM-15+1371KPVU V0202705N004152200059N0160935N5-00335-00725103515ADDGA1005+999999999GD10991+9999999GF100991999999999999999999MA1103085087435REMMET09201/02/18 18:56:01 METAR KPVU 030156Z 27008KT 10SM CLR M03/M07 A3044 RMK AO2 SLP351 T10331072
0195725724241742018010302567+40219-111723FM-15+1371KPVU V0209999C000052200059N0112655N5-00445-00565103615ADDGA1005+999999999GD10991+9999999GF100991999999999999999999MA1103155087495MD1390049+9999REMMET09701/02/18 19:56:02 METAR KPVU 030256Z 00000KT 7SM CLR M04/M06 A3046 RMK AO2 SLP361 T10441056 53004
0175725724241742018010303567+40219-111723FM-15+1371KPVU V0201505N002152200059N0144845N5-00565-00725103565ADDGA1005+999999999GD10991+9999999GF100991999999999999999999MA1103155087495REMMET09101/02/18 20:56:02 METAR KPVU 030356Z 15004KT 9SM CLR M06/M07 A3046 RMK AO2 SLP356 T10561072
0175725724241742018010304567+40219-111723FM-15+1371KPVU V0202005N002152200059N0128755N5-00725-00895103575ADDGA1005+999999999GD10991+9999999GF100991999999999999999999MA1103225087555REMMET09101/02/18 21:56:02 METAR KPVU 030456Z 20004KT 8SM CLR M07/M09 A3048 RMK AO2 SLP357 T10721089
0234725724241742018010305567+40219-111723FM-15+1371KPVU V0201405N001552200059N0160935N5-00615-00725103555ADDGA1005+999999999GD10991+9999999GF100991999999999999999999KA1060M-00061KA2060N-00721MA1103255087585MD1390099+9999REMMET11001/02/18 22:56:02 METAR KPVU 030556Z 14003KT 10SM CLR M06/M07 A3049 RMK AO2 SLP355 T10611072 11006 21072 53009
0212725724241742018010306567+40219-111723FM-15+1371KPVU V0209999C000052200059N0160935N5-00675-00835103545ADDGA1005+999999999GD10991+9999999GF100991999999999999999999KA1240M+00391KA2240N-00891MA1103225087555REMMET10201/02/18 23:56:02 METAR KPVU 030656Z 00000KT 10SM CLR M07/M08 A3048 RMK AO2 SLP354 T10671083 400391089
0176725724241742018010307567+40219-111723FM-15+1371KPVU V0201705N001552200059N0160935N5-00725-00895103505ADDGA1005+999999999GD10991+9999999GF100991999999999999999999MA1103185087525REMMET09201/03/18 00:56:02 METAR KPVU 030756Z 17003KT 10SM CLR M07/M09 A3047 RMK AO2 SLP350 T10721089
0196725724241742018010308567+40219-111723FM-15+1371KPVU V0209999C000052200059N0160935N5-00895-01065103485ADDGA1005+999999999GD10991+9999999GF100991999999999999999999MA1103155087495MD1690089+9999REMMET09801/03/18 01:56:02 METAR KPVU 030856Z 00000KT 10SM CLR M09/M11 A3046 RMK AO2 SLP348 T10891106 56008
0176725724241742018010309567+40219-111723FM-15+1371KPVU V0209999C000052200059N0160935N5-00895-01065103515ADDGA1005+999999999GD10991+9999999GF100991999999999999999999MA1103185087525REMMET09201/03/18 02:56:02 METAR KPVU 030956Z 00000KT 10SM CLR M09/M11 A3047 RMK AO2 SLP351 T10891106
0176725724241742018010310567+40219-111723FM-15+1371KPVU V0209999C000052200059N0160935N5-00895-01005103495ADDGA1005+999999999GD10991+9999999GF100991999999999999999999MA1103155087495REMMET09201/03/18 03:56:02 METAR KPVU 031056Z 00000KT 10SM CLR M09/M10 A3046 RMK AO2 SLP349 T10891100
0234725724241742018010311567+40219-111723FM-15+1371KPVU V0209999C000052200059N0160935N5-00785-00945103415ADDGA1005+999999999GD10991+9999999GF100991999999999999999999KA1060M-00611KA2060N-00941MA1103055087405MD1890109+9999REMMET11001/03/18 04:56:02 METAR KPVU 031156Z 00000KT 10SM CLR M08/M09 A3043 RMK AO2 SLP341 T10781094 11061 21094 58010
0176725724241742018010312567+40219-111723FM-15+1371KPVU V0209999C000052200059N0160935N5-00895-01065103355ADDGA1005+999999999GD10991+9999999GF100991999999999999999999MA1102955087315REMMET09201/03/18 05:56:02 METAR KPVU 031256Z 00000KT 10SM CLR M09/M11 A3040 RMK AO2 SLP335 T10891106
0176725724241742018010313567+40219-111723FM-15+1371KPVU V0209999C000052200059N0160935N5-00895-01115103415ADDGA1005+999999999GD10991+9999999GF100991999999999999999999MA1102985087345REMMET09201/03/18 06:56:02 METAR KPVU 031356Z 00000KT 10SM CLR M09/M11 A3041 RMK AO2 SLP341 T10891111
0240725724241742018010314567+40219-111723FM-15+1371KPVU V0209999C000052200059N0160935N5-00785-00895103415ADDGA1045+060965999GD12991+0609659GE19AGL   +99999+99999GF104995999999060961999999MA1102985087345MD1690079+9999REMMET10101/03/18 07:56:02 METAR KPVU 031456Z 00000KT 10SM SCT200 M08/M09 A3041 RMK AO2 SLP341 T10781089 56007EQDD01      0ADE726
0239725724241742018010315567+40219-111723FM-15+1371KPVU V0201405N00155060965MN0160935N5-00565-00675103435ADDGA1045+042675999GA2075+060965999GD12991+0426759GD23991+0609659GE19MSL   +99999+99999GF199999999999042671999999MA1103015087375REMMET10201/03/18 08:56:02 METAR KPVU 031556Z 14003KT 10SM SCT140 BKN200 M06/M07 A3042 RMK AO2 SLP343 T10561067
0176725724241742018010316567+40219-111723FM-15+1371KPVU V0201105N001552200059N0160935N5-00445-00675103395ADDGA1005+999999999GD10991+9999999GF100991999999999999999999MA1102955087315REMMET09201/03/18 09:56:02 METAR KPVU 031656Z 11003KT 10SM CLR M04/M07 A3040 RMK AO2 SLP339 T10441067
0316725724241742018010317567+40219-111723FM-15+1371KPVU V0209999C000052200059N0160935N5-00065-00505103275ADDGA1025+042675999GA2045+060965999GD11991+0426759GD22991+0609659GE19AGL   +99999+99999GF104995999999042671999999KA1060M-00061KA2060N-00891MA1102915087285MD1890039+9999REMMET12001/03/18 10:56:02 METAR KPVU 031756Z 00000KT 10SM FEW140 SCT200 M01/M05 A3039 RMK AO2 SLP327 T10061050 11006 21089 58003EQDD01      0ADE726
0258725724241742018010318567+40219-111723FM-15+1371KPVU V0202705N002152200059N0160935N5-00065-00725103165ADDGA1025+042675999GA2045+060965999GD11991+0426759GD22991+0609659GE19AGL   +99999+99999GF104995999999042671999999MA1102815087195REMMET10201/03/18 11:56:02 METAR KPVU 031856Z 27004KT 10SM FEW140 SCT200 M01/M07 A3036 RMK AO2 SLP316 T10061072EQDD01      0ADE726
0176725724241742018010319567+40219-111723FM-15+1371KPVU V0202605N002652200059N0160935N5-00115-00675103045ADDGA1005+999999999GD10991+9999999GF100991999999999999999999MA1102685087085REMMET09201/03/18 12:56:02 METAR KPVU 031956Z 26005KT 10SM CLR M01/M07 A3032 RMK AO2 SLP304 T10111067
0258725724241742018010320567+40219-111723FM-15+1371KPVU V0209999C00005073155MN0160935N5+00005-00725102955ADDGA1025+045725999GA2075+073155999GD11991+0457259GD23991+0731559GE19MSL   +99999+99999GF199999999999045721999999MA1102575086995MD1890319+9999REMMET10701/03/18 13:56:02 METAR KPVU 032056Z 00000KT 10SM FEW150 BKN240 00/M07 A3029 RMK AO2 SLP295 T00001072 58031
0238725724241742018010321567+40219-111723FM-15+1371KPVU V0202505N00155076205MN0160935N5+00005-00615102895ADDGA1025+045725999GA2075+076205999GD11991+0457259GD23991+0762059GE19MSL   +99999+99999GF199999999999045721999999MA1102515086935REMMET10101/03/18 14:56:02 METAR KPVU 032156Z 25003KT 10SM FEW150 BKN250 00/M06 A3027 RMK AO2 SLP289 T00001061
0176725724241742018010322567+40219-111723FM-15+1371KPVU V0209999C000052200059N0160935N5-00115-00565102875ADDGA1005+999999999GD10991+9999999GF100991999999999999999999MA1102475086905REMMET09201/03/18 15:56:02 METAR KPVU 032256Z 00000KT 10SM CLR M01/M06 A3026 RMK AO2 SLP287 T10111056
0316725724241742018010323567+40219-111723FM-15+1371KPVU V0209999C000052200059N0160935N5-00175-00615102835ADDGA1025+045725999GA2045+073155999GD11991+0457259GD22991+0731559GE19AGL   +99999+99999GF104995999999045721999999KA1060M+00171KA2060N-00171MA1102475086905MD1690109+9999REMMET12001/03/18 16:56:02 METAR KPVU 032356Z 00000KT 10SM FEW150 SCT240 M02/M06 A3026 RMK AO2 SLP283 T10171061 10017 21017 56010EQDD01      0ADE726
0220725724241742018010400567+40219-111723FM-15+1371KPVU V0209999V001552200059N0160935N5-00395-00615102905ADDGA1025+060965999GD11991+0609659GE19AGL   +99999+99999GF102995999999060961999999MA1102475086905REMMET09501/03/18 17:56:01 METAR KPVU 040056Z VRB03KT 10SM FEW200 M04/M06 A3026 RMK AO2 SLP290 T10391061EQDD01      0ADE726
0220725724241742018010401567+40219-111723FM-15+1371KPVU V0209999C000052200059N0160935N5-00615-00835102985ADDGA1045+060965999GD12991+0609659GE19AGL   +99999+99999GF104995999999060961999999MA1102515086935REMMET09501/03/18 18:56:01 METAR KPVU 040156Z 00000KT 10SM SCT200 M06/M08 A3027 RMK AO2 SLP298 T10611083EQDD01      0ADE726
0196725724241742018010402567+40219-111723FM-15+1371KPVU V0209999C000052200059N0160935N5-00565-00785102985ADDGA1005+999999999GD10991+9999999GF100991999999999999999999MA1102545086965MD1390069+9999REMMET09801/03/18 19:56:02 METAR KPVU 040256Z 00000KT 10SM CLR M06/M08 A3028 RMK AO2 SLP298 T10561078 53006
0175725724241742018010403567+40219-111723FM-15+1371KPVU V0209999C000052200059N0144845N5-00615-00835102955ADDGA1005+999999999GD10991+9999999GF100991999999999999999999MA1102545086965REMMET09101/03/18 20:56:02 METAR KPVU 040356Z 00000KT 9SM CLR M06/M08 A3028 RMK AO2 SLP295 T10611083
0175725724241742018010404567+40219-111723FM-15+1371KPVU V0209999C000052200059N0144845N5-00785-00895102995ADDGA1005+999999999GD10991+9999999GF100991999999999999999999MA1102575086995REMMET09101/03/18 21:56:02 METAR KPVU 040456Z 00000KT 9SM CLR M08/M09 A3029 RMK AO2 SLP299 T10781089
0233725724241742018010405567+40219-111723FM-15+1371KPVU V0209999C000052200059N0080475N5-00785-00895102945ADDGA1005+999999999GD10991+9999999GF100991999999999999999999KA1060M-00171KA2060N-00781MA1102615087025MD1390069+9999REMMET10901/03/18 22:56:02 METAR KPVU 040556Z 00000KT 5SM CLR M08/M09 A3030 RMK AO2 SLP294 T10781089 11017 21078 53006
0211725724241742018010406567+40219-111723FM-15+1371KPVU V0209999C000052200059N0128755N5-00895-01005102945ADDGA1005+999999999GD10991+9999999GF100991999999999999999999KA1240M+00171KA2240N-00941MA1102575086995REMMET10101/03/18 23:56:02 METAR KPVU 040656Z 00000KT 8SM CLR M09/M10 A3029 RMK AO2 SLP294 T10891100 400171094
0175725724241742018010407567+40219-111723FM-15+1371KPVU V0209999C000052200059N0096565N5-00895-01005102925ADDGA1005+999999999GD10991+9999999GF100991999999999999999999MA1102545086965REMMET09101/04/18 00:56:02 METAR KPVU 040756Z 00000KT 6SM CLR M09/M10 A3028 RMK AO2 SLP292 T10891100
0195725724241742018010408567+40219-111723FM-15+1371KPVU V0202105N002152200059N0096565N5-00895-01005102905ADDGA1005+999999999GD10991+9999999GF100991999999999999999999MA1102545086965MD1590059+9999REMMET09701/04/18 01:56:02 METAR KPVU 040856Z 21004KT 6SM CLR M09/M10 A3028 RMK AO2 SLP290 T10891100 55005
0175725724241742018010409567+40219-111723FM-15+1371KPVU V0209999N999992200059N0096565N5-00895-01065102985ADDGA1005+999999999GD10991+9999999GF100991999999999999999999MA1102615087025REMMET09101/04/18 02:56:02 METAR KPVU 040956Z      KT 6SM CLR M09/M11 A3030 RMK AO2 SLP298 T10891106
0175725724241742018010410567+40219-111723FM-15+1371KPVU V0209999C000052200059N0112655N5-00835-01005102965ADDGA1005+999999999GD10991+9999999GF100991999999999999999999MA1102575086995REMMET09101/04/18 03:56:02 METAR KPVU 041056Z 00000KT 7SM CLR M08/M10 A3029 RMK AO2 SLP296 T10831100
0233725724241742018010411567+40219-111723FM-15+1371KPVU V0209999C000052200059N0112655N5-00945-01115102965ADDGA1005+999999999GD10991+9999999GF100991999999999999999999KA1060M-00781KA2060N-01001MA1102545086965MD1090019+9999REMMET10901/04/18 04:56:02 METAR KPVU 041156Z 00000KT 7SM CLR M09/M11 A3028 RMK AO2 SLP296 T10941111 11078 21100 50001
0175725724241742018010412567+40219-111723FM-15+1371KPVU V0209999C000052200059N0064375N5-01005-01175103025ADDGA1005+999999999GD10991+9999999GF100991999999999999999999MA1102575086995REMMET09101/04/18 05:56:02 METAR KPVU 041256Z 00000KT 4SM CLR M10/M12 A3029 RMK AO2 SLP302 T11001117
0175725724241742018010413567+40219-111723FM-15+1371KPVU V0209999C000052200059N0112655N5-00945-01065103155ADDGA1005+999999999GD10991+9999999GF100991999999999999999999MA1102645087055REMMET09101/04/18 06:56:02 METAR KPVU 041356Z 00000KT 7SM CLR M09/M11 A3031 RMK AO2 SLP315 T10941106
0258725724241742018010414567+40219-111723FM-15+1371KPVU V0209999C00005060965MN0128755N5-00895-01065103115ADDGA1045+042675999GA2075+060965999GD12991+0426759GD23991+0609659GE19MSL   +99999+99999GF199999999999042671999999MA1102645087055MD1090079+9999REMMET10701/04/18 07:56:02 METAR KPVU 041456Z 00000KT 8SM SCT140 BKN200 M09/M11 A3031 RMK AO2 SLP311 T10891106 50007
0238725724241742018010415567+40219-111723FM-15+1371KPVU V0209999C00005060965MN0128755N5-00565-00675103065ADDGA1045+042675999GA2075+060965999GD12991+0426759GD23991+0609659GE19MSL   +99999+99999GF199999999999042671999999MA1102645087055REMMET10101/04/18 08:56:02 METAR KPVU 041556Z 00000KT 8SM SCT140 BKN200 M06/M07 A3031 RMK AO2 SLP306 T10561067
0176725724241742018010416567+40219-111723FM-15+1371KPVU V0201905N001552200059N0160935N5-00335-00445103065ADDGA1005+999999999GD10991+9999999GF100991999999999999999999MA1102645087055REMMET09201/04/18 09:56:02 METAR KPVU 041656Z 19003KT 10SM CLR M03/M04 A3031 RMK AO2 SLP306 T10331044
0297725724241742018010417567+40219-111723FM-15+1371KPVU V0209999C00005060965MN0160935N5-00225-00565103085ADDGA1045+042675999GA2075+060965999GD12991+0426759GD23991+0609659GE19MSL   +99999+99999GF199999999999042671999999KA1060M-00221KA2060N-01001MA1102685087085MD1390049+9999REMMET12001/04/18 10:56:02 METAR KPVU 041756Z 00000KT 10SM SCT140 BKN200 M02/M06 A3032 RMK AO2 SLP308 T10221056 11022 21100 53004
0257725724241742018010418567+40219-111723FM-15+1371KPVU V0209999C000052200059N0160935N5+00175-00615102975ADDGA1025+042675999GA2045+060965999GD11991+0426759GD22991+0609659GE19AGL   +99999+99999GF104995999999042671999999MA1102645087055REMMET10101/04/18 11:56:02 METAR KPVU 041856Z 00000KT 10SM FEW140 SCT200 02/M06 A3031 RMK AO2 SLP297 T00171061EQDD01      0ADE726
0200725724241742018010419567+40219-111723FM-15+1371KPVU V0202405N00215060965MN0160935N5+00065-00725102895ADDGA1075+060965999GD13991+0609659GE19MSL   +99999+99999GF199999999999060961999999MA1102545086965REMMET09401/04/18 12:56:02 METAR KPVU 041956Z 24004KT 10SM BKN200 01/M07 A3028 RMK AO2 SLP289 T00061072
0220725724241742018010420567+40219-111723FM-15+1371KPVU V0209999C00005060965MN0160935N5+00285-00895102755ADDGA1075+060965999GD13991+0609659GE19MSL   +99999+99999GF199999999999060961999999MA1102445086875MD1890209+9999REMMET10001/04/18 13:56:02 METAR KPVU 042056Z 00000KT 10SM BKN200 03/M09 A3025 RMK AO2 SLP275 T00281089 58020
0219725724241742018010421567+40219-111723FM-15+1371KPVU V0202605N002152200059N0160935N5+00175-00675102755ADDGA1045+054865999GD12991+0548659GE19AGL   +99999+99999GF104995999999054861999999MA1102445086875REMMET09401/04/18 14:56:02 METAR KPVU 042156Z 26004KT 10SM SCT180 02/M07 A3025 RMK AO2 SLP275 T00171067EQDD01      0ADE726
0175725724241742018010422567+40219-111723FM-15+1371KPVU V0202705N003152200059N0160935N5+00285-00835102715ADDGA1005+999999999GD10991+9999999GF100991999999999999999999MA1102405086845REMMET09101/04/18 15:56:02 METAR KPVU 042256Z 27006KT 10SM CLR 03/M08 A3024 RMK AO2 SLP271 T00281083
0315725724241742018010423567+40219-111723FM-15+1371KPVU V0209999V001552200059N0160935N5+00115-00785102775ADDGA1025+030485999GA2045+073155999GD11991+0304859GD22991+0731559GE19AGL   +99999+99999GF104995999999030481999999KA1060M+00331KA2060N-00221MA1102445086875MD1590029+9999REMMET11901/04/18 16:56:02 METAR KPVU 042356Z VRB03KT 10SM FEW100 SCT240 01/M08 A3025 RMK AO2 SLP277 T00111078 10033 21022 55002EQDD01      0ADE726
0257725724241742018010500567+40219-111723FM-15+1371KPVU V0209999C000052200059N0160935N5+00005-00785102825ADDGA1025+030485999GA2045+073155999GD11991+0304859GD22991+0731559GE19AGL   +99999+99999GF104995999999030481999999MA1102445086875REMMET10101/04/18 17:56:01 METAR KPVU 050056Z 00000KT 10SM FEW100 SCT240 00/M08 A3025 RMK AO2 SLP282 T00001078EQDD01      0ADE726
0220725724241742018010501567+40219-111723FM-15+1371KPVU V0200505N001552200059N0160935N5-00175-00725102845ADDGA1025+030485999GD11991+0304859GE19AGL   +99999+99999GF102995999999030481999999MA1102445086875REMMET09501/04/18 18:56:01 METAR KPVU 050156Z 05003KT 10SM FEW100 M02/M07 A3025 RMK AO2 SLP284 T10171072EQDD01      0ADE726
0240725724241742018010502567+40219-111723FM-15+1371KPVU V0209999C000052200059N0160935N5-00395-00675102885ADDGA1025+030485999GD11991+0304859GE19AGL   +99999+99999GF102995999999030481999999MA1102445086875MD1390029+9999REMMET10101/04/18 19:56:02 METAR KPVU 050256Z 00000KT 10SM FEW100 M04/M07 A3025 RMK AO2 SLP288 T10391067 53002EQDD01      0ADE726
0176725724241742018010503567+40219-111723FM-15+1371KPVU V0209999C000052200059N0160935N5-00505-00785102865ADDGA1005+999999999GD10991+9999999GF100991999999999999999999MA1102475086905REMMET09201/04/18 20:56:02 METAR KPVU 050356Z 00000KT 10SM CLR M05/M08 A3026 RMK AO2 SLP286 T10501078
0176725724241742018010504567+40219-111723FM-15+1371KPVU V0209999C000052200059N0160935N5-00445-00675102815ADDGA1005+999999999GD10991+9999999GF100991999999999999999999MA1102475086905REMMET09201/04/18 21:56:02 METAR KPVU 050456Z 00000KT 10SM CLR M04/M07 A3026 RMK AO2 SLP281 T10441067
0234725724241742018010505567+40219-111723FM-15+1371KPVU V0209999C000052200059N0160935N5-00565-00785102865ADDGA1005+999999999GD10991+9999999GF100991999999999999999999KA1060M+00061KA2060N-00561MA1102515086935MD1390069+9999REMMET11001/04/18 22:56:02 METAR KPVU 050556Z 00000KT 10SM CLR M06/M08 A3027 RMK AO2 SLP286 T10561078 10006 21056 53006
0212725724241742018010506567+40219-111723FM-15+1371KPVU V0209999C000052200059N0160935N5-00615-00835102805ADDGA1005+999999999GD10991+9999999GF100991999999999999999999KA1240M+00331KA2240N-01001MA1102515086935REMMET10201/04/18 23:56:02 METAR KPVU 050656Z 00000KT 10SM CLR M06/M08 A3027 RMK AO2 SLP280 T10611083 400331100
0176725724241742018010507567+40219-111723FM-15+1371KPVU V0209999C000052200059N0160935N5-00615-00895102815ADDGA1005+999999999GD10991+9999999GF100991999999999999999999MA1102515086935REMMET09201/05/18 00:56:02 METAR KPVU 050756Z 00000KT 10SM CLR M06/M09 A3027 RMK AO2 SLP281 T10611089
0195725724241742018010508567+40219-111723FM-15+1371KPVU V0209999C000052200059N0144845N5-00725-00895102865ADDGA1005+999999999GD10991+9999999GF100991999999999999999999MA1102575086995MD1390059+9999REMMET09701/05/18 01:56:02 METAR KPVU 050856Z 00000KT 9SM CLR M07/M09 A3029 RMK AO2 SLP286 T10721089 53005
0200725724241742018010509567+40219-111723FM-15+1371KPVU V0209999C00005030485MN0144845N5-00725-00835102895ADDGA1075+030485999GD13991+0304859GE19MSL   +99999+99999GF199999999999030481999999MA1102575086995REMMET09401/05/18 02:56:02 METAR KPVU 050956Z 00000KT 9SM BKN100 M07/M08 A3029 RMK AO2 SLP289 T10721083
0175725724241742018010510567+40219-111723FM-15+1371KPVU V0209999C000052200059N0144845N5-00675-00785102795ADDGA1005+999999999GD10991+9999999GF100991999999999999999999MA1102545086965REMMET09101/05/18 03:56:02 METAR KPVU 051056Z 00000KT 9SM CLR M07/M08 A3028 RMK AO2 SLP279 T10671078
0233725724241742018010511567+40219-111723FM-15+1371KPVU V0209999C000052200059N0112655N5-00725-00835102855ADDGA1005+999999999GD10991+9999999GF100991999999999999999999KA1060M-00501KA2060N-00781MA1102545086965MD1590029+9999REMMET10901/05/18 04:56:02 METAR KPVU 051156Z 00000KT 7SM CLR M07/M08 A3028 RMK AO2 SLP285 T10721083 11050 21078 55002
0175725724241742018010512567+40219-111723FM-15+1371KPVU V0209999C000052200059N0128755N5-00725-00895102855ADDGA1005+999999999GD10991+9999999GF100991999999999999999999MA1102545086965REMMET09101/05/18 05:56:02 METAR KPVU 051256Z 00000KT 8SM CLR M07/M09 A3028 RMK AO2 SLP285 T10721089
0175725724241742018010513567+40219-111723FM-15+1371KPVU V0209999C000052200059N0128755N5-00615-00725102905ADDGA1005+999999999GD10991+9999999GF100991999999999999999999MA1102575086995REMMET09101/05/18 06:56:02 METAR KPVU 051356Z 00000KT 8SM CLR M06/M07 A3029 RMK AO2 SLP290 T10611072
0196725724241742018010514567+40219-111723FM-15+1371KPVU V0209999C000052200059N0160935N5-00615-00785102935ADDGA1005+999999999GD10991+9999999GF100991999999999999999999MA1102545086965MD1690019+9999REMMET09801/05/18 07:56:02 METAR KPVU 051456Z 00000KT 10SM CLR M06/M08 A3028 RMK AO2 SLP293 T10611078 56001
0175725724241742018010515567+40219-111723FM-15+1371KPVU V0200205N002652200059N0144845N5-00445-00565102975ADDGA1005+999999999GD10991+9999999GF100991999999999999999999MA1102615087025REMMET09101/05/18 08:56:02 METAR KPVU 051556Z 02005KT 9SM CLR M04/M06 A3030 RMK AO2 SLP297 T10441056
0174725724241742018010516567+40219-111723FM-15+1371KPVU V0209999C000052200059N0144845N5+00005-00395102905ADDGA1005+999999999GD10991+9999999GF100991999999999999999999MA1102615087025REMMET09001/05/18 09:56:02 METAR KPVU 051656Z 00000KT 9SM CLR 00/M04 A3030 RMK AO2 SLP290 T00001039
0315725724241742018010517567+40219-111723FM-15+1371KPVU V0209999C000052200059N0160935N5+00115-00725102975ADDGA1045+018295999GA2045+042675999GD12991+0182959GD22991+0426759GE19AGL   +99999+99999GF104995999999018291999999KA1060M+00111KA2060N-00721MA1102685087085MD1390129+9999REMMET11901/05/18 10:56:02 METAR KPVU 051756Z 00000KT 10SM SCT060 SCT140 01/M07 A3032 RMK AO2 SLP297 T00111072 10011 21072 53012EQDD01      0ADE726
0257725724241742018010518567+40219-111723FM-15+1371KPVU V0202205N002152200059N0160935N5+00175-00505102965ADDGA1025+018295999GA2045+027435999GD11991+0182959GD22991+0274359GE19AGL   +99999+99999GF104995999999018291999999MA1102685087085REMMET10101/05/18 11:56:02 METAR KPVU 051856Z 22004KT 10SM FEW060 SCT090 02/M05 A3032 RMK AO2 SLP296 T00171050EQDD01      0ADE726
0219725724241742018010519567+40219-111723FM-15+1371KPVU V0202505N001552200059N0160935N5+00395-00675102835ADDGA1025+019815999GD11991+0198159GE19AGL   +99999+99999GF102995999999019811999999MA1102575086995REMMET09401/05/18 12:56:02 METAR KPVU 051956Z 25003KT 10SM FEW065 04/M07 A3029 RMK AO2 SLP283 T00391067EQDD01      0ADE726
0277725724241742018010520567+40219-111723FM-15+1371KPVU V0209999V002152200059N0160935N5+00505-00615102765ADDGA1025+027435999GA2045+073155999GD11991+0274359GD22991+0731559GE19AGL   +99999+99999GF104995999999027431999999MA1102515086935MD1890149+9999REMMET10701/05/18 13:56:02 METAR KPVU 052056Z VRB04KT 10SM FEW090 SCT240 05/M06 A3027 RMK AO2 SLP276 T00501061 58014EQDD01      0ADE726
0296725724241742018010523567+40219-111723FM-15+1371KPVU V0209999C00005060965MN0160935N5+00225-00615102835ADDGA1045+028965999GA2075+060965999GD12991+0289659GD23991+0609659GE19MSL   +99999+99999GF199999999999028961999999KA1060M+00721KA2060N+00061MA1102545086965MD1390029+9999REMMET11901/05/18 16:56:02 METAR KPVU 052356Z 00000KT 10SM SCT095 BKN200 02/M06 A3028 RMK AO2 SLP283 T00221061 10072 20006 53002
0257725724241742018010600567+40219-111723FM-15+1371KPVU V0209999C000052200059N0160935N5+00115-00725102885ADDGA1025+027435999GA2045+060965999GD11991+0274359GD22991+0609659GE19AGL   +99999+99999GF104995999999027431999999MA1102575086995REMMET10101/05/18 17:56:01 METAR KPVU 060056Z 00000KT 10SM FEW090 SCT200 01/M07 A3029 RMK AO2 SLP288 T00111072EQDD01      0ADE726
0258725724241742018010601567+40219-111723FM-15+1371KPVU V0209999V002152200059N0160935N5-00115-00675102845ADDGA1025+027435999GA2045+060965999GD11991+0274359GD22991+0609659GE19AGL   +99999+99999GF104995999999027431999999MA1102515086935REMMET10201/05/18 18:56:01 METAR KPVU 060156Z VRB04KT 10SM FEW090 SCT200 M01/M07 A3027 RMK AO2 SLP284 T10111067EQDD01      0ADE726
0278725724241742018010602567+40219-111723FM-15+1371KPVU V0209999C000052200059N0160935N5-00225-00615102925ADDGA1025+027435999GA2045+060965999GD11991+0274359GD22991+0609659GE19AGL   +99999+99999GF104995999999027431999999MA1102575086995MD1390029+9999REMMET10801/05/18 19:56:02 METAR KPVU 060256Z 00000KT 10SM FEW090 SCT200 M02/M06 A3029 RMK AO2 SLP292 T10221061 53002EQDD01      0ADE726
0186725724241742018010603564+40219-111723FM-15+137199999V0202701N001512200059N008047199-00171-00331102901ADDGD11991+0274319GE19AGL   +99999+99999GF102995999999027431999999MA1102611999999REMMET077METAR KPVU 060356Z 27003KT 5SM FEW090 M02/M03 A3030 RMK AO2 SLP290 T10171033=EQDD01      0ADE726
0220725724241742018010603577+40219-111723FM-15+1371KPVU V0202705N001552200059N0160935N5-00175-00335102905ADDGA1025+027435999GD11991+0274359GE19AGL   +99999+99999GF102995999999027431999999MA1102615087025REMMET09501/05/18 20:57:02 METAR KPVU 060357Z 27003KT 10SM FEW090 M02/M03 A3030 RMK AO2 SLP290 T10171033EQDD01      0ADE726
0175725724241742018010604567+40219-111723FM-15+1371KPVU V0209999C000052200059N0128755N5-00225-00445102865ADDGA1005+999999999GD10991+9999999GF100991999999999999999999MA1102615087025REMMET09101/05/18 21:56:02 METAR KPVU 060456Z 00000KT 8SM CLR M02/M04 A3030 RMK AO2 SLP286 T10221044
0233725724241742018010605567+40219-111723FM-15+1371KPVU V0209999C000052200059N0144845N5-00285-00505102795ADDGA1005+999999999GD10991+9999999GF100991999999999999999999KA1060M+00221KA2060N-00331MA1102575086995MD1090009+9999REMMET10901/05/18 22:56:02 METAR KPVU 060556Z 00000KT 9SM CLR M03/M05 A3029 RMK AO2 SLP279 T10281050 10022 21033 50000
0211725724241742018010606567+40219-111723FM-15+1371KPVU V0203405N002152200059N0096565N5-00285-00505102725ADDGA1005+999999999GD10991+9999999GF100991999999999999999999KA1240M+00721KA2240N-00781MA1102515086935REMMET10101/05/18 23:56:02 METAR KPVU 060656Z 34004KT 6SM CLR M03/M05 A3027 RMK AO2 SLP272 T10281050 400721078
0175725724241742018010607567+40219-111723FM-15+1371KPVU V0209999C000052200059N0096565N5-00335-00565102655ADDGA1005+999999999GD10991+9999999GF100991999999999999999999MA1102475086905REMMET09101/06/18 00:56:02 METAR KPVU 060756Z 00000KT 6SM CLR M03/M06 A3026 RMK AO2 SLP265 T10331056
0195725724241742018010608567+40219-111723FM-15+1371KPVU V0200805N001552200059N0096565N5-00285-00395102625ADDGA1005+999999999GD10991+9999999GF100991999999999999999999MA1102475086905MD1690099+9999REMMET09701/06/18 01:56:02 METAR KPVU 060856Z 08003KT 6SM CLR M03/M04 A3026 RMK AO2 SLP262 T10281039 56009
0175725724241742018010609567+40219-111723FM-15+1371KPVU V0209999C000052200059N0096565N5-00285-00395102585ADDGA1005+999999999GD10991+9999999GF100991999999999999999999MA1102445086875REMMET09101/06/18 02:56:02 METAR KPVU 060956Z 00000KT 6SM CLR M03/M04 A3025 RMK AO2 SLP258 T10281039
0175725724241742018010610567+40219-111723FM-15+1371KPVU V0203405N002152200059N0112655N5-00225-00395102475ADDGA1005+999999999GD10991+9999999GF100991999999999999999999MA1102305086755REMMET09101/06/18 03:56:02 METAR KPVU 061056Z 34004KT 7SM CLR M02/M04 A3021 RMK AO2 SLP247 T10221039
0259725724241742018010611567+40219-111723FM-15+1371KPVU V0209999C00005033535MN0160935N5-00115-00395102445ADDGA1075+033535999GD13991+0335359GE19MSL   +99999+99999GF199999999999033531999999KA1060M-00111KA2060N-00331MA1102275086725MD1890179+9999REMMET11301/06/18 04:56:02 METAR KPVU 061156Z 00000KT 10SM BKN110 M01/M04 A3020 RMK AO2 SLP244 T10111039 11011 21033 58017
0238725724241742018010612567+40219-111723FM-15+1371KPVU V0202305N00155027435MN0112655N5-00115-00285102455ADDGA1075+027435999GA2085+030485999GD13991+0274359GD24991+0304859GE19MSL   +99999+99999GF199999999999027431999999MA1102275086725REMMET10101/06/18 05:56:02 METAR KPVU 061256Z 23003KT 7SM BKN090 OVC100 M01/M03 A3020 RMK AO2 SLP245 T10111028
0277725724241742018010613567+40219-111723FM-15+1371KPVU V0203605N00155054865MN0160935N5-00115-00285102425ADDGA1025+027435999GA2045+033535999GA3085+054865999GD11991+0274359GD22991+0335359GD34991+0548659GE19MSL   +99999+99999GF199999999999027431999999MA1102205086665REMMET10901/06/18 06:56:02 METAR KPVU 061356Z 36003KT 10SM FEW090 SCT110 OVC180 M01/M03 A3018 RMK AO2 SLP242 T10111028
0297725724241742018010614567+40219-111723FM-15+1371KPVU V0209999C00005024385MN0160935N5-00065-00285102395ADDGA1025+018295999GA2075+024385999GA3085+033535999GD11991+0182959GD23991+0243859GD34991+0335359GE19MSL   +99999+99999GF199999999999018291999999MA1102175086635MD1890109+9999REMMET11501/06/18 07:56:02 METAR KPVU 061456Z 00000KT 10SM FEW060 BKN080 OVC110 M01/M03 A3017 RMK AO2 SLP239 T10061028 58010
0238725724241742018010615567+40219-111723FM-15+1371KPVU V0200605N00155033535MN0160935N5+00005-00225102325ADDGA1045+022865999GA2085+033535999GD12991+0228659GD24991+0335359GE19MSL   +99999+99999GF199999999999022861999999MA1102105086575REMMET10101/06/18 08:56:02 METAR KPVU 061556Z 06003KT 10SM SCT075 OVC110 00/M02 A3015 RMK AO2 SLP232 T00001022
0238725724241742018010616567+40219-111723FM-15+1371KPVU V0200805N00215018295MN0160935N5+00065-00335102315ADDGA1075+018295999GA2085+024385999GD13991+0182959GD24991+0243859GE19MSL   +99999+99999GF199999999999018291999999MA1102105086575REMMET10101/06/18 09:56:02 METAR KPVU 061656Z 08004KT 10SM BKN060 OVC080 01/M03 A3015 RMK AO2 SLP231 T00061033
0296725724241742018010617567+40219-111723FM-15+1371KPVU V0209999C00005018295MN0160935N5+00115-00225102265ADDGA1075+018295999GA2085+024385999GD13991+0182959GD24991+0243859GE19MSL   +99999+99999GF199999999999018291999999KA1060M+00171KA2060N-00111MA1102075086545MD1890099+9999REMMET11901/06/18 10:56:02 METAR KPVU 061756Z 00000KT 10SM BKN060 OVC080 01/M02 A3014 RMK AO2 SLP226 T00111022 10017 21011 58009
0238725724241742018010618567+40219-111723FM-15+1371KPVU V0200405N00155019815MN0160935N5+00285-00285102175ADDGA1075+019815999GA2085+025915999GD13991+0198159GD24991+0259159GE19MSL   +99999+99999GF199999999999019811999999MA1102005086485REMMET10101/06/18 11:56:02 METAR KPVU 061856Z 04003KT 10SM BKN065 OVC085 03/M03 A3012 RMK AO2 SLP217 T00281028
0236725724241742018010619567+40219-111723FM-15+1371KPVU V0203505N00265015245MN0112655N5+00395+00065102045ADDGA1045+012805999GA2085+015245999GD12991+0128059GD24991+0152459GE19MSL   +99999+99999GF199999999999012801999999MA1101865086365REMMET09901/06/18 12:56:02 METAR KPVU 061956Z 35005KT 7SM SCT042 OVC050 04/01 A3008 RMK AO2 SLP204 T00390006
0272725724241742018010620567+40219-111723FM-15+1371KPVU V0209999V00215013115MN0160935N5+00285+00065102085ADDAA101000395AA203000391GA1085+013115999GD14991+0131159GE19MSL   +99999+99999GF199999999999013111999999MA1101905086395MD1590139+9999REMMET11101/06/18 13:56:02 METAR KPVU 062056Z VRB04KT 10SM OVC043 03/01 A3009 RMK AO2 SLP208 P0001 60001 T00280006 55013EQDQ01  00028PRCP03
0198725724241742018010621117+40219-111723FM-15+1371KPVU V0203205N00575012505MN0032195N5+00205+00005999999ADDAA101000395GA1085+012505999GD14991+0125059GE19MSL   +99999+99999GF199999999999012501999999MA1101905086395REMMET08101/06/18 14:11:02 METAR KPVU 062111Z 32011KT 2SM OVC041 02/00 A3009 RMK AO2 P0001
0225725724241742018010621197+40219-111723FM-15+1371KPVU V0203305N00575012505MN0048285N5+00105+00005999999ADDAA101000395AU110020015AW1615GA1085+012505999GD14991+0125059GE19MSL   +99999+99999GF199999999999012501999999MA1101905086395REMMET09101/06/18 14:19:02 METAR KPVU 062119Z 33011KT 3SM -RA OVC041 01/00 A3009 RMK AO2 RAB13 P0001
0243725724241742018010621567+40219-111723FM-15+1371KPVU V0203205N00625012505MN0048285N5+00065-00065102135ADDAA101000595AU110020015AW1615GA1085+012505999GD14991+0125059GE19MSL   +99999+99999GF199999999999012501999999MA1101905086395REMMET10901/06/18 14:56:02 METAR KPVU 062156Z 32012KT 3SM -RA OVC041 01/M01 A3009 RMK AO2 RAB13 SLP213 P0002 T00061006
0220725724241742018010622037+40219-111723FM-15+1371KPVU V0203305N00625012505MN0032195N5+00105-00105999999ADDAA101000021AU110020015AW1615GA1085+012505999GD14991+0125059GE19MSL   +99999+99999GF199999999999012501999999MA1101935086425REMMET08601/06/18 15:03:02 METAR KPVU 062203Z 33012KT 2SM -RA OVC041 01/M01 A3010 RMK AO2 P0000
0261725724241742018010622287+40219-111723FM-15+1371KPVU V0203505N00315009455MN0028165N5+00105+00005999999ADDAA101000595AU110020015AW1615GA1075+009455999GA2085+011895999GD13991+0094559GD24991+0118959GE19MSL   +99999+99999GF199999999999009451999999MA1101935086425REMMET09601/06/18 15:28:02 METAR KPVU 062228Z 35006KT 1 3/4SM -RA BKN031 OVC039 01/00 A3010 RMK AO2 P0002
0278725724241742018010622567+40219-111723FM-15+1371KPVU V0209999C00005009455MN0024145N5+00115+00065102125ADDAA101000895AU110020015AW1615GA1075+009455999GA2085+011285999GD13991+0094559GD24991+0112859GE19MSL   +99999+99999GF199999999999009451999999MA1101935086425REMMET11301/06/18 15:56:02 METAR KPVU 062256Z 00000KT 1 1/2SM -RA BKN031 OVC037 01/01 A3010 RMK AO2 SLP212 P0003 T00110006
0295725724241742018010623187+40219-111723FM-15+1371KPVU V0202305N00265009455MN0016095N5+00205+00105999999ADDAA101000395AU110020015AW1615GA1025+001225999GA2075+009455999GA3085+014025999GD11991+0012259GD23991+0094559GD34991+0140259GE19MSL   +99999+99999GF199999999999001221999999MA1101935086425REMMET09901/06/18 16:18:02 METAR KPVU 062318Z 23005KT 1SM -RA FEW004 BKN031 OVC046 02/01 A3010 RMK AO2 P0001
0257725724241742018010623257+40219-111723FM-15+1371KPVU V0202705N00265008845MN0016095N5+00105+00005999999ADDAA101000395AU110020015AW1615GA1045+001225999GA2085+008845999GD12991+0012259GD24991+0088459GE19MSL   +99999+99999GF199999999999001221999999MA1101965086455REMMET09201/06/18 16:25:02 METAR KPVU 062325Z 27005KT 1SM -RA SCT004 OVC029 01/00 A3011 RMK AO2 P0001
0299725724241742018010623327+40219-111723FM-15+1371KPVU V0202805N00215008235MN0024145N5+00105+00005999999ADDAA101000395AU110020015AW1615GA1045+001225999GA2075+008235999GA3085+009755999GD12991+0012259GD23991+0082359GD34991+0097559GE19MSL   +99999+99999GF199999999999001221999999MA1101965086455REMMET10301/06/18 16:32:02 METAR KPVU 062332Z 28004KT 1 1/2SM -RA SCT004 BKN027 OVC032 01/00 A3011 RMK AO2 P0001
0320725724241742018010623564+40219-111723FM-15+137199999V0203201N003610076219N004023199+00111+00061102191ADDAA101000531AA206002091AW1611GD11991+0027419GD23991+0076219GD34991+0100619GE19MSL   +99999+99999GF199999999999002741999999KA1060M+00441KA2060N+00061MA1102001999999REMMET127METAR KPVU 062356Z 32007KT 2 1/2SM -RA FEW009 BKN025 OVC033 01/01 A3012 RMK AO2 SLP219 P0002 60008 T00110006 10044 20006 53009=EQDQ01  00208PRCP06
0410725724241742018010623577+40219-111723FM-15+1371KPVU V0203205N00265007625MN0040235N5+00115+00065102195ADDAA101000595AA206002091AU110020015AW1615GA1025+002745999GA2075+007625999GA3085+010065999GD11991+0027459GD23991+0076259GD34991+0100659GE19MSL   +99999+99999GF199999999999002741999999KA1060M+00441KA2060N+00061MA1102005086485MD1390099+9999REMMET14401/06/18 16:57:02 METAR KPVU 062357Z 32005KT 2 1/2SM -RA FEW009 BKN025 OVC033 01/01 A3012 RMK AO2 SLP219 P0002 60008 T00110006 10044 20006 53009EQDQ01  00208PRCP06
0261725724241742018010700057+40219-111723FM-15+1371KPVU V0203405N00315009455MN0040235N5+00105+00005999999ADDAA101000021AU110020015AW1615GA1025+007625999GA2085+009455999GD11991+0076259GD24991+0094559GE19MSL   +99999+99999GF199999999999007621999999MA1102005086485REMMET09601/06/18 17:05:01 METAR KPVU 070005Z 34006KT 2 1/2SM -RA FEW025 OVC031 01/00 A3012 RMK AO2 P0000
0223725724241742018010700377+40219-111723FM-15+1371KPVU V0200205N00155009455MN0024145N5+00105+00005999999ADDAA101000021AU110020015AW1615GA1085+009455999GD14991+0094559GE19MSL   +99999+99999GF199999999999009451999999MA1102035086515REMMET08901/06/18 17:37:01 METAR KPVU 070037Z 02003KT 1 1/2SM -RA OVC031 01/00 A3013 RMK AO2 P0000
0257725724241742018010700447+40219-111723FM-15+1371KPVU V0209999C00005009455MN0032195N5+00105+00105999999ADDAA101000021AU110020015AW1615GA1075+009455999GA2075+012195999GD13991+0094559GD23991+0121959GE19MSL   +99999+99999GF199999999999009451999999MA1102035086515REMMET09201/06/18 17:44:01 METAR KPVU 070044Z 00000KT 2SM -RA BKN031 BKN040 01/01 A3013 RMK AO2 P0000
0274725724241742018010700567+40219-111723FM-15+1371KPVU V0209999C00005009455MN0032195N5+00115+00005102205ADDAA101000021AU110020015AW1615GA1075+009455999GA2075+012195999GD13991+0094559GD23991+0121959GE19MSL   +99999+99999GF199999999999009451999999MA1102035086515REMMET10901/06/18 17:56:01 METAR KPVU 070056Z 00000KT 2SM -RA BKN031 BKN040 01/00 A3013 RMK AO2 SLP220 P0000 T00110000
0258725724241742018010701157+40219-111723FM-15+1371KPVU V0201905N00155008845MN0032195N5+00105-00105999999ADDAA101000021AU110020015AW1615GA1075+008845999GA2075+012505999GD13991+0088459GD23991+0125059GE19MSL   +99999+99999GF199999999999008841999999MA1102035086515REMMET09301/06/18 18:15:01 METAR KPVU 070115Z 19003KT 2SM -RA BKN029 BKN041 01/M01 A3013 RMK AO2 P0000
0258725724241742018010701537+40219-111723FM-15+1371KPVU V0209999C00005008845MN0048285N5+00105-00105999999ADDAA101000021AU110020015AW1615GA1075+008845999GA2075+012505999GD13991+0088459GD23991+0125059GE19MSL   +99999+99999GF199999999999008841999999MA1102075086545REMMET09301/06/18 18:53:01 METAR KPVU 070153Z 00000KT 3SM -RA BKN029 BKN041 01/M01 A3014 RMK AO2 P0000
0275725724241742018010701567+40219-111723FM-15+1371KPVU V0209999C00005008845MN0048285N5+00065-00065102265ADDAA101000021AU110020015AW1615GA1075+008845999GA2075+012505999GD13991+0088459GD23991+0125059GE19MSL   +99999+99999GF199999999999008841999999MA1102075086545REMMET11001/06/18 18:56:01 METAR KPVU 070156Z 00000KT 3SM -RA BKN029 BKN041 01/M01 A3014 RMK AO2 SLP226 P0000 T00061006
0262725724241742018010702017+40219-111723FM-15+1371KPVU V0203305N00155008845MN0040235N5+00105-00105999999ADDAA101000021AU110020015AW1615GA1045+001225999GA2085+008845999GD12991+0012259GD24991+0088459GE19MSL   +99999+99999GF199999999999001221999999MA1102105086575REMMET09701/06/18 19:01:01 METAR KPVU 070201Z 33003KT 2 1/2SM -RA SCT004 OVC029 01/M01 A3015 RMK AO2 P0000
0334725724241742018010702567+40219-111723FM-15+1371KPVU V0203305N00265008845MN0040235N5+00115+00065102305ADDAA101000021AA203000021AU110020015AW1615GA1075+008845999GA2085+014945999GD13991+0088459GD24991+0149459GE19MSL   +99999+99999GF199999999999008841999999MA1102135086605MD1290109+9999REMMET12501/06/18 19:56:02 METAR KPVU 070256Z 33005KT 2 1/2SM -RA BKN029 OVC049 01/01 A3016 RMK AO2 SLP230 P0000 60000 T00110006 52010EQDQ01  00008PRCP03
0240725724241742018010703567+40219-111723FM-15+1371KPVU V0209999C00005007325MN0040235N5+00065+00005102325ADDAA101000021AU110020015AW1615GA1085+007325999GD14991+0073259GE19MSL   +99999+99999GF199999999999007321999999MA1102135086605REMMET10601/06/18 20:56:02 METAR KPVU 070356Z 00000KT 2 1/2SM -RA OVC024 01/00 A3016 RMK AO2 SLP232 P0000 T00060000
0257725724241742018010704037+40219-111723FM-15+1371KPVU V0209999C00005006715MN0064375N5+00105+00005999999ADDAA101000021AU110020015AW1615GA1025+004885999GA2085+006715999GD11991+0048859GD24991+0067159GE19MSL   +99999+99999GF199999999999004881999999MA1102135086605REMMET09201/06/18 21:03:02 METAR KPVU 070403Z 00000KT 4SM -RA FEW016 OVC022 01/00 A3016 RMK AO2 P0000
0261725724241742018010704257+40219-111723FM-15+1371KPVU V0201405N00215006715MN0040235N5+00105+00005999999ADDAA101000021AU110020015AW1615GA1025+001225999GA2085+006715999GD11991+0012259GD24991+0067159GE19MSL   +99999+99999GF199999999999001221999999MA1102135086605REMMET09601/06/18 21:25:02 METAR KPVU 070425Z 14004KT 2 1/2SM -RA FEW004 OVC022 01/00 A3016 RMK AO2 P0000
0262725724241742018010704347+40219-111723FM-15+1371KPVU V0201605N00315001225MN0028165N5+00105-00105999999ADDAA101000021AU110020015AW1615GA1075+001225999GA2085+006715999GD13991+0012259GD24991+0067159GE19MSL   +99999+99999GF199999999999001221999999MA1102135086605REMMET09701/06/18 21:34:02 METAR KPVU 070434Z 16006KT 1 3/4SM -RA BKN004 OVC022 01/M01 A3016 RMK AO2 P0000
0287725724241742018010704567+40219-111723FM-15+1371KPVU V0209999C00005001225MN0032195N5+00065-00065102325ADDAA101000021AU110020015AW1615GA1075+001225999GA2085+002745999GD13991+0012251GD24991+0027459GE19MSL   +99999+99999GF199999999999001221999999MA1102135086605REMMET12201/06/18 21:56:02 METAR KPVU 070456Z 00000KT 2SM -RA BKN004 OVC009 01/M01 A3016 RMK AO2 CIG 003V008 SLP232 P0000 T00061006
0269725724241742018010705047+40219-111723FM-15+1371KPVU V0209999C00005001835MN0032195N5+00105+00005999999ADDAA101000021AU110020015AW1615GA1075+001835999GA2085+007015999GD13991+0018351GD24991+0070159GE19MSL   +99999+99999GF199999999999001831999999MA1102175086635REMMET10401/06/18 22:04:02 METAR KPVU 070504Z 00000KT 2SM -RA BKN006 OVC023 01/00 A3017 RMK AO2 CIG 003V009 P0000
0262725724241742018010705197+40219-111723FM-15+1371KPVU V0201105N00215007015MN0028165N5+00105-00105999999ADDAA101000021AU110020015AW1615GA1045+002445999GA2085+007015999GD12991+0024459GD24991+0070159GE19MSL   +99999+99999GF199999999999002441999999MA1102205086665REMMET09701/06/18 22:19:02 METAR KPVU 070519Z 11004KT 1 3/4SM -RA SCT008 OVC023 01/M01 A3018 RMK AO2 P0000
0296725724241742018010705347+40219-111723FM-15+1371KPVU V0209999C00005006405MN0032195N5+00105-00105999999ADDAA101000021AU110020015AW1615GA1045+001225999GA2045+003055999GA3085+006405999GD12991+0012259GD22991+0030559GD34991+0064059GE19MSL   +99999+99999GF199999999999001221999999MA1102205086665REMMET10001/06/18 22:34:02 METAR KPVU 070534Z 00000KT 2SM -RA SCT004 SCT010 OVC021 01/M01 A3018 RMK AO2 P0000
0406725724241742018010705567+40219-111723FM-15+1371KPVU V0209999C00005006405MN0032195N5+00065+00005102385ADDAA101000021AA206000021AU110020015AW1615GA1025+001225999GA2075+006405999GA3085+008535999GD11991+0012259GD23991+0064059GD34991+0085359GE19MSL   +99999+99999GF199999999999001221999999KA1060M+00111KA2060N+00001MA1102245086695MD1390089+9999REMMET14001/06/18 22:56:02 METAR KPVU 070556Z 00000KT 2SM -RA FEW004 BKN021 OVC028 01/00 A3019 RMK AO2 SLP238 P0000 60000 T00060000 10011 20000 53008EQDQ01  00008PRCP06
0272725724241742018010706567+40219-111723FM-15+1371KPVU V0203605N00215006715MN0032195N5+00065+00005102395ADDAA101000021AU110020015AW1615GA1085+006715999GD14991+0067159GE19MSL   +99999+99999GF199999999999006711999999KA1240M+00441KA2240N-00331MA1102275086725REMMET11201/06/18 23:56:02 METAR KPVU 070656Z 36004KT 2SM -RA OVC022 01/00 A3020 RMK AO2 SLP239 P0000 T00060000 400441033
001572572424174201801070659O+40219-111723SOD  +1371KPVU V020999999999999999999999999999+99999+99999999999ADDAT1AU16RA  5
0219725724241742018010707247+40219-111723FM-15+1371KPVU V0203305N00265006715MN0048285N5+00105+00105999999ADDAA101000021AU110020015AW1615GA1085+006715999GD14991+0067159GE19MSL   +99999+99999GF199999999999006711999999MA1102275086725REMMET08501/07/18 00:24:02 METAR KPVU 070724Z 33005KT 3SM -RA OVC022 01/01 A3020 RMK AO2 P0000
0261725724241742018010707367+40219-111723FM-15+1371KPVU V0202205N00315006715MN0028165N5+00105+00105999999ADDAA101000021AU110020015AW1615GA1025+000615999GA2085+006715999GD11991+0006159GD24991+0067159GE19MSL   +99999+99999GF199999999999000611999999MA1102305086755REMMET09601/07/18 00:36:02 METAR KPVU 070736Z 22006KT 1 3/4SM -RA FEW002 OVC022 01/01 A3021 RMK AO2 P0000
0274725724241742018010707567+40219-111723FM-15+1371KPVU V0202205N00265006105MN0032195N5+00065+00005102395ADDAA101000021AU110020015AW1615GA1025+001225999GA2085+006105999GD11991+0012259GD24991+0061059GE19MSL   +99999+99999GF199999999999001221999999MA1102275086725REMMET10901/07/18 00:56:02 METAR KPVU 070756Z 22005KT 2SM -RA FEW004 OVC020 01/00 A3020 RMK AO2 SLP239 P0000 T00060000
0300725724241742018010708047+40219-111723FM-15+1371KPVU V0202405N00265006105MN0028165N5+00005-00105999999ADDAA101000021AU110020015AW1615GA1025+001225999GA2075+006105999GA3085+013415999GD11991+0012259GD23991+0061059GD34991+0134159GE19MSL   +99999+99999GF199999999999001221999999MA1102275086725REMMET10401/07/18 01:04:02 METAR KPVU 070804Z 24005KT 1 3/4SM -RA FEW004 BKN020 OVC044 00/M01 A3020 RMK AO2 P0000
0300725724241742018010708117+40219-111723FM-15+1371KPVU V0202405N00265006105MN0040235N5+00005-00105999999ADDAA101000021AU110020015AW1615GA1075+006105999GA2075+007925999GA3085+013415999GD13991+0061059GD23991+0079259GD34991+0134159GE19MSL   +99999+99999GF199999999999006101999999MA1102305086755REMMET10401/07/18 01:11:02 METAR KPVU 070811Z 24005KT 2 1/2SM -RA BKN020 BKN026 OVC044 00/M01 A3021 RMK AO2 P0000
0296725724241742018010708287+40219-111723FM-15+1371KPVU V0202505N00265007925MN0048285N5+00005-00105999999ADDAA101000021AU110020015AW1615GA1025+006105999GA2075+007925999GA3085+014025999GD11991+0061059GD23991+0079259GD34991+0140259GE19MSL   +99999+99999GF199999999999006101999999MA1102305086755REMMET10001/07/18 01:28:02 METAR KPVU 070828Z 25005KT 3SM -RA FEW020 BKN026 OVC046 00/M01 A3021 RMK AO2 P0000
0300725724241742018010708317+40219-111723FM-15+1371KPVU V0202405N00215014025MN0040235N5+00005-00105999999ADDAA101000021AU110020015AW1615GA1025+006105999GA2045+007925999GA3085+014025999GD11991+0061059GD22991+0079259GD34991+0140259GE19MSL   +99999+99999GF199999999999006101999999MA1102305086755REMMET10401/07/18 01:31:02 METAR KPVU 070831Z 24004KT 2 1/2SM -RA FEW020 SCT026 OVC046 00/M01 A3021 RMK AO2 P0000
0297725724241742018010708567+40219-111723FM-15+1371KPVU V0209999C00005014635MN0040235N5+00005-00065102465ADDAA101000021AA203000021AU110020015AW1615GA1085+014635999GD14991+0146359GE19MSL   +99999+99999GF199999999999014631999999MA1102345086785MD1390089+9999REMMET11901/07/18 01:56:02 METAR KPVU 070856Z 00000KT 2 1/2SM -RA OVC048 00/M01 A3022 RMK AO2 SLP246 P0000 60000 T00001006 53008EQDQ01  00008PRCP03
0296725724241742018010709317+40219-111723FM-15+1371KPVU V0209999C00005013725MN0032195N5+00005-00105999999ADDAA101000021AU110020015AW1615GA1025+000915999GA2045+007625999GA3085+013725999GD11991+0009159GD22991+0076259GD34991+0137259GE19MSL   +99999+99999GF199999999999000911999999MA1102405086845REMMET10001/07/18 02:31:02 METAR KPVU 070931Z 00000KT 2SM -RA FEW003 SCT025 OVC045 00/M01 A3024 RMK AO2 P0000
0296725724241742018010709457+40219-111723FM-15+1371KPVU V0209999C00005007625MN0032195N5+00005-00105999999ADDAA101000021AU110020015AW1615GA1025+000915999GA2075+007625999GA3085+014335999GD11991+0009159GD23991+0076259GD34991+0143359GE19MSL   +99999+99999GF199999999999000911999999MA1102405086845REMMET10001/07/18 02:45:02 METAR KPVU 070945Z 00000KT 2SM -RA FEW003 BKN025 OVC047 00/M01 A3024 RMK AO2 P0000
0313725724241742018010709567+40219-111723FM-15+1371KPVU V0202505N00155007625MN0032195N5+00005-00065102605ADDAA101000021AU110020015AW1615GA1025+000915999GA2075+007625999GA3085+014335999GD11991+0009159GD23991+0076259GD34991+0143359GE19MSL   +99999+99999GF199999999999000911999999MA1102405086845REMMET11701/07/18 02:56:02 METAR KPVU 070956Z 25003KT 2SM -RA FEW003 BKN025 OVC047 00/M01 A3024 RMK AO2 SLP260 P0000 T00001006
0300725724241742018010710107+40219-111723FM-15+1371KPVU V0202705N00155004275MN0040235N5+00005-00105999999ADDAA101000021AU110020015AW1615GA1025+000915999GA2075+004275999GA3085+007625999GD11991+0009159GD23991+0042759GD34991+0076259GE19MSL   +99999+99999GF199999999999000911999999MA1102445086875REMMET10401/07/18 03:10:02 METAR KPVU 071010Z 27003KT 2 1/2SM -RA FEW003 BKN014 OVC025 00/M01 A3025 RMK AO2 P0000
0220725724241742018010710347+40219-111723FM-15+1371KPVU V0209999C00005004275MN0048285N5+00005-00105999999ADDAA101000021AU110020015AW1615GA1085+004275999GD14991+0042759GE19MSL   +99999+99999GF199999999999004271999999MA1102445086875REMMET08601/07/18 03:34:02 METAR KPVU 071034Z 00000KT 3SM -RA OVC014 00/M01 A3025 RMK AO2 P0000
0275725724241742018010710567+40219-111723FM-15+1371KPVU V0209999C00005007015MN0048285N5+00005-00065102605ADDAA101000021AU110020015AW1615GA1045+004275999GA2085+007015999GD12991+0042759GD24991+0070159GE19MSL   +99999+99999GF199999999999004271999999MA1102445086875REMMET11001/07/18 03:56:02 METAR KPVU 071056Z 00000KT 3SM -RA SCT014 OVC023 00/M01 A3025 RMK AO2 SLP260 P0000 T00001006
0258725724241742018010711107+40219-111723FM-15+1371KPVU V0209999C00005007015MN0032195N5+00005-00105999999ADDAA101000021AU110020015AW1615GA1075+007015999GA2085+009145999GD13991+0070159GD24991+0091459GE19MSL   +99999+99999GF199999999999007011999999MA1102405086845REMMET09301/07/18 04:10:02 METAR KPVU 071110Z 00000KT 2SM -RA BKN023 OVC030 00/M01 A3024 RMK AO2 P0000
0368725724241742018010711567+40219-111723FM-15+1371KPVU V0209999C00005006405MN0040235N5+00005-00065102585ADDAA101000021AA206000021AA324002091AU110020015AW1615GA1085+006405999GD14991+0064059GE19MSL   +99999+99999GF199999999999006401999999KA1060M+00111KA2060N-00061MA1102405086845MD1090069+9999REMMET13701/07/18 04:56:02 METAR KPVU 071156Z 00000KT 2 1/2SM -RA OVC021 00/M01 A3024 RMK AO2 SLP258 P0000 60000 70008 T00001006 10011 21006 50006EQDQ01  00008PRCP06Q02  00208PRCP24
0258725724241742018010712497+40219-111723FM-15+1371KPVU V0209999C00005007015MN0048285N5+00005-00105999999ADDAA101000021AU110020015AW1615GA1025+002745999GA2085+007015999GD11991+0027459GD24991+0070159GE19MSL   +99999+99999GF199999999999002741999999MA1102475086905REMMET09301/07/18 05:49:02 METAR KPVU 071249Z 00000KT 3SM -RA FEW009 OVC023 00/M01 A3026 RMK AO2 P0000
0275725724241742018010712567+40219-111723FM-15+1371KPVU V0209999C00005007015MN0048285N5+00005-00065102675ADDAA101000021AU110020015AW1615GA1045+002745999GA2085+007015999GD12991+0027459GD24991+0070159GE19MSL   +99999+99999GF199999999999002741999999MA1102475086905REMMET11001/07/18 05:56:02 METAR KPVU 071256Z 00000KT 3SM -RA SCT009 OVC023 00/M01 A3026 RMK AO2 SLP267 P0000 T00001006
0258725724241742018010713037+40219-111723FM-15+1371KPVU V0202805N00155002745MN0048285N5+00005-00105999999ADDAA101000021AU110020015AW1615GA1075+002745999GA2085+007015999GD13991+0027459GD24991+0070159GE19MSL   +99999+99999GF199999999999002741999999MA1102515086935REMMET09301/07/18 06:03:02 METAR KPVU 071303Z 28003KT 3SM -RA BKN009 OVC023 00/M01 A3027 RMK AO2 P0000
0224725724241742018010713197+40219-111723FM-15+1371KPVU V0209999C00005002745MN0040235N5+00005-00105999999ADDAA101000021AU110020015AW1615GA1085+002745999GD14991+0027459GE19MSL   +99999+99999GF199999999999002741999999MA1102515086935REMMET09001/07/18 06:19:02 METAR KPVU 071319Z 00000KT 2 1/2SM -RA OVC009 00/M01 A3027 RMK AO2 P0000
0220725724241742018010713377+40219-111723FM-15+1371KPVU V0202605N00155002745MN0048285N5+00005-00105999999ADDAA101000021AU110020015AW1615GA1085+002745999GD14991+0027459GE19MSL   +99999+99999GF199999999999002741999999MA1102545086965REMMET08601/07/18 06:37:02 METAR KPVU 071337Z 26003KT 3SM -RA OVC009 00/M01 A3028 RMK AO2 P0000
0262725724241742018010713457+40219-111723FM-15+1371KPVU V0202705N00155002745MN0040235N5+00005-00105999999ADDAA101000021AU110020015AW1615GA1075+002745999GA2085+009145999GD13991+0027459GD24991+0091459GE19MSL   +99999+99999GF199999999999002741999999MA1102545086965REMMET09701/07/18 06:45:02 METAR KPVU 071345Z 27003KT 2 1/2SM -RA BKN009 OVC030 00/M01 A3028 RMK AO2 P0000
0258725724241742018010713517+40219-111723FM-15+1371KPVU V0209999C00005009145MN0048285N5+00005-00105999999ADDAA101000021AU110020015AW1615GA1045+002745999GA2085+009145999GD12991+0027459GD24991+0091459GE19MSL   +99999+99999GF199999999999002741999999MA1102545086965REMMET09301/07/18 06:51:02 METAR KPVU 071351Z 00000KT 3SM -RA SCT009 OVC030 00/M01 A3028 RMK AO2 P0000
0241725724241742018010713564+40219-111723FM-15+137199999V0209999C000010097519N004023199+00001-00061102721ADDAA101000021AW1611GD11991+0027419GD23991+0097519GD34991+0146319GE19MSL   +99999+99999GF199999999999002741999999MA1102541999999REMMET104METAR KPVU 071356Z 00000KT 2 1/2SM -RA FEW009 BKN032 OVC048 00/M01 A3028 RMK AO2 SLP272 P0000 T00001006=
0316725724241742018010713577+40219-111723FM-15+1371KPVU V0209999C00005009755MN0040235N5+00005-00065102725ADDAA101000021AU100001015AW1105GA1025+002745999GA2075+009755999GA3085+014635999GD11991+0027459GD23991+0097559GD34991+0146359GE19MSL   +99999+99999GF199999999999002741999999MA1102545086965REMMET12001/07/18 06:57:02 METAR KPVU 071357Z 00000KT 2 1/2SM BR FEW009 BKN032 OVC048 00/M01 A3028 RMK AO2 SLP272 P0000 T00001006
0326725724241742018010714567+40219-111723FM-15+1371KPVU V0202605N00155014635MN0040235N5-00065-00115102805ADDAA103000021AU100001015AW1105GA1025+002745999GA2075+014635999GD11991+0027459GD23991+0146359GE19MSL   +99999+99999GF199999999999002741999999MA1102615087025MD1190199+9999REMMET12801/07/18 07:56:02 METAR KPVU 071456Z 26003KT 2 1/2SM BR FEW009 BKN048 M01/M01 A3030 RMK AO2 RAE1357 SLP280 60000 T10061011 51019EQDQ01  00008PRCP03
0245725724241742018010715037+40219-111723FM-15+1371KPVU V0202505N00155014635MN0024145N5-00105-00105999999ADDAU100001015AW1105GA1045+003355999GA2085+014635999GD12991+0033559GD24991+0146359GE19MSL   +99999+99999GF199999999999003351999999MA1102645087055REMMET09101/07/18 08:03:02 METAR KPVU 071503Z 25003KT 1 1/2SM BR SCT011 OVC048 M01/M01 A3031 RMK AO2
0244725724241742018010715147+40219-111723FM-15+1371KPVU V0209999C00005003355MN0024145N5+00005-00105999999ADDAU100001015AW1105GA1075+003355999GA2085+014635999GD13991+0033559GD24991+0146359GE19MSL   +99999+99999GF199999999999003351999999MA1102645087055REMMET09001/07/18 08:14:02 METAR KPVU 071514Z 00000KT 1 1/2SM BR BKN011 OVC048 00/M01 A3031 RMK AO2
0282725724241742018010715517+40219-111723FM-15+1371KPVU V0209999C00005015245MN0020125N5+00005-00105999999ADDAU100001015AW1105GA1045+003355999GA2045+006405999GA3085+015245999GD12991+0033559GD22991+0064059GD34991+0152459GE19MSL   +99999+99999GF199999999999003351999999MA1102715087105REMMET09701/07/18 08:51:02 METAR KPVU 071551Z 00000KT 1 1/4SM BR SCT011 SCT021 OVC050 00/M01 A3033 RMK AO2
0299725724241742018010715567+40219-111723FM-15+1371KPVU V0209999C00005015245MN0020125N5+00005-00065102905ADDAU100001015AW1105GA1025+003355999GA2045+006405999GA3085+015245999GD11991+0033559GD22991+0064059GD34991+0152459GE19MSL   +99999+99999GF199999999999003351999999MA1102715087105REMMET11401/07/18 08:56:02 METAR KPVU 071556Z 00000KT 1 1/4SM BR FEW011 SCT021 OVC050 00/M01 A3033 RMK AO2 SLP290 T00001006
0244725724241742018010716167+40219-111723FM-15+1371KPVU V0209999C00005015245MN0028165N5+00105-00105999999ADDAU100001015AW1105GA1025+001225999GA2085+015245999GD11991+0012259GD24991+0152459GE19MSL   +99999+99999GF199999999999001221999999MA1102715087105REMMET09001/07/18 09:16:02 METAR KPVU 071616Z 00000KT 1 3/4SM BR FEW004 OVC050 01/M01 A3033 RMK AO2
0281725724241742018010716527+40219-111723FM-15+1371KPVU V0201905N00155006105MN0024145N5+00105+00005999999ADDAU100001015AW1105GA1045+001225999GA2075+006105999GA3085+015245999GD12991+0012259GD23991+0061059GD34991+0152459GE19MSL   +99999+99999GF199999999999001221999999MA1102785087165REMMET09601/07/18 09:52:02 METAR KPVU 071652Z 19003KT 1 1/2SM BR SCT004 BKN020 OVC050 01/00 A3035 RMK AO2
0298725724241742018010716567+40219-111723FM-15+1371KPVU V0201905N00215006105MN0024145N5+00115+00005102935ADDAU100001015AW1105GA1045+001225999GA2075+006105999GA3085+015245999GD12991+0012259GD23991+0061059GD34991+0152459GE19MSL   +99999+99999GF199999999999001221999999MA1102785087165REMMET11301/07/18 09:56:02 METAR KPVU 071656Z 19004KT 1 1/2SM BR SCT004 BKN020 OVC050 01/00 A3035 RMK AO2 SLP293 T00110000
0239725724241742018010717107+40219-111723FM-15+1371KPVU V0202205N00265001225MN0032195N5+00205+00105999999ADDAU100001015AW1105GA1075+001225999GA2085+006105999GD13991+0012259GD24991+0061059GE19MSL   +99999+99999GF199999999999001221999999MA1102785087165REMMET08501/07/18 10:10:02 METAR KPVU 071710Z 22005KT 2SM BR BKN004 OVC020 02/01 A3035 RMK AO2
0258725724241742018010717527+40219-111723FM-15+1371KPVU V0209999C000052200059N0032195N5+00305+00205999999ADDAU100001015AW1105GA1045+001225999GA2045+002135999GD12991+0012259GD22991+0021359GE19AGL   +99999+99999GF104995999999001221999999MA1102785087165REMMET08501/07/18 10:52:02 METAR KPVU 071752Z 00000KT 2SM BR SCT004 SCT007 03/02 A3035 RMK AO2EQDD01      0ADE726
0277725724241742018010717537+40219-111723FM-15+1371KPVU V0209999C00005006105MN0032195N5+00305+00205999999ADDAU100001015AW1105GA1025+001225999GA2045+002135999GA3075+006105999GD11991+0012259GD22991+0021359GD33991+0061059GE19MSL   +99999+99999GF199999999999001221999999MA1102785087165REMMET09201/07/18 10:53:02 METAR KPVU 071753Z 00000KT 2SM BR FEW004 SCT007 BKN020 03/02 A3035 RMK AO2
0388725724241742018010717567+40219-111723FM-15+1371KPVU V0209999C00005006105MN0032195N5+00335+00225102895ADDAA106000021AU100001015AW1105GA1025+001225999GA2045+002135999GA3075+006105999GD11991+0012259GD22991+0021359GD33991+0061059GE19MSL   +99999+99999GF199999999999001221999999KA1060M+00331KA2060N-00061MA1102785087165MD1490009+9999REMMET13301/07/18 10:56:02 METAR KPVU 071756Z 00000KT 2SM BR FEW004 SCT007 BKN020 03/02 A3035 RMK AO2 SLP289 60000 T00330022 10033 21006 54000EQDQ01  00008PRCP06
0220725724241742018010718047+40219-111723FM-15+1371KPVU V0200205N001552200059N0032195N5+00305+00205999999ADDAU100001015AW1105GA1025+002135999GD11991+0021359GE19AGL   +99999+99999GF102995999999002131999999MA1102745087135REMMET07801/07/18 11:04:02 METAR KPVU 071804Z 02003KT 2SM BR FEW007 03/02 A3034 RMK AO2EQDD01      0ADE726
0205725724241742018010718277+40219-111723FM-15+1371KPVU V0203005N00215001525MN0040235N5+00405+00205999999ADDAU100001015AW1105GA1075+001525999GD13991+0015259GE19MSL   +99999+99999GF199999999999001521999999MA1102715087105REMMET08201/07/18 11:27:02 METAR KPVU 071827Z 30004KT 2 1/2SM BR BKN005 04/02 A3033 RMK AO2
0224725724241742018010718397+40219-111723FM-15+1371KPVU V0203005N002152200059N0040235N5+00405+00205999999ADDAU100001015AW1105GA1045+001525999GD12991+0015259GE19AGL   +99999+99999GF104995999999001521999999MA1102715087105REMMET08201/07/18 11:39:02 METAR KPVU 071839Z 30004KT 2 1/2SM BR SCT005 04/02 A3033 RMK AO2EQDD01      0ADE726
0241725724241742018010718567+40219-111723FM-15+1371KPVU V0202905N003152200059N0040235N5+00285+00115102815ADDAU100001015AW1105GA1025+001525999GD11991+0015259GE19AGL   +99999+99999GF102995999999001521999999MA1102685087085REMMET09901/07/18 11:56:02 METAR KPVU 071856Z 29006KT 2 1/2SM BR FEW005 03/01 A3032 RMK AO2 SLP281 T00280011EQDD01      0ADE726
0176725724241742018010719047+40219-111723FM-15+1371KPVU V0202905N002652200059N0048285N5+00305+00105999999ADDAU100001015AW1105GA1005+999999999GD10991+9999999GF100991999999999999999999MA1102685087085REMMET07501/07/18 12:04:02 METAR KPVU 071904Z 29005KT 3SM BR CLR 03/01 A3032 RMK AO2
0313725724241742018010719567+40219-111723FM-15+1371KPVU V0209999V002652200059N0064375N5+00395+00115102685ADDAU100001015AW1105GA1025+001525999GA2025+006105999GA3045+010675999GD11991+0015259GD21991+0061059GD32991+0106759GE19AGL   +99999+99999GF104995999999001521999999MA1102575086995REMMET10901/07/18 12:56:02 METAR KPVU 071956Z VRB05KT 4SM BR FEW005 FEW020 SCT035 04/01 A3029 RMK AO2 SLP268 T00390011EQDD01      0ADE726
0257725724241742018010720567+40219-111723FM-15+1371KPVU V0209999V002652200059N0096565N5+00505+00175102555ADDAU100001015AW1105GA1025+007625999GD11991+0076259GE19AGL   +99999+99999GF102995999999007621999999MA1102445086875MD1890289+9999REMMET10101/07/18 13:56:02 METAR KPVU 072056Z VRB05KT 6SM BR FEW025 05/02 A3025 RMK AO2 SLP255 T00500017 58028EQDD01      0ADE726
0176725724241742018010721177+40219-111723FM-15+1371KPVU V0202905N003152200059N0096565N5+00405+00105999999ADDAU100001015AW1105GA1005+999999999GD10991+9999999GF100991999999999999999999MA1102445086875REMMET07501/07/18 14:17:02 METAR KPVU 072117Z 29006KT 6SM BR CLR 04/01 A3025 RMK AO2
0220725724241742018010721187+40219-111723FM-15+1371KPVU V0202905N003152200059N0096565N5+00405+00105999999ADDAU100001015AW1105GA1025+007625999GD11991+0076259GE19AGL   +99999+99999GF102995999999007621999999MA1102445086875REMMET07801/07/18 14:18:02 METAR KPVU 072118Z 29006KT 6SM BR FEW025 04/01 A3025 RMK AO2EQDD01      0ADE726
0217725724241742018010721567+40219-111723FM-15+1371KPVU V0203105N002152200059N0128755N5+00505+00115102465ADDGA1025+007625999GD11991+0076259GE19AGL   +99999+99999GF102995999999007621999999MA1102375086815REMMET09201/07/18 14:56:02 METAR KPVU 072156Z 31004KT 8SM FEW025 05/01 A3023 RMK AO2 SLP246 T00500011EQDD01      0ADE726
0218725724241742018010722567+40219-111723FM-15+1371KPVU V0209999V002652200059N0160935N5+00565+00115102505ADDGA1025+009145999GD11991+0091459GE19AGL   +99999+99999GF102995999999009141999999MA1102405086845REMMET09301/07/18 15:56:02 METAR KPVU 072256Z VRB05KT 10SM FEW030 06/01 A3024 RMK AO2 SLP250 T00560011EQDD01      0ADE726
0231725724241742018010723567+40219-111723FM-15+1371KPVU V0203305N001552200059N0112655N5+00335+00005102515ADDGA1005+999999999GD10991+9999999GF100991999999999999999999KA1060M+00561KA2060N+00281MA1102375086815MD1690069+9999REMMET10701/07/18 16:56:02 METAR KPVU 072356Z 33003KT 7SM CLR 03/00 A3023 RMK AO2 SLP251 T00330000 10056 20028 56006
0173725724241742018010800567+40219-111723FM-15+1371KPVU V0209999C000052200059N0144845N5+00175+00005102525ADDGA1005+999999999GD10991+9999999GF100991999999999999999999MA1102375086815REMMET08901/07/18 17:56:01 METAR KPVU 080056Z 00000KT 9SM CLR 02/00 A3023 RMK AO2 SLP252 T00170000
0175725724241742018010801567+40219-111723FM-15+1371KPVU V0202405N001552200059N0080475N5-00115-00285102595ADDGA1005+999999999GD10991+9999999GF100991999999999999999999MA1102375086815REMMET09101/07/18 18:56:01 METAR KPVU 080156Z 24003KT 5SM CLR M01/M03 A3023 RMK AO2 SLP259 T10111028
0162725724241742018010802437+40219-111723FM-15+1371KPVU V0202005N001552200059N0024145N5-00205-00305999999ADDGA1005+999999999GD10991+9999999GF100991999999999999999999MA1102375086815REMMET07801/07/18 19:43:01 METAR KPVU 080243Z 20003KT 1 1/2SM CLR M02/M03 A3023 RMK AO2
0170725724241742018010802477+40219-111723FM-15+1371KPVU V0202105N001552200059N0012075V5-00205-00305999999ADDGA1005+999999999GD10991+9999999GF100991999999999999999999MA1102375086815REMMET08601/07/18 19:47:02 METAR KPVU 080247Z 21003KT 3/4SM CLR M02/M03 A3023 RMK AO2 VIS 1/4V3
0197725724241742018010802567+40219-111723FM-15+1371KPVU V0202305N001552200059N0012075N5-00225-00395102605ADDGA1005+999999999GD10991+9999999GF100991999999999999999999MA1102375086815MD1890009+9999REMMET09901/07/18 19:56:02 METAR KPVU 080256Z 23003KT 3/4SM CLR M02/M04 A3023 RMK AO2 SLP260 T10221039 58000
0162725724241742018010802597+40219-111723FM-15+1371KPVU V0202405N001552200059N0020125N5-00205-00405999999ADDGA1005+999999999GD10991+9999999GF100991999999999999999999MA1102375086815REMMET07801/07/18 19:59:02 METAR KPVU 080259Z 24003KT 1 1/4SM CLR M02/M04 A3023 RMK AO2
0158725724241742018010803017+40219-111723FM-15+1371KPVU V0202505N001552200059N0048285N5-00205-00405999999ADDGA1005+999999999GD10991+9999999GF100991999999999999999999MA1102345086785REMMET07401/07/18 20:01:02 METAR KPVU 080301Z 25003KT 3SM CLR M02/M04 A3022 RMK AO2
0175725724241742018010803567+40219-111723FM-15+1371KPVU V0209999C000052200059N0048285N5-00225-00285102605ADDGA1005+999999999GD10991+9999999GF100991999999999999999999MA1102375086815REMMET09101/07/18 20:56:02 METAR KPVU 080356Z 00000KT 3SM CLR M02/M03 A3023 RMK AO2 SLP260 T10221028
0162725724241742018010804537+40219-111723FM-15+1371KPVU V0203505N001552200059N0028165N5-00205-00305999999ADDGA1005+999999999GD10991+9999999GF100991999999999999999999MA1102405086845REMMET07801/07/18 21:53:02 METAR KPVU 080453Z 35003KT 1 3/4SM CLR M02/M03 A3024 RMK AO2
0191725724241742018010804567+40219-111723FM-15+1371KPVU V0203505N001552200059N0032195V5-00225-00335102615ADDGA1005+999999999GD10991+9999999GF100991999999999999999999MA1102405086845REMMET10701/07/18 21:56:02 METAR KPVU 080456Z 35003KT 2SM CLR M02/M03 A3024 RMK AO2 VIS 1 1/4V2 1/2 SLP261 T10221033
0172725724241742018010805017+40219-111723FM-15+1371KPVU V0203605N002152200059N0016095V5-00305-00305999999ADDGA1005+999999999GD10991+9999999GF100991999999999999999999MA1102375086815REMMET08801/07/18 22:01:02 METAR KPVU 080501Z 36004KT 1SM CLR M03/M03 A3023 RMK AO2 VIS 1/4V2 1/2
0160725724241742018010805037+40219-111723FM-15+1371KPVU V0203605N001552200059N0008055N5-00305-00305999999ADDGA1005+999999999GD10991+9999999GF100991999999999999999999MA1102375086815REMMET07601/07/18 22:03:02 METAR KPVU 080503Z 36003KT 1/2SM CLR M03/M03 A3023 RMK AO2
0172725724241742018010805247+40219-111723FM-15+1371KPVU V0203305N001552200059N0016095V5-00305-00405999999ADDGA1005+999999999GD10991+9999999GF100991999999999999999999MA1102375086815REMMET08801/07/18 22:24:02 METAR KPVU 080524Z 33003KT 1SM CLR M03/M04 A3023 RMK AO2 VIS 1/2V1 3/4
0184725724241742018010805327+40219-111723FM-15+1371KPVU V0209999C00005001225WN0008055N5-00305-00405999999ADDGA1095+001225999GD15991+0012259GE19MSL   +99999+99999GF109991999999001221999999MA1102345086785REMMET07801/07/18 22:32:02 METAR KPVU 080532Z 00000KT 1/2SM VV004 M03/M04 A3022 RMK AO2
0184725724241742018010805397+40219-111723FM-15+1371KPVU V0209999C00005001225WN0004025N5-00305-00405999999ADDGA1095+001225999GD15991+0012259GE19MSL   +99999+99999GF109991999999001221999999MA1102345086785REMMET07801/07/18 22:39:02 METAR KPVU 080539Z 00000KT 1/4SM VV004 M03/M04 A3022 RMK AO2
0259725724241742018010805567+40219-111723FM-15+1371KPVU V0202505N00215001225WN0008055N5-00335-00395102605ADDGA1095+001225999GD15991+0012259GE19MSL   +99999+99999GF109991999999001221999999KA1060M+00331KA2060N-00331MA1102405086845MD1190049+9999REMMET11301/07/18 22:56:02 METAR KPVU 080556Z 25004KT 1/2SM VV004 M03/M04 A3024 RMK AO2 SLP260 T10331039 10033 21033 51004
0182725724241742018010806007+40219-111723FM-15+1371KPVU V0202605N00155001225WN0016095N5-00305-00405999999ADDGA1095+001225999GD15991+0012259GE19MSL   +99999+99999GF109991999999001221999999MA1102405086845REMMET07601/07/18 23:00:02 METAR KPVU 080600Z 26003KT 1SM VV004 M03/M04 A3024 RMK AO2
0206725724241742018010806087+40219-111723FM-15+1371KPVU V0209999C000052200059N0024145N5-00305-00405999999ADDGA1025+001225999GD11991+0012259GE19AGL   +99999+99999GF102995999999001221999999MA1102405086845REMMET08101/07/18 23:08:02 METAR KPVU 080608Z 00000KT 1 1/2SM FEW004 M03/M04 A3024 RMK AO2EQDD01      0ADE726
0160725724241742018010806217+40219-111723FM-15+1371KPVU V0209999C000052200059N0012075N5-00305-00405999999ADDGA1005+999999999GD10991+9999999GF100991999999999999999999MA1102375086815REMMET07601/07/18 23:21:02 METAR KPVU 080621Z 00000KT 3/4SM CLR M03/M04 A3023 RMK AO2
0174725724241742018010806287+40219-111723FM-15+1371KPVU V0200105N002652200059N0008055V5-00305-00305999999ADDGA1005+999999999GD10991+9999999GF100991999999999999999999MA1102345086785REMMET09001/07/18 23:28:02 METAR KPVU 080628Z 01005KT 1/2SM CLR M03/M03 A3022 RMK AO2 VIS 1/4V1 1/2
0172725724241742018010806327+40219-111723FM-15+1371KPVU V0200405N001552200059N0016095V5-00305-00405999999ADDGA1005+999999999GD10991+9999999GF100991999999999999999999MA1102345086785REMMET08801/07/18 23:32:02 METAR KPVU 080632Z 04003KT 1SM CLR M03/M04 A3022 RMK AO2 VIS 1/2V1 3/4
0176725724241742018010806417+40219-111723FM-15+1371KPVU V0209999C000052200059N0028165V5-00305-00405999999ADDGA1005+999999999GD10991+9999999GF100991999999999999999999MA1102345086785REMMET09201/07/18 23:41:02 METAR KPVU 080641Z 00000KT 1 3/4SM CLR M03/M04 A3022 RMK AO2 VIS 1/2V2 1/2
0213725724241742018010806567+40219-111723FM-15+1371KPVU V0209999C000052200059N0012075N5-00335-00395102485ADDGA1005+999999999GD10991+9999999GF100991999999999999999999KA1240M+00561KA2240N-00331MA1102305086755REMMET10301/07/18 23:56:02 METAR KPVU 080656Z 00000KT 3/4SM CLR M03/M04 A3021 RMK AO2 SLP248 T10331039 400561033
002772572424174201801080659O+40219-111723SOD  +1371KPVU V020999999999999999999999999999+99999+99999999999ADDAT1AU16RA  5AT2AU13BR  5
0160725724241742018010807037+40219-111723FM-15+1371KPVU V0209999C000052200059N0008055N5-00305-00405999999ADDGA1005+999999999GD10991+9999999GF100991999999999999999999MA1102275086725REMMET07601/08/18 00:03:02 METAR KPVU 080703Z 00000KT 1/2SM CLR M03/M04 A3020 RMK AO2
0158725724241742018010807067+40219-111723FM-15+1371KPVU V0209999C000052200059N0016095N5-00305-00405999999ADDGA1005+999999999GD10991+9999999GF100991999999999999999999MA1102275086725REMMET07401/08/18 00:06:02 METAR KPVU 080706Z 00000KT 1SM CLR M03/M04 A3020 RMK AO2
0216725724241742018010807087+40219-111723FM-15+1371KPVU V0209999C000052200059N0020125V5-00405-00405999999ADDGA1025+000915999GD11991+0009159GE19AGL   +99999+99999GF102995999999000911999999MA1102275086725REMMET09101/08/18 00:08:02 METAR KPVU 080708Z 00000KT 1 1/4SM FEW003 M04/M04 A3020 RMK AO2 VIS 1/2V4EQDD01      0ADE726
0196725724241742018010807167+40219-111723FM-15+1371KPVU V0202505N00215000915WN0016095V5-00405-00405999999ADDGA1095+000915999GD15991+0009159GE19MSL   +99999+99999GF109991999999000911999999MA1102275086725REMMET09001/08/18 00:16:02 METAR KPVU 080716Z 25004KT 1SM VV003 M04/M04 A3020 RMK AO2 VIS 1/2V2 1/2
0220725724241742018010807237+40219-111723FM-15+1371KPVU V0202605N002152200059N0020125V5-00305-00405999999ADDGA1045+000615999GD12991+0006159GE19AGL   +99999+99999GF104995999999000611999999MA1102275086725REMMET09501/08/18 00:23:02 METAR KPVU 080723Z 26004KT 1 1/4SM SCT002 M03/M04 A3020 RMK AO2 VIS 1/2V2 1/2EQDD01      0ADE726
0202725724241742018010807327+40219-111723FM-15+1371KPVU V0202905N003652200059N0048285N5-00305-00405999999ADDGA1025+000615999GD11991+0006159GE19AGL   +99999+99999GF102995999999000611999999MA1102275086725REMMET07701/08/18 00:32:02 METAR KPVU 080732Z 29007KT 3SM FEW002 M03/M04 A3020 RMK AO2EQDD01      0ADE726
0175725724241742018010807567+40219-111723FM-15+1371KPVU V0209999V002652200059N0112655N5-00335-00395102455ADDGA1005+999999999GD10991+9999999GF100991999999999999999999MA1102275086725REMMET09101/08/18 00:56:02 METAR KPVU 080756Z VRB05KT 7SM CLR M03/M04 A3020 RMK AO2 SLP245 T10331039
0202725724241742018010808277+40219-111723FM-15+1371KPVU V0209999V001552200059N0064375N5-00405-00605999999ADDGA1025+000305999GD11991+0003059GE19AGL   +99999+99999GF102995999999000301999999MA1102305086755REMMET07701/08/18 01:27:02 METAR KPVU 080827Z VRB03KT 4SM FEW001 M04/M06 A3021 RMK AO2EQDD01      0ADE726
0216725724241742018010808447+40219-111723FM-15+1371KPVU V0209999C000052200059N0024145V5-00405-00605999999ADDGA1025+000305999GD11991+0003059GE19AGL   +99999+99999GF102995999999000301999999MA1102305086755REMMET09101/08/18 01:44:02 METAR KPVU 080844Z 00000KT 1 1/2SM FEW001 M04/M06 A3021 RMK AO2 VIS 3/4V3EQDD01      0ADE726
0195725724241742018010808567+40219-111723FM-15+1371KPVU V0209999C000052200059N0064375N5-00445-00505102485ADDGA1005+999999999GD10991+9999999GF100991999999999999999999MA1102305086755MD1590089+9999REMMET09701/08/18 01:56:02 METAR KPVU 080856Z 00000KT 4SM CLR M04/M05 A3021 RMK AO2 SLP248 T10441050 55008
0175725724241742018010809567+40219-111723FM-15+1371KPVU V0202805N002152200059N0080475N5-00445-00565102485ADDGA1005+999999999GD10991+9999999GF100991999999999999999999MA1102305086755REMMET09101/08/18 02:56:02 METAR KPVU 080956Z 28004KT 5SM CLR M04/M06 A3021 RMK AO2 SLP248 T10441056
0175725724241742018010810567+40219-111723FM-15+1371KPVU V0209999C000052200059N0064375N5-00445-00505102435ADDGA1005+999999999GD10991+9999999GF100991999999999999999999MA1102275086725REMMET09101/08/18 03:56:02 METAR KPVU 081056Z 00000KT 4SM CLR M04/M05 A3020 RMK AO2 SLP243 T10441050
0233725724241742018010811567+40219-111723FM-15+1371KPVU V0203205N001552200059N0112655N5-00335-00395102365ADDGA1005+999999999GD10991+9999999GF100991999999999999999999KA1060M-00281KA2060N-00501MA1102175086635MD1890129+9999REMMET10901/08/18 04:56:02 METAR KPVU 081156Z 32003KT 7SM CLR M03/M04 A3017 RMK AO2 SLP236 T10331039 11028 21050 58012
0176725724241742018010812567+40219-111723FM-15+1371KPVU V0201105N002652200059N0160935N5-00335-00445102325ADDGA1005+999999999GD10991+9999999GF100991999999999999999999MA1102135086605REMMET09201/08/18 05:56:02 METAR KPVU 081256Z 11005KT 10SM CLR M03/M04 A3016 RMK AO2 SLP232 T10331044
0239725724241742018010813567+40219-111723FM-15+1371KPVU V0209999C00005060965MN0160935N5-00335-00445102315ADDGA1045+036585999GA2075+060965999GD12991+0365859GD23991+0609659GE19MSL   +99999+99999GF199999999999036581999999MA1102035086515REMMET10201/08/18 06:56:02 METAR KPVU 081356Z 00000KT 10SM SCT120 BKN200 M03/M04 A3013 RMK AO2 SLP231 T10331044
0259725724241742018010814567+40219-111723FM-15+1371KPVU V0209999V00215060965MN0160935N5-00335-00395102355ADDGA1045+036585999GA2075+060965999GD12991+0365859GD23991+0609659GE19MSL   +99999+99999GF199999999999036581999999MA1102075086545MD1590109+9999REMMET10801/08/18 07:56:02 METAR KPVU 081456Z VRB04KT 10SM SCT120 BKN200 M03/M04 A3014 RMK AO2 SLP235 T10331039 55010
0239725724241742018010815567+40219-111723FM-15+1371KPVU V0209999C00005036585MN0160935N5-00285-00335102335ADDGA1075+036585999GA2075+060965999GD13991+0365859GD23991+0609659GE19MSL   +99999+99999GF199999999999036581999999MA1102075086545REMMET10201/08/18 08:56:02 METAR KPVU 081556Z 00000KT 10SM BKN120 BKN200 M03/M03 A3014 RMK AO2 SLP233 T10281033
0201725724241742018010816567+40219-111723FM-15+1371KPVU V0209999V00155036585MN0160935N5-00065-00115102325ADDGA1075+036585999GD13991+0365859GE19MSL   +99999+99999GF199999999999036581999999MA1102105086575REMMET09501/08/18 09:56:02 METAR KPVU 081656Z VRB03KT 10SM BKN120 M01/M01 A3015 RMK AO2 SLP232 T10061011
0258725724241742018010817567+40219-111723FM-15+1371KPVU V0203505N00155045725MN0160935N5+00005-00065102285ADDGA1075+045725999GD13991+0457259GE19MSL   +99999+99999GF199999999999045721999999KA1060M+00001KA2060N-00391MA1102035086515MD1890029+9999REMMET11201/08/18 10:56:02 METAR KPVU 081756Z 35003KT 10SM BKN150 00/M01 A3013 RMK AO2 SLP228 T00001006 10000 21039 58002
0237725724241742018010818567+40219-111723FM-15+1371KPVU V0202605N00155073155MN0160935N5+00175+00005102185ADDGA1045+045725999GA2075+073155999GD12991+0457259GD23991+0731559GE19MSL   +99999+99999GF199999999999045721999999MA1101965086455REMMET10001/08/18 11:56:02 METAR KPVU 081856Z 26003KT 10SM SCT150 BKN240 02/00 A3011 RMK AO2 SLP218 T00170000
0237725724241742018010819567+40219-111723FM-15+1371KPVU V0202405N00155060965MN0160935N5+00445+00005102025ADDGA1045+030485999GA2075+060965999GD12991+0304859GD23991+0609659GE19MSL   +99999+99999GF199999999999030481999999MA1101865086365REMMET10001/08/18 12:56:02 METAR KPVU 081956Z 24003KT 10SM SCT100 BKN200 04/00 A3008 RMK AO2 SLP202 T00440000
0239725724241742018010820567+40219-111723FM-15+1371KPVU V0200905N002652200059N0160935N5+00725-00115101905ADDGA1045+033535999GD12991+0335359GE19AGL   +99999+99999GF104995999999033531999999MA1101795086305MD1890229+9999REMMET10001/08/18 13:56:02 METAR KPVU 082056Z 09005KT 10SM SCT110 07/M01 A3006 RMK AO2 SLP190 T00721011 58022EQDD01      0ADE726
0200725724241742018010821567+40219-111723FM-15+1371KPVU V0209999C00005024385MN0160935N5+00505-00115101905ADDGA1085+024385999GD14991+0243859GE19MSL   +99999+99999GF199999999999024381999999MA1101765086285REMMET09401/08/18 14:56:02 METAR KPVU 082156Z 00000KT 10SM OVC080 05/M01 A3005 RMK AO2 SLP190 T00501011
0200725724241742018010822567+40219-111723FM-15+1371KPVU V0209999C00005030485MN0160935N5+00395-00175101945ADDGA1085+030485999GD14991+0304859GE19MSL   +99999+99999GF199999999999030481999999MA1101765086285REMMET09401/08/18 15:56:02 METAR KPVU 082256Z 00000KT 10SM OVC100 04/M02 A3005 RMK AO2 SLP194 T00391017
0258725724241742018010823567+40219-111723FM-15+1371KPVU V0209999C00005024385MN0160935N5+00335-00115102035ADDGA1085+024385999GD14991+0243859GE19MSL   +99999+99999GF199999999999024381999999KA1060M+00781KA2060N+00061MA1101865086365MD1390069+9999REMMET11201/08/18 16:56:02 METAR KPVU 082356Z 00000KT 10SM OVC080 03/M01 A3008 RMK AO2 SLP203 T00331011 10078 20006 53006
0199725724241742018010900567+40219-111723FM-15+1371KPVU V0209999V00155019815MN0160935N5+00615+00115101995ADDGA1085+019815999GD14991+0198159GE19MSL   +99999+99999GF199999999999019811999999MA1101865086365REMMET09301/08/18 17:56:01 METAR KPVU 090056Z VRB03KT 10SM OVC065 06/01 A3008 RMK AO2 SLP199 T00610011
0254725724241742018010901567+40219-111723FM-15+1371KPVU V0201005N00415014335MN0160935N5+00565+00115101955ADDAA101000395GA1045+011285999GA2085+014335999GD12991+0112859GD24991+0143359GE19MSL   +99999+99999GF199999999999011281999999MA1101795086305REMMET10601/08/18 18:56:01 METAR KPVU 090156Z 10008KT 10SM SCT037 OVC047 06/01 A3006 RMK AO2 SLP195 P0001 T00560011
0255725724241742018010902567+40219-111723FM-15+1371KPVU V0201205N00265015245MN0160935N5+00505+00175101895ADDAA103000391GA1085+015245999GD14991+0152459GE19MSL   +99999+99999GF199999999999015241999999MA1101765086285MD1890089+9999REMMET10501/08/18 19:56:02 METAR KPVU 090256Z 12005KT 10SM OVC050 05/02 A3005 RMK AO2 SLP189 60001 T00500017 58008EQDQ01  00028PRCP03
0199725724241742018010903567+40219-111723FM-15+1371KPVU V0203605N00315014635MN0160935N5+00395+00175101895ADDGA1085+014635999GD14991+0146359GE19MSL   +99999+99999GF199999999999014631999999MA1101735086255REMMET09301/08/18 20:56:02 METAR KPVU 090356Z 36006KT 10SM OVC048 04/02 A3004 RMK AO2 SLP189 T00390017
0199725724241742018010904567+40219-111723FM-15+1371KPVU V0201305N00215014335MN0160935N5+00395+00175101845ADDGA1085+014335999GD14991+0143359GE19MSL   +99999+99999GF199999999999014331999999MA1101735086255REMMET09301/08/18 21:56:02 METAR KPVU 090456Z 13004KT 10SM OVC047 04/02 A3004 RMK AO2 SLP184 T00390017
0310725724241742018010905567+40219-111723FM-15+1371KPVU V0201205N00265012505MN0160935N5+00395+00225101825ADDAA101000395AA206000591GA1085+012505999GD14991+0125059GE19MSL   +99999+99999GF199999999999012501999999KA1060M+00671KA2060N+00331MA1101735086255MD1590039+9999REMMET12301/08/18 22:56:02 METAR KPVU 090556Z 12005KT 10SM OVC041 04/02 A3004 RMK AO2 SLP182 P0001 60002 T00390022 10067 20033 55003EQDQ01  00058PRCP06
0252725724241742018010906567+40219-111723FM-15+1371KPVU V0201205N00575010675MN0160935N5+00445+00225101745ADDAA101000395GA1085+010675999GD14991+0106759GE19MSL   +99999+99999GF199999999999010671999999KA1240M+00781KA2240N-00501MA1101695086225REMMET10901/08/18 23:56:02 METAR KPVU 090656Z 12011KT 10SM OVC035 04/02 A3003 RMK AO2 SLP174 P0001 T00440022 400781050
0199725724241742018010907567+40219-111723FM-15+1371KPVU V0201605N00265010675MN0160935N5+00395+00285101655ADDGA1085+010675999GD14991+0106759GE19MSL   +99999+99999GF199999999999010671999999MA1101635086165REMMET09301/09/18 00:56:02 METAR KPVU 090756Z 16005KT 10SM OVC035 04/03 A3001 RMK AO2 SLP165 T00390028
0310725724241742018010908567+40219-111723FM-15+1371KPVU V0201305N00365010975MN0160935N5+00445+00175101575ADDAA101000595AA203000891GA1075+010975999GA2085+013115999GD13991+0109759GD24991+0131159GE19MSL   +99999+99999GF199999999999010971999999MA1101635086165MD1690109+9999REMMET11801/09/18 01:56:02 METAR KPVU 090856Z 13007KT 10SM BKN036 OVC043 04/02 A3001 RMK AO2 SLP157 P0002 60003 T00440017 56010EQDQ01  00078PRCP03
0275725724241742018010909567+40219-111723FM-15+1371KPVU V0201205N00415009755MN0160935N5+00445+00225101605ADDGA1075+009755999GA2075+011585999GA3085+014025999GD13991+0097559GD23991+0115859GD34991+0140259GE19MSL   +99999+99999GF199999999999009751999999MA1101595086135REMMET10701/09/18 02:56:02 METAR KPVU 090956Z 12008KT 10SM BKN032 BKN038 OVC046 04/02 A3000 RMK AO2 SLP160 T00440022
0182725724241742018010910277+40219-111723FM-15+1371KPVU V0201405N00465008535MN0160935N5+00405+00205999999ADDGA1085+008535999GD14991+0085359GE19MSL   +99999+99999GF199999999999008531999999MA1101565086105REMMET07601/09/18 03:27:02 METAR KPVU 091027Z 14009KT 10SM OVC028 04/02 A2999 RMK AO2
0237725724241742018010910567+40219-111723FM-15+1371KPVU V0201305N00155007925MN0160935N5+00395+00175101545ADDGA1075+007925999GA2085+013115999GD13991+0079259GD24991+0131159GE19MSL   +99999+99999GF199999999999007921999999MA1101495086045REMMET10001/09/18 03:56:02 METAR KPVU 091056Z 13003KT 10SM BKN026 OVC043 04/02 A2997 RMK AO2 SLP154 T00390017
0220725724241742018010911047+40219-111723FM-15+1371KPVU V0201605N00215013115MN0160935N5+00405+00205999999ADDGA1045+007925999GA2085+013115999GD12991+0079259GD24991+0131159GE19MSL   +99999+99999GF199999999999007921999999MA1101495086045REMMET08301/09/18 04:04:02 METAR KPVU 091104Z 16004KT 10SM SCT026 OVC043 04/02 A2997 RMK AO2
0199725724241742018010912567+40219-111723FM-15+1371KPVU V0200405N00155016765MN0160935N5+00335+00175101375ADDGA1085+016765999GD14991+0167659GE19MSL   +99999+99999GF199999999999016761999999MA1101395085955REMMET09301/09/18 05:56:02 METAR KPVU 091256Z 04003KT 10SM OVC055 03/02 A2994 RMK AO2 SLP137 T00330017
0199725724241742018010913567+40219-111723FM-15+1371KPVU V0209999C00005016765MN0160935N5+00395+00285101285ADDGA1085+016765999GD14991+0167659GE19MSL   +99999+99999GF199999999999016761999999MA1101295085865REMMET09301/09/18 06:56:02 METAR KPVU 091356Z 00000KT 10SM OVC055 04/03 A2991 RMK AO2 SLP128 T00390028
0219725724241742018010914567+40219-111723FM-15+1371KPVU V0203605N00215018295MN0160935N5+00445+00225101255ADDGA1085+018295999GD14991+0182959GE19MSL   +99999+99999GF199999999999018291999999MA1101255085835MD1890119+9999REMMET09901/09/18 07:56:02 METAR KPVU 091456Z 36004KT 10SM OVC060 04/02 A2990 RMK AO2 SLP125 T00440022 58011
0237725724241742018010915567+40219-111723FM-15+1371KPVU V0201805N00725015245MN0160935N5+00505+00285101325ADDGA1075+015245999GA2085+019815999GD13991+0152459GD24991+0198159GE19MSL   +99999+99999GF199999999999015241999999MA1101325085895REMMET10001/09/18 08:56:02 METAR KPVU 091556Z 18014KT 10SM BKN050 OVC065 05/03 A2992 RMK AO2 SLP132 T00500028
0292725724241742018010916567+40219-111723FM-15+1371KPVU V0201205N00315016765MN0160935N5+00565+00225101335ADDAA101000395GA1045+013725999GA2075+016765999GA3085+024385999GD12991+0137259GD23991+0167659GD34991+0243859GE19MSL   +99999+99999GF199999999999013721999999MA1101355085925REMMET11301/09/18 09:56:02 METAR KPVU 091656Z 12006KT 10SM SCT045 BKN055 OVC080 06/02 A2993 RMK AO2 SLP133 P0001 T00560022
0331725724241742018010917567+40219-111723FM-15+1371KPVU V0201605N00825022865MN0160935N5+00615+00285101275ADDAA106000391GA1045+013725999GA2085+022865999GD12991+0137259GD24991+0228659GE19MSL   +99999+99999GF199999999999013721999999KA1060M+00611KA2060N+00281MA1101295085865MD1090019+9999REMMET12401/09/18 10:56:02 METAR KPVU 091756Z 16016KT 10SM SCT045 OVC075 06/03 A2991 RMK AO2 SLP127 60001 T00610028 10061 20028 50001EQDQ01  00028PRCP06
0237725724241742018010918567+40219-111723FM-15+1371KPVU V0201205N00465013725MN0160935N5+00675+00335101135ADDGA1075+013725999GA2085+015245999GD13991+0137259GD24991+0152459GE19MSL   +99999+99999GF199999999999013721999999MA1101155085745REMMET10001/09/18 11:56:02 METAR KPVU 091856Z 12009KT 10SM BKN045 OVC050 07/03 A2987 RMK AO2 SLP113 T00670033
0291725724241742018010919567+40219-111723FM-15+1371KPVU V0201405N00775010675MN0128755N5+00615+00395101095ADDAA101000395GA1045+007925999GA2075+010675999GA3085+014635999GD12991+0079259GD23991+0106759GD34991+0146359GE19MSL   +99999+99999GF199999999999007921999999MA1101125085715REMMET11201/09/18 12:56:02 METAR KPVU 091956Z 14015KT 8SM SCT026 BKN035 OVC048 06/04 A2986 RMK AO2 SLP109 P0001 T00610039
0258725724241742018010920067+40219-111723FM-15+1371KPVU V0201305N00725007925MN0160935N5+00605+00305999999ADDGA1075+007925999GA2075+010675999GA3085+014635999GD13991+0079259GD23991+0106759GD34991+0146359GE19MSL   +99999+99999GF199999999999007921999999MA1101085085685REMMET09001/09/18 13:06:02 METAR KPVU 092006Z 13014KT 10SM BKN026 BKN035 OVC048 06/03 A2985 RMK AO2
0258725724241742018010920277+40219-111723FM-15+1371KPVU V0201405N00675010675MN0160935N5+00605+00405999999ADDGA1045+007925999GA2075+010675999GA3085+016765999GD12991+0079259GD23991+0106759GD34991+0167659GE19MSL   +99999+99999GF199999999999007921999999MA1101055085655REMMET09001/09/18 13:27:02 METAR KPVU 092027Z 14013KT 10SM SCT026 BKN035 OVC055 06/04 A2984 RMK AO2
0293725724241742018010920567+40219-111723FM-15+1371KPVU V0201505N00515015245MN0160935N5+00675+00395100965ADDAA103000391GA1025+008235999GA2085+015245999GD11991+0082359GD24991+0152459GE19MSL   +99999+99999GF199999999999008231999999MA1101025085625MD1790259+9999REMMET11201/09/18 13:56:02 METAR KPVU 092056Z 15010KT 10SM FEW027 OVC050 07/04 A2983 RMK AO2 SLP096 60001 T00670039 57025EQDQ01  00028PRCP03
0199725724241742018010921567+40219-111723FM-15+1371KPVU V0201605N00415012195MN0160935N5+00675+00335100895ADDGA1085+012195999GD14991+0121959GE19MSL   +99999+99999GF199999999999012191999999MA1100955085565REMMET09301/09/18 14:56:02 METAR KPVU 092156Z 16008KT 10SM OVC040 07/03 A2981 RMK AO2 SLP089 T00670033
0275725724241742018010922567+40219-111723FM-15+1371KPVU V0201005N00215014025MN0160935N5+00725+00335100835ADDGA1025+011285999GA2075+014025999GA3085+016765999GD11991+0112859GD23991+0140259GD34991+0167659GE19MSL   +99999+99999GF199999999999011281999999MA1100885085515REMMET10701/09/18 15:56:02 METAR KPVU 092256Z 10004KT 10SM FEW037 BKN046 OVC055 07/03 A2979 RMK AO2 SLP083 T00720033
0293725724241742018010923567+40219-111723FM-15+1371KPVU V0200705N00155011285MN0160935N5+00675+00335100855ADDAA106000391GA1085+011285999GD14991+0112859GE19MSL   +99999+99999GF199999999999011281999999KA1060M+00781KA2060N+00611MA1100885085515MD1590109+9999REMMET11701/09/18 16:56:02 METAR KPVU 092356Z 07003KT 10SM OVC037 07/03 A2979 RMK AO2 SLP085 60001 T00670033 10078 20061 55010EQDQ01  00028PRCP06
0216725724241742018011000567+40219-111723FM-15+1371KPVU V0201905N00265011285MN0160935N5+00565+00395100865ADDAA101000395GA1085+011285999GD14991+0112859GE19MSL   +99999+99999GF199999999999011281999999MA1100885085515REMMET09901/09/18 17:56:01 METAR KPVU 100056Z 19005KT 10SM OVC037 06/04 A2979 RMK AO2 SLP086 P0001 T00560039
0254725724241742018011001567+40219-111723FM-15+1371KPVU V0201205N00215012805MN0160935N5+00505+00395100805ADDAA101000895GA1025+010365999GA2085+012805999GD11991+0103659GD24991+0128059GE19MSL   +99999+99999GF199999999999010361999999MA1100815085455REMMET10601/09/18 18:56:01 METAR KPVU 100156Z 12004KT 10SM FEW034 OVC042 05/04 A2977 RMK AO2 SLP080 P0003 T00500039
0272725724241742018011002567+40219-111723FM-15+1371KPVU V0209999C00005013415MN0160935N5+00445+00335100785ADDAA101000395AA203001391GA1085+013415999GD14991+0134159GE19MSL   +99999+99999GF199999999999013411999999MA1100785085425MD1890079+9999REMMET11101/09/18 19:56:02 METAR KPVU 100256Z 00000KT 10SM OVC044 04/03 A2976 RMK AO2 SLP078 P0001 60005 T00440033 58007EQDQ01  00128PRCP03
0199725724241742018011003567+40219-111723FM-15+1371KPVU V0200405N00415013115MN0160935N5+00395+00335100775ADDGA1085+013115999GD14991+0131159GE19MSL   +99999+99999GF199999999999013111999999MA1100785085425REMMET09301/09/18 20:56:02 METAR KPVU 100356Z 04008KT 10SM OVC043 04/03 A2976 RMK AO2 SLP077 T00390033
0199725724241742018011004567+40219-111723FM-15+1371KPVU V0209999C00005013415MN0160935N5+00335+00285100775ADDGA1085+013415999GD14991+0134159GE19MSL   +99999+99999GF199999999999013411999999MA1100785085425REMMET09301/09/18 21:56:02 METAR KPVU 100456Z 00000KT 10SM OVC044 03/03 A2976 RMK AO2 SLP077 T00330028
