0201725724241742019010100567+40219-111723FM-15+1371KPVU V0201405N003152200059N0160935N5-00725-01005101945ADDAA101000021GA1005+999999999GD10991+9999999GF100991999999999999999999MA1101565086105REMMET10612/31/18 17:56:01 METAR KPVU 010056Z 14006KT 10SM CLR M07/M10 A2999 RMK AO2 SNE2359 SLP194 P0000 T10721100
0201725724241742019010101567+40219-111723FM-15+1371KPVU V0201105N00315018295MN0160935N5-00675-00835101975ADDGA1075+018295999GD13991+0182959GE19MSL   +99999+99999GF199999999999018291999999MA1101595086135REMMET09512/31/18 18:56:01 METAR KPVU 010156Z 11006KT 10SM BKN060 M07/M08 A3000 RMK AO2 SLP197 T10671083
0337725724241742019010102567+40219-111723FM-15+1371KPVU V0200505N00215018295MN0160935N5-00675-01005102055ADDAA101000021AA203000021GA1025+012505999GA2075+018295999GD11991+0125059GD23991+0182959GE19MSL   +99999+99999GF199999999999012501999999MA1101665086195MD1190159+9999REMMET12912/31/18 19:56:01 METAR KPVU 010256Z 05004KT 10SM FEW041 BKN060 M07/M10 A3002 RMK AO2 SNB13E24 SLP205 P0000 60000 T10671100 51015EQDQ01  00002PRCP03Q02  00008PRCP03
0199725724241742019010103564+40219-111723FM-15+137199999V0203301N002112200059N016093199-00671-01561102121ADDGD11991+0198119GE19AGL   +99999+99999GF102995999999019811999999MA1101731999999REMMET090METAR KPVU 010356Z AUTO 33004KT 10SM FEW065 M07/M16 A3004 RMK AO2 SLP212 T10671156 FZRANO=EQDD01      0ADE726
0183725724241742019010104567+40219-111723FM-15+1371KPVU V0203305N003152200059N0160935N5-00785-01505102165ADDGA1005+999999999GD10991+9999999GF100991999999999999999999MA1101765086285REMMET09912/31/18 21:56:02 METAR KPVU 010456Z 33006KT 10SM CLR M08/M15 A3005 RMK AO2 SLP216 T10781150 FZRANO
0293725724241742019010105567+40219-111723FM-15+1371KPVU V0200905N002152200059N0160935N5-00945-01565102205ADDAA106000021GA1005+999999999GD10991+9999999GF100991999999999999999999KA1060M-00391KA2060N-00941MA1101765086285MD1190119+9999REMMET12312/31/18 22:56:02 METAR KPVU 010556Z 09004KT 10SM CLR M09/M16 A3005 RMK AO2 SLP220 60000 T10941156 11039 21094 51011 FZRANOEQDQ01  00002PRCP06Q02  00008PRCP06
0219725724241742019010106567+40219-111723FM-15+1371KPVU V0200405N003652200059N0160935N5-01065-01615102265ADDGA1005+999999999GD10991+9999999GF100991999999999999999999KA1240M-00111KA2240N-01061MA1101835086335REMMET10912/31/18 23:56:02 METAR KPVU 010656Z 04007KT 10SM CLR M11/M16 A3007 RMK AO2 SLP226 T11061161 410111106 FZRANO
0183725724241742019010107567+40219-111723FM-15+1371KPVU V0203605N005752200059N0160935N5-00895-01725102325ADDGA1005+999999999GD10991+9999999GF100991999999999999999999MA1101905086395REMMET09901/01/19 00:56:02 METAR KPVU 010756Z 36011KT 10SM CLR M09/M17 A3009 RMK AO2 SLP232 T10891172 FZRANO
0203725724241742019010108567+40219-111723FM-15+1371KPVU V0200305N003652200059N0160935N5-01005-01785102365ADDGA1005+999999999GD10991+9999999GF100991999999999999999999MA1101965086455MD1190169+9999REMMET10501/01/19 01:56:02 METAR KPVU 010856Z 03007KT 10SM CLR M10/M18 A3011 RMK AO2 SLP236 T11001178 51016 FZRANO
0183725724241742019010109567+40219-111723FM-15+1371KPVU V0201805N002652200059N0160935N5-01285-01895102465ADDGA1005+999999999GD10991+9999999GF100991999999999999999999MA1102005086485REMMET09901/01/19 02:56:02 METAR KPVU 010956Z 18005KT 10SM CLR M13/M19 A3012 RMK AO2 SLP246 T11281189 FZRANO
0183725724241742019010110567+40219-111723FM-15+1371KPVU V0202705N003152200059N0160935N5-01115-01725102435ADDGA1005+999999999GD10991+9999999GF100991999999999999999999MA1102005086485REMMET09901/01/19 03:56:02 METAR KPVU 011056Z 27006KT 10SM CLR M11/M17 A3012 RMK AO2 SLP243 T11111172 FZRANO
0241725724241742019010111567+40219-111723FM-15+1371KPVU V0202605N002152200059N0160935N5-01335-01835102525ADDGA1005+999999999GD10991+9999999GF100991999999999999999999KA1060M-00891KA2060N-01331MA1102035086515MD1190069+9999REMMET11701/01/19 04:56:02 METAR KPVU 011156Z 26004KT 10SM CLR M13/M18 A3013 RMK AO2 SLP252 T11331183 11089 21133 51006 FZRANO
0183725724241742019010112567+40219-111723FM-15+1371KPVU V0200105N002152200059N0160935N5-01285-01835102655ADDGA1005+999999999GD10991+9999999GF100991999999999999999999MA1102105086575REMMET09901/01/19 05:56:02 METAR KPVU 011256Z 01004KT 10SM CLR M13/M18 A3015 RMK AO2 SLP265 T11281183 FZRANO
0183725724241742019010113567+40219-111723FM-15+1371KPVU V0201505N002652200059N0160935N5-01445-01945102815ADDGA1005+999999999GD10991+9999999GF100991999999999999999999MA1102205086665REMMET09901/01/19 06:56:02 METAR KPVU 011356Z 15005KT 10SM CLR M14/M19 A3018 RMK AO2 SLP281 T11441194 FZRANO
0196725724241742019010114567+40219-111723FM-15+1371KPVU V0201605N002652200059N0160935N5-01615-02065102965ADDGA1005+999999999GD10991+9999999GF100991999999999999999999MA1102345086785MD1390279+9999REMMET09801/01/19 07:56:02 METAR KPVU 011456Z 16005KT 10SM CLR M16/M21 A3022 RMK AO2 SLP296 T11611206 53027
0176725724241742019010115567+40219-111723FM-15+1371KPVU V0201205N002152200059N0160935N5-01225-01675103035ADDGA1005+999999999GD10991+9999999GF100991999999999999999999MA1102475086905REMMET09201/01/19 08:56:02 METAR KPVU 011556Z 12004KT 10SM CLR M12/M17 A3026 RMK AO2 SLP303 T11221167
0176725724241742019010116567+40219-111723FM-15+1371KPVU V0201405N002652200059N0160935N5-00895-01615103055ADDGA1005+999999999GD10991+9999999GF100991999999999999999999MA1102545086965REMMET09201/01/19 09:56:02 METAR KPVU 011656Z 14005KT 10SM CLR M09/M16 A3028 RMK AO2 SLP305 T10891161
0234725724241742019010117567+40219-111723FM-15+1371KPVU V0201305N003652200059N0160935N5-00785-01675103015ADDGA1005+999999999GD10991+9999999GF100991999999999999999999KA1060M-00781KA2060N-01611MA1102515086935MD1090149+9999REMMET11001/01/19 10:56:02 METAR KPVU 011756Z 13007KT 10SM CLR M08/M17 A3027 RMK AO2 SLP301 T10781167 11078 21161 50014
0176725724241742019010118567+40219-111723FM-15+1371KPVU V0201505N002652200059N0160935N5-00615-01615102985ADDGA1005+999999999GD10991+9999999GF100991999999999999999999MA1102475086905REMMET09201/01/19 11:56:02 METAR KPVU 011856Z 15005KT 10SM CLR M06/M16 A3026 RMK AO2 SLP298 T10611161
0176725724241742019010119567+40219-111723FM-15+1371KPVU V0209999V001552200059N0160935N5-00675-01505102945ADDGA1005+999999999GD10991+9999999GF100991999999999999999999MA1102445086875REMMET09201/01/19 12:56:02 METAR KPVU 011956Z VRB03KT 10SM CLR M07/M15 A3025 RMK AO2 SLP294 T10671150
0196725724241742019010120567+40219-111723FM-15+1371KPVU V0202505N002652200059N0160935N5-00565-01505102895ADDGA1005+999999999GD10991+9999999GF100991999999999999999999MA1102405086845MD1890089+9999REMMET09801/01/19 13:56:02 METAR KPVU 012056Z 25005KT 10SM CLR M06/M15 A3024 RMK AO2 SLP289 T10561150 58008
0258725724241742019010121567+40219-111723FM-15+1371KPVU V0202505N002652200059N0160935N5-00615-01445102995ADDGA1025+015245999GA2025+060965999GD11991+0152459GD21991+0609659GE19AGL   +99999+99999GF102995999999015241999999MA1102445086875REMMET10201/01/19 14:56:02 METAR KPVU 012156Z 25005KT 10SM FEW050 FEW200 M06/M14 A3025 RMK AO2 SLP299 T10611144EQDD01      0ADE726
0258725724241742019010122567+40219-111723FM-15+1371KPVU V0202105N002152200059N0160935N5-00505-01395102985ADDGA1025+015245999GA2025+060965999GD11991+0152459GD21991+0609659GE19AGL   +99999+99999GF102995999999015241999999MA1102475086905REMMET10201/01/19 15:56:02 METAR KPVU 012256Z 21004KT 10SM FEW050 FEW200 M05/M14 A3026 RMK AO2 SLP298 T10501139EQDD01      0ADE726
0234725724241742019010123567+40219-111723FM-15+1371KPVU V0201705N002152200059N0160935N5-00725-01615103075ADDGA1005+999999999GD10991+9999999GF100991999999999999999999KA1060M-00501KA2060N-00781MA1102475086905MD1190079+9999REMMET11001/01/19 16:56:02 METAR KPVU 012356Z 17004KT 10SM CLR M07/M16 A3026 RMK AO2 SLP307 T10721161 11050 21078 51007
0176725724241742019010200567+40219-111723FM-15+1371KPVU V0201705N001552200059N0160935N5-01115-01785103215ADDGA1005+999999999GD10991+9999999GF100991999999999999999999MA1102545086965REMMET09201/01/19 17:56:01 METAR KPVU 020056Z 17003KT 10SM CLR M11/M18 A3028 RMK AO2 SLP321 T11111178
0176725724241742019010201567+40219-111723FM-15+1371KPVU V0201605N002652200059N0160935N5-01285-01785103325ADDGA1005+999999999GD10991+9999999GF100991999999999999999999MA1102615087025REMMET09201/01/19 18:56:01 METAR KPVU 020156Z 16005KT 10SM CLR M13/M18 A3030 RMK AO2 SLP332 T11281178
0196725724241742019010202567+40219-111723FM-15+1371KPVU V0201505N002152200059N0160935N5-01335-01725103415ADDGA1005+999999999GD10991+9999999GF100991999999999999999999MA1102645087055MD1190139+9999REMMET09801/01/19 19:56:02 METAR KPVU 020256Z 15004KT 10SM CLR M13/M17 A3031 RMK AO2 SLP341 T11331172 51013
0176725724241742019010203567+40219-111723FM-15+1371KPVU V0201305N001552200059N0160935N5-01335-01675103355ADDGA1005+999999999GD10991+9999999GF100991999999999999999999MA1102645087055REMMET09201/01/19 20:56:02 METAR KPVU 020356Z 13003KT 10SM CLR M13/M17 A3031 RMK AO2 SLP335 T11331167
0183725724241742019010204567+40219-111723FM-15+1371KPVU V0201405N002152200059N0160935N5-01505-01835103315ADDGA1005+999999999GD10991+9999999GF100991999999999999999999MA1102645087055REMMET09901/01/19 21:56:02 METAR KPVU 020456Z 14004KT 10SM CLR M15/M18 A3031 RMK AO2 SLP331 T11501183 FZRANO
0241725724241742019010205567+40219-111723FM-15+1371KPVU V0209999C000052200059N0160935N5-01505-01785103315ADDGA1005+999999999GD10991+9999999GF100991999999999999999999KA1060M-00721KA2060N-01501MA1102685087085MD1390049+9999REMMET11701/01/19 22:56:02 METAR KPVU 020556Z 00000KT 10SM CLR M15/M18 A3032 RMK AO2 SLP331 T11501178 11072 21150 53004 FZRANO
0219725724241742019010206567+40219-111723FM-15+1371KPVU V0201705N003152200059N0160935N5-01565-01895103315ADDGA1005+999999999GD10991+9999999GF100991999999999999999999KA1240M-00501KA2240N-01611MA1102715087105REMMET10901/01/19 23:56:02 METAR KPVU 020656Z 17006KT 10SM CLR M16/M19 A3033 RMK AO2 SLP331 T11561189 410501161 FZRANO
0183725724241742019010207567+40219-111723FM-15+1371KPVU V0201505N002652200059N0160935N5-01395-01725103335ADDGA1005+999999999GD10991+9999999GF100991999999999999999999MA1102745087135REMMET09901/02/19 00:56:02 METAR KPVU 020756Z 15005KT 10SM CLR M14/M17 A3034 RMK AO2 SLP333 T11391172 FZRANO
0203725724241742019010208567+40219-111723FM-15+1371KPVU V0201605N002652200059N0160935N5-01505-01835103355ADDGA1005+999999999GD10991+9999999GF100991999999999999999999MA1102745087135MD1290079+9999REMMET10501/02/19 01:56:02 METAR KPVU 020856Z 16005KT 10SM CLR M15/M18 A3034 RMK AO2 SLP335 T11501183 52007 FZRANO
0183725724241742019010209567+40219-111723FM-15+1371KPVU V0201405N002652200059N0160935N5-01565-01835103395ADDGA1005+999999999GD10991+9999999GF100991999999999999999999MA1102785087165REMMET09901/02/19 02:56:02 METAR KPVU 020956Z 14005KT 10SM CLR M16/M18 A3035 RMK AO2 SLP339 T11561183 FZRANO
0183725724241742019010210567+40219-111723FM-15+1371KPVU V0201705N002152200059N0160935N5-01565-01895103355ADDGA1005+999999999GD10991+9999999GF100991999999999999999999MA1102745087135REMMET09901/02/19 03:56:02 METAR KPVU 021056Z 17004KT 10SM CLR M16/M19 A3034 RMK AO2 SLP335 T11561189 FZRANO
0241725724241742019010211567+40219-111723FM-15+1371KPVU V0200805N001552200059N0160935N5-01615-01945103405ADDGA1005+999999999GD10991+9999999GF100991999999999999999999KA1060M-01391KA2060N-01671MA1102745087135MD1890019+9999REMMET11701/02/19 04:56:02 METAR KPVU 021156Z 08003KT 10SM CLR M16/M19 A3034 RMK AO2 SLP340 T11611194 11139 21167 58001 FZRANO
0183725724241742019010212567+40219-111723FM-15+1371KPVU V0201705N002652200059N0160935N5-01675-02065103545ADDGA1005+999999999GD10991+9999999GF100991999999999999999999MA1102785087165REMMET09901/02/19 05:56:02 METAR KPVU 021256Z 17005KT 10SM CLR M17/M21 A3035 RMK AO2 SLP354 T11671206 FZRANO
0183725724241742019010213567+40219-111723FM-15+1371KPVU V0209999C000052200059N0160935N5-01615-01945103675ADDGA1005+999999999GD10991+9999999GF100991999999999999999999MA1102885087255REMMET09901/02/19 06:56:02 METAR KPVU 021356Z 00000KT 10SM CLR M16/M19 A3038 RMK AO2 SLP367 T11611194 FZRANO
0196725724241742019010214567+40219-111723FM-15+1371KPVU V0201505N003152200059N0160935N5-01615-01945103715ADDGA1005+999999999GD10991+9999999GF100991999999999999999999MA1102915087285MD1190169+9999REMMET09801/02/19 07:56:02 METAR KPVU 021456Z 15006KT 10SM CLR M16/M19 A3039 RMK AO2 SLP371 T11611194 51016
0220725724241742019010215567+40219-111723FM-15+1371KPVU V0201405N004152200059N0160935N5-01335-01725103695ADDGA1045+060965999GD12991+0609659GE19AGL   +99999+99999GF104995999999060961999999MA1102955087315REMMET09501/02/19 08:56:02 METAR KPVU 021556Z 14008KT 10SM SCT200 M13/M17 A3040 RMK AO2 SLP369 T11331172EQDD01      0ADE726
0176725724241742019010216567+40219-111723FM-15+1371KPVU V0201805N002152200059N0160935N5-01005-01565103705ADDGA1005+999999999GD10991+9999999GF100991999999999999999999MA1103015087375REMMET09201/02/19 09:56:02 METAR KPVU 021656Z 18004KT 10SM CLR M10/M16 A3042 RMK AO2 SLP370 T11001156
0278725724241742019010217567+40219-111723FM-15+1371KPVU V0201605N001552200059N0160935N5-00785-01505103615ADDGA1045+060965999GD12991+0609659GE19AGL   +99999+99999GF104995999999060961999999KA1060M-00781KA2060N-01671MA1102955087315MD1090039+9999REMMET11301/02/19 10:56:02 METAR KPVU 021756Z 16003KT 10SM SCT200 M08/M15 A3040 RMK AO2 SLP361 T10781150 11078 21167 50003EQDD01      0ADE726
0201725724241742019010218567+40219-111723FM-15+1371KPVU V0201305N00265060965MN0160935N5-00675-01565103545ADDGA1075+060965999GD13991+0609659GE19MSL   +99999+99999GF199999999999060961999999MA1102885087255REMMET09501/02/19 11:56:02 METAR KPVU 021856Z 13005KT 10SM BKN200 M07/M16 A3038 RMK AO2 SLP354 T10671156
0201725724241742019010219567+40219-111723FM-15+1371KPVU V0202005N00155060965MN0160935N5-00615-01335103445ADDGA1075+060965999GD13991+0609659GE19MSL   +99999+99999GF199999999999060961999999MA1102845087225REMMET09501/02/19 12:56:02 METAR KPVU 021956Z 20003KT 10SM BKN200 M06/M13 A3037 RMK AO2 SLP344 T10611133
0240725724241742019010220567+40219-111723FM-15+1371KPVU V0209999V002152200059N0160935N5-00675-01395103425ADDGA1045+060965999GD12991+0609659GE19AGL   +99999+99999GF104995999999060961999999MA1102815087195MD1690149+9999REMMET10101/02/19 13:56:02 METAR KPVU 022056Z VRB04KT 10SM SCT200 M07/M14 A3036 RMK AO2 SLP342 T10671139 56014EQDD01      0ADE726
0220725724241742019010221567+40219-111723FM-15+1371KPVU V0202305N002152200059N0160935N5-00615-01335103405ADDGA1045+060965999GD12991+0609659GE19AGL   +99999+99999GF104995999999060961999999MA1102785087165REMMET09501/02/19 14:56:02 METAR KPVU 022156Z 23004KT 10SM SCT200 M06/M13 A3035 RMK AO2 SLP340 T10611133EQDD01      0ADE726
0220725724241742019010222567+40219-111723FM-15+1371KPVU V0202205N002152200059N0160935N5-00675-01285103435ADDGA1025+060965999GD11991+0609659GE19AGL   +99999+99999GF102995999999060961999999MA1102785087165REMMET09501/02/19 15:56:02 METAR KPVU 022256Z 22004KT 10SM FEW200 M07/M13 A3035 RMK AO2 SLP343 T10671128EQDD01      0ADE726
0234725724241742019010223567+40219-111723FM-15+1371KPVU V0201905N001552200059N0160935N5-00725-01395103485ADDGA1005+999999999GD10991+9999999GF100991999999999999999999KA1060M-00561KA2060N-00831MA1102815087195MD1390019+9999REMMET11001/02/19 16:56:02 METAR KPVU 022356Z 19003KT 10SM CLR M07/M14 A3036 RMK AO2 SLP348 T10721139 11056 21083 53001
0176725724241742019010300567+40219-111723FM-15+1371KPVU V0201605N001552200059N0160935N5-01065-01565103615ADDGA1005+999999999GD10991+9999999GF100991999999999999999999MA1102885087255REMMET09201/02/19 17:56:01 METAR KPVU 030056Z 16003KT 10SM CLR M11/M16 A3038 RMK AO2 SLP361 T11061156
0176725724241742019010301567+40219-111723FM-15+1371KPVU V0201405N001552200059N0160935N5-01175-01675103675ADDGA1005+999999999GD10991+9999999GF100991999999999999999999MA1102915087285REMMET09201/02/19 18:56:01 METAR KPVU 030156Z 14003KT 10SM CLR M12/M17 A3039 RMK AO2 SLP367 T11171167
0196725724241742019010302567+40219-111723FM-15+1371KPVU V0201505N001552200059N0160935N5-01175-01565103705ADDGA1005+999999999GD10991+9999999GF100991999999999999999999MA1102955087315MD1190109+9999REMMET09801/02/19 19:56:02 METAR KPVU 030256Z 15003KT 10SM CLR M12/M16 A3040 RMK AO2 SLP370 T11171156 51010
0176725724241742019010303567+40219-111723FM-15+1371KPVU V0201705N002152200059N0160935N5-01285-01615103665ADDGA1005+999999999GD10991+9999999GF100991999999999999999999MA1102955087315REMMET09201/02/19 20:56:02 METAR KPVU 030356Z 17004KT 10SM CLR M13/M16 A3040 RMK AO2 SLP366 T11281161
0183725724241742019010304567+40219-111723FM-15+1371KPVU V0201405N001552200059N0160935N5-01285-01565103585ADDGA1005+999999999GD10991+9999999GF100991999999999999999999MA1102955087315REMMET09901/02/19 21:56:02 METAR KPVU 030456Z 14003KT 10SM CLR M13/M16 A3040 RMK AO2 SLP358 T11281156 FZRANO
0241725724241742019010305567+40219-111723FM-15+1371KPVU V0202005N001552200059N0160935N5-01285-01565103515ADDGA1005+999999999GD10991+9999999GF100991999999999999999999KA1060M-00721KA2060N-01331MA1102915087285MD1890029+9999REMMET11701/02/19 22:56:02 METAR KPVU 030556Z 20003KT 10SM CLR M13/M16 A3039 RMK AO2 SLP351 T11281156 11072 21133 58002 FZRANO
0219725724241742019010306567+40219-111723FM-15+1371KPVU V0201705N001552200059N0160935N5-01395-01675103555ADDGA1005+999999999GD10991+9999999GF100991999999999999999999KA1240M-00561KA2240N-01671MA1102955087315REMMET10901/02/19 23:56:02 METAR KPVU 030656Z 17003KT 10SM CLR M14/M17 A3040 RMK AO2 SLP355 T11391167 410561167 FZRANO
0183725724241742019010307567+40219-111723FM-15+1371KPVU V0201705N001552200059N0160935N5-01335-01615103555ADDGA1005+999999999GD10991+9999999GF100991999999999999999999MA1102985087345REMMET09901/03/19 00:56:02 METAR KPVU 030756Z 17003KT 10SM CLR M13/M16 A3041 RMK AO2 SLP355 T11331161 FZRANO
0203725724241742019010308567+40219-111723FM-15+1371KPVU V0209999C000052200059N0160935N5-01395-01725103595ADDGA1005+999999999GD10991+9999999GF100991999999999999999999MA1102985087345MD1190069+9999REMMET10501/03/19 01:56:02 METAR KPVU 030856Z 00000KT 10SM CLR M14/M17 A3041 RMK AO2 SLP359 T11391172 51006 FZRANO
0183725724241742019010309567+40219-111723FM-15+1371KPVU V0209999C000052200059N0160935N5-01395-01615103625ADDGA1005+999999999GD10991+9999999GF100991999999999999999999MA1103015087375REMMET09901/03/19 02:56:02 METAR KPVU 030956Z 00000KT 10SM CLR M14/M16 A3042 RMK AO2 SLP362 T11391161 FZRANO
0183725724241742019010310567+40219-111723FM-15+1371KPVU V0201105N001552200059N0160935N5-01395-01615103565ADDGA1005+999999999GD10991+9999999GF100991999999999999999999MA1102955087315REMMET09901/03/19 03:56:02 METAR KPVU 031056Z 11003KT 10SM CLR M14/M16 A3040 RMK AO2 SLP356 T11391161 FZRANO
0241725724241742019010311567+40219-111723FM-15+1371KPVU V0209999C000052200059N0160935N5-01395-01675103535ADDGA1005+999999999GD10991+9999999GF100991999999999999999999KA1060M-01281KA2060N-01441MA1102915087285MD1890069+9999REMMET11701/03/19 04:56:02 METAR KPVU 031156Z 00000KT 10SM CLR M14/M17 A3039 RMK AO2 SLP353 T11391167 11128 21144 58006 FZRANO
0183725724241742019010312567+40219-111723FM-15+1371KPVU V0201005N001552200059N0160935N5-01395-01615103645ADDGA1005+999999999GD10991+9999999GF100991999999999999999999MA1102955087315REMMET09901/03/19 05:56:02 METAR KPVU 031256Z 10003KT 10SM CLR M14/M16 A3040 RMK AO2 SLP364 T11391161 FZRANO
0176725724241742019010313567+40219-111723FM-15+1371KPVU V0201205N002652200059N0160935N5-01335-01565103655ADDGA1005+999999999GD10991+9999999GF100991999999999999999999MA1102955087315REMMET09201/03/19 06:56:02 METAR KPVU 031356Z 12005KT 10SM CLR M13/M16 A3040 RMK AO2 SLP365 T11331156
0196725724241742019010314567+40219-111723FM-15+1371KPVU V0209999C000052200059N0160935N5-01445-01675103715ADDGA1005+999999999GD10991+9999999GF100991999999999999999999MA1102985087345MD1190079+9999REMMET09801/03/19 07:56:02 METAR KPVU 031456Z 00000KT 10SM CLR M14/M17 A3041 RMK AO2 SLP371 T11441167 51007
0176725724241742019010315567+40219-111723FM-15+1371KPVU V0201105N001552200059N0160935N5-01005-01225103705ADDGA1005+999999999GD10991+9999999GF100991999999999999999999MA1103055087405REMMET09201/03/19 08:56:02 METAR KPVU 031556Z 11003KT 10SM CLR M10/M12 A3043 RMK AO2 SLP370 T11001122
0176725724241742019010316567+40219-111723FM-15+1371KPVU V0201405N003152200059N0160935N5-00725-01225103675ADDGA1005+999999999GD10991+9999999GF100991999999999999999999MA1103055087405REMMET09201/03/19 09:56:02 METAR KPVU 031656Z 14006KT 10SM CLR M07/M12 A3043 RMK AO2 SLP367 T10721122
0278725724241742019010317567+40219-111723FM-15+1371KPVU V0209999C000052200059N0160935N5-00395-01065103535ADDGA1025+060965999GD11991+0609659GE19AGL   +99999+99999GF102995999999060961999999KA1060M-00391KA2060N-01441MA1102985087345MD1090009+9999REMMET11301/03/19 10:56:02 METAR KPVU 031756Z 00000KT 10SM FEW200 M04/M11 A3041 RMK AO2 SLP353 T10391106 11039 21144 50000EQDD01      0ADE726
0220725724241742019010318567+40219-111723FM-15+1371KPVU V0202105N002652200059N0160935N5-00445-01175103405ADDGA1025+060965999GD11991+0609659GE19AGL   +99999+99999GF102995999999060961999999MA1102845087225REMMET09501/03/19 11:56:02 METAR KPVU 031856Z 21005KT 10SM FEW200 M04/M12 A3037 RMK AO2 SLP340 T10441117EQDD01      0ADE726
0176725724241742019010319567+40219-111723FM-15+1371KPVU V0202405N002152200059N0160935N5-00565-01115103305ADDGA1005+999999999GD10991+9999999GF100991999999999999999999MA1102745087135REMMET09201/03/19 12:56:02 METAR KPVU 031956Z 24004KT 10SM CLR M06/M11 A3034 RMK AO2 SLP330 T10561111
0240725724241742019010320567+40219-111723FM-15+1371KPVU V0202305N002652200059N0160935N5-00505-01115103295ADDGA1025+060965999GD11991+0609659GE19AGL   +99999+99999GF102995999999060961999999MA1102715087105MD1690249+9999REMMET10101/03/19 13:56:02 METAR KPVU 032056Z 23005KT 10SM FEW200 M05/M11 A3033 RMK AO2 SLP329 T10501111 56024EQDD01      0ADE726
0176725724241742019010321567+40219-111723FM-15+1371KPVU V0202405N001552200059N0160935N5-00395-01115103265ADDGA1005+999999999GD10991+9999999GF100991999999999999999999MA1102715087105REMMET09201/03/19 14:56:02 METAR KPVU 032156Z 24003KT 10SM CLR M04/M11 A3033 RMK AO2 SLP326 T10391111
0176725724241742019010322567+40219-111723FM-15+1371KPVU V0202405N002152200059N0160935N5-00395-01115103215ADDGA1005+999999999GD10991+9999999GF100991999999999999999999MA1102685087085REMMET09201/03/19 15:56:02 METAR KPVU 032256Z 24004KT 10SM CLR M04/M11 A3032 RMK AO2 SLP321 T10391111
0234725724241742019010323567+40219-111723FM-15+1371KPVU V0202405N001552200059N0160935N5-00505-01065103225ADDGA1005+999999999GD10991+9999999GF100991999999999999999999KA1060M-00331KA2060N-00671MA1102645087055MD1890069+9999REMMET11001/03/19 16:56:02 METAR KPVU 032356Z 24003KT 10SM CLR M05/M11 A3031 RMK AO2 SLP322 T10501106 11033 21067 58006
0176725724241742019010400567+40219-111723FM-15+1371KPVU V0202005N001552200059N0160935N5-00785-01395103285ADDGA1005+999999999GD10991+9999999GF100991999999999999999999MA1102685087085REMMET09201/03/19 17:56:01 METAR KPVU 040056Z 20003KT 10SM CLR M08/M14 A3032 RMK AO2 SLP328 T10781139
0176725724241742019010401567+40219-111723FM-15+1371KPVU V0209999C000052200059N0160935N5-00895-01335103295ADDGA1005+999999999GD10991+9999999GF100991999999999999999999MA1102645087055REMMET09201/03/19 18:56:01 METAR KPVU 040156Z 00000KT 10SM CLR M09/M13 A3031 RMK AO2 SLP329 T10891133
0196725724241742019010402567+40219-111723FM-15+1371KPVU V0209999C000052200059N0160935N5-01005-01395103355ADDGA1005+999999999GD10991+9999999GF100991999999999999999999MA1102685087085MD1390029+9999REMMET09801/03/19 19:56:02 METAR KPVU 040256Z 00000KT 10SM CLR M10/M14 A3032 RMK AO2 SLP335 T11001139 53002
0183725724241742019010403567+40219-111723FM-15+1371KPVU V0201605N002152200059N0160935N5-01005-01445103245ADDGA1005+999999999GD10991+9999999GF100991999999999999999999MA1102645087055REMMET09901/03/19 20:56:02 METAR KPVU 040356Z 16004KT 10SM CLR M10/M14 A3031 RMK AO2 SLP324 T11001144 FZRANO
0183725724241742019010404567+40219-111723FM-15+1371KPVU V0209999C000052200059N0160935N5-01065-01225103205ADDGA1005+999999999GD10991+9999999GF100991999999999999999999MA1102645087055REMMET09901/03/19 21:56:02 METAR KPVU 040456Z 00000KT 10SM CLR M11/M12 A3031 RMK AO2 SLP320 T11061122 FZRANO
0241725724241742019010405567+40219-111723FM-15+1371KPVU V0201705N001552200059N0160935N5-01065-01395103105ADDGA1005+999999999GD10991+9999999GF100991999999999999999999KA1060M-00501KA2060N-01061MA1102615087025MD1890049+9999REMMET11701/03/19 22:56:02 METAR KPVU 040556Z 17003KT 10SM CLR M11/M14 A3030 RMK AO2 SLP310 T11061139 11050 21106 58004 FZRANO
0176725724241742019010406564+40219-111723FM-15+137199999V0209999C000012200019N016093199-01221-01501103091ADDGF100991999999999999999999KA1240M-00331KA2240N-01441MA1102571999999REMMET097METAR KPVU 040656Z AUTO 00000KT 10SM CLR M12/M15 A3029 RMK AO2 SLP309 T11221150 410331144 FZRANO=
0183725724241742019010407567+40219-111723FM-15+1371KPVU V0201305N002652200059N0160935N5-01175-01395103075ADDGA1005+999999999GD10991+9999999GF100991999999999999999999MA1102545086965REMMET09901/04/19 00:56:02 METAR KPVU 040756Z 13005KT 10SM CLR M12/M14 A3028 RMK AO2 SLP307 T11171139 FZRANO
0203725724241742019010408567+40219-111723FM-15+1371KPVU V0209999C000052200059N0160935N5-01175-01445103045ADDGA1005+999999999GD10991+9999999GF100991999999999999999999MA1102515086935MD1690089+9999REMMET10501/04/19 01:56:02 METAR KPVU 040856Z 00000KT 10SM CLR M12/M14 A3027 RMK AO2 SLP304 T11171144 56008 FZRANO
0183725724241742019010409567+40219-111723FM-15+1371KPVU V0201605N001552200059N0160935N5-01225-01445102995ADDGA1005+999999999GD10991+9999999GF100991999999999999999999MA1102515086935REMMET09901/04/19 02:56:02 METAR KPVU 040956Z 16003KT 10SM CLR M12/M14 A3027 RMK AO2 SLP299 T11221144 FZRANO
0183725724241742019010410567+40219-111723FM-15+1371KPVU V0209999C000052200059N0160935N5-01225-01505102945ADDGA1005+999999999GD10991+9999999GF100991999999999999999999MA1102445086875REMMET09901/04/19 03:56:02 METAR KPVU 041056Z 00000KT 10SM CLR M12/M15 A3025 RMK AO2 SLP294 T11221150 FZRANO
0241725724241742019010411567+40219-111723FM-15+1371KPVU V0201605N001552200059N0160935N5-01225-01445102925ADDGA1005+999999999GD10991+9999999GF100991999999999999999999KA1060M-01061KA2060N-01221MA1102405086845MD1890109+9999REMMET11701/04/19 04:56:02 METAR KPVU 041156Z 16003KT 10SM CLR M12/M14 A3024 RMK AO2 SLP292 T11221144 11106 21122 58010 FZRANO
0183725724241742019010412567+40219-111723FM-15+1371KPVU V0209999C000052200059N0160935N5-01225-01445102955ADDGA1005+999999999GD10991+9999999GF100991999999999999999999MA1102375086815REMMET09901/04/19 05:56:02 METAR KPVU 041256Z 00000KT 10SM CLR M12/M14 A3023 RMK AO2 SLP295 T11221144 FZRANO
0183725724241742019010413567+40219-111723FM-15+1371KPVU V0201005N002652200059N0160935N5-01225-01445103005ADDGA1005+999999999GD10991+9999999GF100991999999999999999999MA1102405086845REMMET09901/04/19 06:56:02 METAR KPVU 041356Z 10005KT 10SM CLR M12/M14 A3024 RMK AO2 SLP300 T11221144 FZRANO
0239725724241742019010414567+40219-111723FM-15+1371KPVU V0201605N002152200059N0144845N5-01285-01505103035ADDGA1045+060965999GD12991+0609659GE19AGL   +99999+99999GF104995999999060961999999MA1102405086845MD1590009+9999REMMET10001/04/19 07:56:02 METAR KPVU 041456Z 16004KT 9SM SCT200 M13/M15 A3024 RMK AO2 SLP303 T11281150 55000EQDD01      0ADE726
0219725724241742019010415567+40219-111723FM-15+1371KPVU V0209999C000052200059N0144845N5-00835-01005102985ADDGA1025+060965999GD11991+0609659GE19AGL   +99999+99999GF102995999999060961999999MA1102445086875REMMET09401/04/19 08:56:02 METAR KPVU 041556Z 00000KT 9SM FEW200 M08/M10 A3025 RMK AO2 SLP298 T10831100EQDD01      0ADE726
0258725724241742019010416567+40219-111723FM-15+1371KPVU V0209999C000052200059N0160935N5-00335-00835102905ADDGA1025+036585999GA2025+060965999GD11991+0365859GD21991+0609659GE19AGL   +99999+99999GF102995999999036581999999MA1102445086875REMMET10201/04/19 09:56:02 METAR KPVU 041656Z 00000KT 10SM FEW120 FEW200 M03/M08 A3025 RMK AO2 SLP290 T10331083EQDD01      0ADE726
0316725724241742019010417567+40219-111723FM-15+1371KPVU V0209999V002152200059N0160935N5-00445-00895102865ADDGA1025+036585999GA2045+060965999GD11991+0365859GD22991+0609659GE19AGL   +99999+99999GF104995999999036581999999KA1060M-00171KA2060N-01281MA1102375086815MD1890019+9999REMMET12001/04/19 10:56:02 METAR KPVU 041756Z VRB04KT 10SM FEW120 SCT200 M04/M09 A3023 RMK AO2 SLP286 T10441089 11017 21128 58001EQDD01      0ADE726
0258725724241742019010418567+40219-111723FM-15+1371KPVU V0209999C000052200059N0160935N5-00285-00835102705ADDGA1025+036585999GA2045+060965999GD11991+0365859GD22991+0609659GE19AGL   +99999+99999GF104995999999036581999999MA1102245086695REMMET10201/04/19 11:56:02 METAR KPVU 041856Z 00000KT 10SM FEW120 SCT200 M03/M08 A3019 RMK AO2 SLP270 T10281083EQDD01      0ADE726
0258725724241742019010419567+40219-111723FM-15+1371KPVU V0202505N003152200059N0160935N5-00335-00895102565ADDGA1025+036585999GA2045+060965999GD11991+0365859GD22991+0609659GE19AGL   +99999+99999GF104995999999036581999999MA1102105086575REMMET10201/04/19 12:56:02 METAR KPVU 041956Z 25006KT 10SM FEW120 SCT200 M03/M09 A3015 RMK AO2 SLP256 T10331089EQDD01      0ADE726
0278725724241742019010420567+40219-111723FM-15+1371KPVU V0202405N002152200059N0160935N5-00175-00895102475ADDGA1025+036585999GA2045+060965999GD11991+0365859GD22991+0609659GE19AGL   +99999+99999GF104995999999036581999999MA1102035086515MD1690319+9999REMMET10801/04/19 13:56:02 METAR KPVU 042056Z 24004KT 10SM FEW120 SCT200 M02/M09 A3013 RMK AO2 SLP247 T10171089 56031EQDD01      0ADE726
0258725724241742019010421567+40219-111723FM-15+1371KPVU V0202705N003152200059N0160935N5-00225-00785102455ADDGA1025+036585999GA2045+060965999GD11991+0365859GD22991+0609659GE19AGL   +99999+99999GF104995999999036581999999MA1102005086485REMMET10201/04/19 14:56:02 METAR KPVU 042156Z 27006KT 10SM FEW120 SCT200 M02/M08 A3012 RMK AO2 SLP245 T10221078EQDD01      0ADE726
0257725724241742019010422567+40219-111723FM-15+1371KPVU V0201705N002152200059N0160935N5+00065-00725102345ADDGA1025+036585999GA2045+060965999GD11991+0365859GD22991+0609659GE19AGL   +99999+99999GF104995999999036581999999MA1101965086455REMMET10101/04/19 15:56:02 METAR KPVU 042256Z 17004KT 10SM FEW120 SCT200 01/M07 A3011 RMK AO2 SLP234 T00061072EQDD01      0ADE726
0316725724241742019010423567+40219-111723FM-15+1371KPVU V0202505N002152200059N0160935N5-00335-00835102375ADDGA1025+036585999GA2045+060965999GD11991+0365859GD22991+0609659GE19AGL   +99999+99999GF104995999999036581999999KA1060M+00061KA2060N-00441MA1101905086395MD1890129+9999REMMET12001/04/19 16:56:02 METAR KPVU 042356Z 25004KT 10SM FEW120 SCT200 M03/M08 A3009 RMK AO2 SLP237 T10331083 10006 21044 58012EQDD01      0ADE726
0220725724241742019010500567+40219-111723FM-15+1371KPVU V0209999C000052200059N0160935N5-00565-00895102445ADDGA1045+060965999GD12991+0609659GE19AGL   +99999+99999GF104995999999060961999999MA1101935086425REMMET09501/04/19 17:56:01 METAR KPVU 050056Z 00000KT 10SM SCT200 M06/M09 A3010 RMK AO2 SLP244 T10561089EQDD01      0ADE726
0175725724241742019010501567+40219-111723FM-15+1371KPVU V0209999C000052200059N0144845N5-00615-00835102495ADDGA1005+999999999GD10991+9999999GF100991999999999999999999MA1101965086455REMMET09101/04/19 18:56:01 METAR KPVU 050156Z 00000KT 9SM CLR M06/M08 A3011 RMK AO2 SLP249 T10611083
0195725724241742019010502567+40219-111723FM-15+1371KPVU V0209999C000052200059N0144845N5-00725-00895102585ADDGA1005+999999999GD10991+9999999GF100991999999999999999999MA1102005086485MD1390109+9999REMMET09701/04/19 19:56:02 METAR KPVU 050256Z 00000KT 9SM CLR M07/M09 A3012 RMK AO2 SLP258 T10721089 53010
0182725724241742019010503567+40219-111723FM-15+1371KPVU V0202105N002152200059N0144845N5-00835-01115102475ADDGA1005+999999999GD10991+9999999GF100991999999999999999999MA1101965086455REMMET09801/04/19 20:56:02 METAR KPVU 050356Z 21004KT 9SM CLR M08/M11 A3011 RMK AO2 SLP247 T10831111 FZRANO
0182725724241742019010504567+40219-111723FM-15+1371KPVU V0209999C000052200059N0128755N5-00895-01175102365ADDGA1005+999999999GD10991+9999999GF100991999999999999999999MA1101965086455REMMET09801/04/19 21:56:02 METAR KPVU 050456Z 00000KT 8SM CLR M09/M12 A3011 RMK AO2 SLP236 T10891117 FZRANO
0266725724241742019010505567+40219-111723FM-15+1371KPVU V0209999C000052200059N0096565N5-00895-01175102355ADDAU100007015AW1051GA1005+999999999GD10991+9999999GF100991999999999999999999KA1060M-00331KA2060N-00891MA1101935086425MD1690089+9999MW1055REMMET11901/04/19 22:56:02 METAR KPVU 050556Z 00000KT 6SM HZ CLR M09/M12 A3010 RMK AO2 SLP235 T10891117 11033 21089 56008 FZRANO
0238725724241742019010506567+40219-111723FM-15+1371KPVU V0201105N001552200059N0080475N5-01005-01225102325ADDAU100001015AW1105GA1005+999999999GD10991+9999999GF100991999999999999999999KA1240M+00061KA2240N-01281MA1101905086395REMMET11101/04/19 23:56:02 METAR KPVU 050656Z 11003KT 5SM BR CLR M10/M12 A3009 RMK AO2 SLP232 T11001122 400061128 FZRANO
002772572424174201901050659O+40219-111723SOD  +1371KPVU V020999999999999999999999999999+99999+99999999999ADDAT1AU13BR  5AT2AU08HZ  5
0202725724241742019010507567+40219-111723FM-15+1371KPVU V0209999C000052200059N0096565N5-01005-01225102385ADDAU100001015AW1105GA1005+999999999GD10991+9999999GF100991999999999999999999MA1101965086455REMMET10101/05/19 00:56:02 METAR KPVU 050756Z 00000KT 6SM BR CLR M10/M12 A3011 RMK AO2 SLP238 T11001122 FZRANO
0202725724241742019010508567+40219-111723FM-15+1371KPVU V0202805N001552200059N0112655N5-01005-01225102295ADDGA1005+999999999GD10991+9999999GF100991999999999999999999MA1101905086395MD1890029+9999REMMET10401/05/19 01:56:02 METAR KPVU 050856Z 28003KT 7SM CLR M10/M12 A3009 RMK AO2 SLP229 T11001122 58002 FZRANO
0202725724241742019010509567+40219-111723FM-15+1371KPVU V0209999C000052200059N0096565N5-01115-01335102295ADDAU100001015AW1105GA1005+999999999GD10991+9999999GF100991999999999999999999MA1101865086365REMMET10101/05/19 02:56:02 METAR KPVU 050956Z 00000KT 6SM BR CLR M11/M13 A3008 RMK AO2 SLP229 T11111133 FZRANO
0202725724241742019010510567+40219-111723FM-15+1371KPVU V0209999C000052200059N0096565N5-01115-01335102215ADDAU100001015AW1105GA1005+999999999GD10991+9999999GF100991999999999999999999MA1101865086365REMMET10101/05/19 03:56:02 METAR KPVU 051056Z 00000KT 6SM BR CLR M11/M13 A3008 RMK AO2 SLP221 T11111133 FZRANO
0260725724241742019010511567+40219-111723FM-15+1371KPVU V0203305N001552200059N0048285N5-01115-01225102255ADDAU100001015AW1105GA1005+999999999GD10991+9999999GF100991999999999999999999KA1060M-00891KA2060N-01171MA1101795086305MD1890099+9999REMMET11901/05/19 04:56:02 METAR KPVU 051156Z 33003KT 3SM BR CLR M11/M12 A3006 RMK AO2 SLP225 T11111122 11089 21117 58009 FZRANO
0202725724241742019010512567+40219-111723FM-15+1371KPVU V0209999C000052200059N0080475N5-01115-01285102315ADDAU100001015AW1105GA1005+999999999GD10991+9999999GF100991999999999999999999MA1101835086335REMMET10101/05/19 05:56:02 METAR KPVU 051256Z 00000KT 5SM BR CLR M11/M13 A3007 RMK AO2 SLP231 T11111128 FZRANO
0219725724241742019010513567+40219-111723FM-15+1371KPVU V0203605N001552200059N0128755N5-01005-01115102235ADDGA1045+060965999GD12991+0609659GE19AGL   +99999+99999GF104995999999060961999999MA1101765086285REMMET09401/05/19 06:56:02 METAR KPVU 051356Z 36003KT 8SM SCT200 M10/M11 A3005 RMK AO2 SLP223 T11001111EQDD01      0ADE726
0259725724241742019010514567+40219-111723FM-15+1371KPVU V0200305N00155060965MN0160935N5-00785-00895102215ADDGA1045+045725999GA2075+060965999GD12991+0457259GD23991+0609659GE19MSL   +99999+99999GF199999999999045721999999MA1101765086285MD1890039+9999REMMET10801/05/19 07:56:02 METAR KPVU 051456Z 03003KT 10SM SCT150 BKN200 M08/M09 A3005 RMK AO2 SLP221 T10781089 58003
0239725724241742019010515567+40219-111723FM-15+1371KPVU V0203005N00155060965MN0160935N5-00615-00725102195ADDGA1045+045725999GA2075+060965999GD12991+0457259GD23991+0609659GE19MSL   +99999+99999GF199999999999045721999999MA1101765086285REMMET10201/05/19 08:56:02 METAR KPVU 051556Z 30003KT 10SM SCT150 BKN200 M06/M07 A3005 RMK AO2 SLP219 T10611072
0238725724241742019010516567+40219-111723FM-15+1371KPVU V0202805N00155054865MN0112655N5-00445-00675102205ADDGA1045+036585999GA2085+054865999GD12991+0365859GD24991+0548659GE19MSL   +99999+99999GF199999999999036581999999MA1101765086285REMMET10101/05/19 09:56:02 METAR KPVU 051656Z 28003KT 7SM SCT120 OVC180 M04/M07 A3005 RMK AO2 SLP220 T10441067
0322725724241742019010517567+40219-111723FM-15+1371KPVU V0202405N00215054865MN0096565N5-00285-00565102145ADDAU100007015AW1051GA1045+036585999GA2085+054865999GD12991+0365859GD24991+0548659GE19MSL   +99999+99999GF199999999999036581999999KA1060M-00281KA2060N-01111MA1101765086285MD1890019+9999MW1055REMMET12201/05/19 10:56:02 METAR KPVU 051756Z 24004KT 6SM HZ SCT120 OVC180 M03/M06 A3005 RMK AO2 SLP214 T10281056 11028 21111 58001
0238725724241742019010518567+40219-111723FM-15+1371KPVU V0202805N00155054865MN0128755N5-00175-00505101995ADDGA1045+036585999GA2085+054865999GD12991+0365859GD24991+0548659GE19MSL   +99999+99999GF199999999999036581999999MA1101635086165REMMET10101/05/19 11:56:02 METAR KPVU 051856Z 28003KT 8SM SCT120 OVC180 M02/M05 A3001 RMK AO2 SLP199 T10171050
0200725724241742019010519567+40219-111723FM-15+1371KPVU V0200305N00215054865MN0160935N5+00005-00505101905ADDGA1085+054865999GD14991+0548659GE19MSL   +99999+99999GF199999999999054861999999MA1101565086105REMMET09401/05/19 12:56:02 METAR KPVU 051956Z 03004KT 10SM OVC180 00/M05 A2999 RMK AO2 SLP190 T00001050
0133725724241742019010520564+40219-111723FM-15+137199999V0202701N003112200019N012875199-00171-00441101811ADDGF100991999999999999999999MA1101421999999REMMET080METAR KPVU 052056Z 27006KT 8SM CLR M02/M04 A2995 RMK AO2 SLP181 T10171044 56028=
0220725724241742019010520587+40219-111723FM-15+1371KPVU V0202705N00315054865MN0128755N5-00175-00445101815ADDGA1085+054865999GD14991+0548659GE19MSL   +99999+99999GF199999999999054861999999MA1101425085985MD1690289+9999REMMET10001/05/19 13:58:02 METAR KPVU 052058Z 27006KT 8SM OVC180 M02/M04 A2995 RMK AO2 SLP181 T10171044 56028
0200725724241742019010521567+40219-111723FM-15+1371KPVU V0202305N00215054865MN0160935N5+00005-00445101775ADDGA1085+054865999GD14991+0548659GE19MSL   +99999+99999GF199999999999054861999999MA1101395085955REMMET09401/05/19 14:56:02 METAR KPVU 052156Z 23004KT 10SM OVC180 00/M04 A2994 RMK AO2 SLP177 T00001044
0200725724241742019010522567+40219-111723FM-15+1371KPVU V0203105N00155033535MN0144845N5-00065-00395101735ADDGA1085+033535999GD14991+0335359GE19MSL   +99999+99999GF199999999999033531999999MA1101355085925REMMET09401/05/19 15:56:02 METAR KPVU 052256Z 31003KT 9SM OVC110 M01/M04 A2993 RMK AO2 SLP173 T10061039
0278725724241742019010523567+40219-111723FM-15+1371KPVU V0209999C000052200059N0160935N5-00065-00395101705ADDGA1025+036585999GD11991+0365859GE19AGL   +99999+99999GF102995999999036581999999KA1060M+00111KA2060N-00331MA1101325085895MD1690099+9999REMMET11301/05/19 16:56:02 METAR KPVU 052356Z 00000KT 10SM FEW120 M01/M04 A2992 RMK AO2 SLP170 T10061039 10011 21033 56009EQDD01      0ADE726
0219725724241742019010600567+40219-111723FM-15+1371KPVU V0209999C000052200059N0144845N5-00115-00395101795ADDGA1045+036585999GD12991+0365859GE19AGL   +99999+99999GF104995999999036581999999MA1101395085955REMMET09401/05/19 17:56:01 METAR KPVU 060056Z 00000KT 9SM SCT120 M01/M04 A2994 RMK AO2 SLP179 T10111039EQDD01      0ADE726
0211725724241742019010601567+40219-111723FM-15+1371KPVU V0202605N00885033535MN0160935N5+00115-00395101535ADDGA1075+033535999GD13991+0335359GE19MSL   +99999+99999GF199999999999033531999999MA1101225085805OC101085REMMET09701/05/19 18:56:01 METAR KPVU 060156Z 26017G21KT 10SM BKN110 01/M04 A2989 RMK AO2 SLP153 T00111039
0220725724241742019010602567+40219-111723FM-15+1371KPVU V0209999V00155030485MN0160935N5+00065-00445101575ADDGA1075+030485999GD13991+0304859GE19MSL   +99999+99999GF199999999999030481999999MA1101295085865MD1590049+9999REMMET10001/05/19 19:56:02 METAR KPVU 060256Z VRB03KT 10SM BKN100 01/M04 A2991 RMK AO2 SLP157 T00061044 55004
0207725724241742019010603567+40219-111723FM-15+1371KPVU V0209999C00005030485MN0160935N5+00065-00445101525ADDGA1085+030485999GD14991+0304859GE19MSL   +99999+99999GF199999999999030481999999MA1101255085835REMMET10101/05/19 20:56:02 METAR KPVU 060356Z 00000KT 10SM OVC100 01/M04 A2990 RMK AO2 SLP152 T00061044 FZRANO
0245725724241742019010604567+40219-111723FM-15+1371KPVU V0202005N00265028965MN0160935N5+00065-00445101525ADDGA1075+028965999GA2085+036585999GD13991+0289659GD24991+0365859GE19MSL   +99999+99999GF199999999999028961999999MA1101295085865REMMET10801/05/19 21:56:02 METAR KPVU 060456Z 20005KT 10SM BKN095 OVC120 01/M04 A2991 RMK AO2 SLP152 T00061044 FZRANO
0265725724241742019010605567+40219-111723FM-15+1371KPVU V0201805N00215018295MN0160935N5+00175-00395101485ADDGA1085+018295999GD14991+0182959GE19MSL   +99999+99999GF199999999999018291999999KA1060M+00331KA2060N-00111MA1101295085865MD1390019+9999REMMET11901/05/19 22:56:02 METAR KPVU 060556Z 18004KT 10SM OVC060 02/M04 A2991 RMK AO2 SLP148 T00171039 10033 21011 53001 FZRANO
0286725724241742019010606567+40219-111723FM-15+1371KPVU V0200905N00215010365MN0160935N5+00335-00065101315ADDAA101000021AU110020015AW1615GA1085+010365999GD14991+0103659GE19MSL   +99999+99999GF199999999999010361999999KA1240M+00331KA2240N-01171MA1101195085775MW1615REMMET12001/05/19 23:56:02 METAR KPVU 060656Z 09004KT 10SM -RA OVC034 03/M01 A2988 RMK AO2 RAB09 SLP131 P0000 T00331006 400331117
003972572424174201901060659O+40219-111723SOD  +1371KPVU V020999999999999999999999999999+99999+99999999999ADDAT1AU16RA  5AT2AU13BR  5AT3AU08HZ  5
0297725724241742019010607567+40219-111723FM-15+1371KPVU V0201305N00265008535MN0160935N5+00175+00005101275ADDAA101000395AU110020015AW1615GA1075+008535999GA2085+010975999GD13991+0085359GD24991+0109759GE19MSL   +99999+99999GF199999999999008531999999MA1101155085745MW1615REMMET12601/06/19 00:56:02 METAR KPVU 060756Z 13005KT 10SM -RA BKN028 OVC036 02/00 A2987 RMK AO2 UPB17E26 SLP127 P0001 T00170000 FZRANO
0354725724241742019010608567+40219-111723FM-15+1371KPVU V0201305N00365004575MN0160935N5+00115+00005101315ADDAA101000595AA203000891AU120090015AW1401AW2415GA1075+004575999GA2085+006105999GD13991+0045759GD24991+0061059GE19MSL   +99999+99999GF199999999999004571999999MA1101155085745MD1590139+9999REMMET13901/06/19 01:56:02 METAR KPVU 060856Z 13007KT 10SM UP BKN015 OVC020 01/00 A2987 RMK AO2 RAE54UPB54 SLP131 P0002 60003 T00110000 55013 FZRANOEQDQ01  00078PRCP03
0325725724241742019010609567+40219-111723FM-15+1371KPVU V0201305N00365003965MN0096565N5+00065+00005101285ADDAA101001095AU120090015AU200001015AW1105AW2401AW3415GA1075+003965999GA2085+005795999GD13991+0039659GD24991+0057959GE19MSL   +99999+99999GF199999999999003961999999MA1101155085745REMMET13701/06/19 02:56:02 METAR KPVU 060956Z 13007KT 6SM UP BR BKN013 OVC019 01/00 A2987 RMK AO2 RAB0859E24SNB24E35 SLP128 P0004 T00060000 FZRANO
0352725724241742019010610237+40219-111723FM-15+1371KPVU V0201305N00315002745MN0064375N5+00005-00105999999ADDAA101000395AU110030015AU200001015AW1105AW2715GA1075+002745999GA2075+004275999GA3085+007625999GD13991+0027451GD23991+0042759GD34991+0076259GE19MSL   +99999+99999GF199999999999002741999999MA1101125085715MW1715REMMET13301/06/19 03:23:02 METAR KPVU 061023Z 13006KT 4SM -SN BR BKN009 BKN014 OVC025 00/M01 A2986 RMK AO2 UPE04SNB04 CIG 007V012 P0001 FZRANO
0340725724241742019010610417+40219-111723FM-15+1371KPVU V0201005N00155003965MN0080475N5+00005-00105999999ADDAA101000595AU110030015AU200001015AW1105AW2715GA1025+001225999GA2075+003965999GA3085+007625999GD11991+0012259GD23991+0039659GD34991+0076259GE19MSL   +99999+99999GF199999999999001221999999MA1101085085685MW1715REMMET12101/06/19 03:41:02 METAR KPVU 061041Z 10003KT 5SM -SN BR FEW004 BKN013 OVC025 00/M01 A2985 RMK AO2 UPE04SNB04 P0002 FZRANO
0345725724241742019010610507+40219-111723FM-15+1371KPVU V0209999C00005001225MN0064375N5+00005-00105999999ADDAA101000595AU120090015AU200001015AW1105AW2401AW3415GA1075+001225999GA2075+004275999GA3085+007625999GD13991+0012259GD23991+0042759GD34991+0076259GE19MSL   +99999+99999GF199999999999001221999999MA1101085085685REMMET12601/06/19 03:50:02 METAR KPVU 061050Z 00000KT 4SM UP BR BKN004 BKN014 OVC025 00/M01 A2985 RMK AO2 UPE04B45SNB04E45 P0002 FZRANO
0381725724241742019010610567+40219-111723FM-15+1371KPVU V0201105N00155001225MN0064375N5+00005-00065101245ADDAA101000595AU110030015AU200001015AW1105AW2715GA1075+001225999GA2075+004275999GA3085+007625999GD13991+0012251GD23991+0042759GD34991+0076259GE19MSL   +99999+99999GF199999999999001221999999MA1101085085685MW1715REMMET16201/06/19 03:56:02 METAR KPVU 061056Z 11003KT 4SM -SN BR BKN004 BKN014 OVC025 00/M01 A2985 RMK AO2 UPE04B45E54SNB04E45B54 CIG 002V008 SLP124 P0002 T00001006 FZRANO
0281725724241742019010611137+40219-111723FM-15+1371KPVU V0201305N00155007925MN0112655N5+00005-00105999999ADDAA101000021AU120090015AW1401AW2415GA1045+001225999GA2085+007925999GD12991+0012259GD24991+0079259GE19MSL   +99999+99999GF199999999999001221999999MA1101055085655REMMET11001/06/19 04:13:02 METAR KPVU 061113Z 13003KT 7SM UP SCT004 OVC026 00/M01 A2984 RMK AO2 UPB06SNE06 P0000 FZRANO
0407725724241742019010611567+40219-111723FM-15+1371KPVU V0201505N00155006715MN0096565N5+00005-00065101155ADDAA101000395AA206002591AA324002591AU120090015AU200001015AW1105AW2401AW3415GA1085+006715999GD14991+0067159GE19MSL   +99999+99999GF199999999999006711999999KA1060M+00391KA2060N+00001MA1101025085625MD1890139+9999REMMET15301/06/19 04:56:02 METAR KPVU 061156Z 15003KT 6SM UP BR OVC022 00/M01 A2983 RMK AO2 UPB06SNE06 SLP115 P0001 60010 70010 T00001006 10039 20000 58013 FZRANOEQDQ01  00258PRCP06Q02  00258PRCP24
0271725724241742019010612187+40219-111723FM-15+1371KPVU V0201305N00265004275MN0160935N5+00105-00105999999ADDAA101000021AU120090015AW1401AW2415GA1075+004275999GA2085+006105999GD13991+0042759GD24991+0061059GE19MSL   +99999+99999GF199999999999004271999999MA1100985085595REMMET10001/06/19 05:18:02 METAR KPVU 061218Z 13005KT 10SM UP BKN014 OVC020 01/M01 A2982 RMK AO2 P0000 FZRANO
0262725724241742019010612567+40219-111723FM-15+1371KPVU V0209999C00005004275MN0160935N5+00065-00065101095ADDAA101000021AU110020015AW1615GA1085+004275999GD14991+0042759GE19MSL   +99999+99999GF199999999999004271999999MA1100955085565MW1615REMMET12201/06/19 05:56:02 METAR KPVU 061256Z 00000KT 10SM -RA OVC014 01/M01 A2981 RMK AO2 UPE22RAB22 SLP109 P0000 T00061006 FZRANO
0271725724241742019010613147+40219-111723FM-15+1371KPVU V0209999C00005004885MN0144845N5+00105-00105999999ADDAA101000021AU110020015AW1615GA1075+004885999GA2085+009755999GD13991+0048859GD24991+0097559GE19MSL   +99999+99999GF199999999999004881999999MA1100955085565MW1615REMMET10001/06/19 06:14:02 METAR KPVU 061314Z 00000KT 9SM -RA BKN016 OVC032 01/M01 A2981 RMK AO2 P0000 FZRANO
0221725724241742019010613284+40219-111723FM-16+137199999V0203401N002110097519N016093199+00101-00101999999ADDAA101000021AW1401GD12991+0048819GD24991+0097519GE19MSL   +99999+99999GF199999999999004881999999MA1100951999999REMMET099SPECI KPVU 061328Z AUTO 34004KT 10SM UP SCT016 OVC032 01/M01 A2981 RMK AO2 RAE19UPB23 P0000 FZRANO=
0298725724241742019010613567+40219-111723FM-15+1371KPVU V0200805N00155008535MN0160935N5+00065+00005101045ADDAA101000021AU110020015AW1615GA1045+006715999GA2085+008535999GD12991+0067159GD24991+0085359GE19MSL   +99999+99999GF199999999999006711999999MA1100955085565MW1615REMMET12701/06/19 06:56:02 METAR KPVU 061356Z 08003KT 10SM -RA SCT022 OVC028 01/00 A2981 RMK AO2 RAE19B37UPB23E37 SLP104 P0000 T00060000
0248725724241742019010614564+40219-111723FM-15+137199999V0209999C000010067119N004828199+00061-00061101051ADDAA101000231AA203000391AW1101GD14991+0067119GE19MSL   +99999+99999GF199999999999006711999999MA1100911999999REMMET111METAR KPVU 061456Z 00000KT 3SM BR OVC022 01/M01 A2980 RMK AO2 RAE22UPB31E43 SLP105 P0001 60001 T00061006 56007=EQDQ01  00028PRCP03
0287725724241742019010614587+40219-111723FM-15+1371KPVU V0209999C00005006715MN0160935N5+00065-00065101055ADDAA101000395AA203000391GA1085+006715999GD14991+0067159GE19MSL   +99999+99999GF199999999999006711999999MA1100915085535MD1690079+9999REMMET12601/06/19 07:58:02 METAR KPVU 061458Z 00000KT 10SM OVC022 01/M01 A2980 RMK AO2 RAE22UPB31E43 SLP105 P0001 60001 T00061006 56007EQDQ01  00028PRCP03
0295725724241742019010615567+40219-111723FM-15+1371KPVU V0201105N00265008235MN0160935N5+00065+00005101095ADDAA101000021AU110020015AW1615GA1045+004575999GA2085+008235999GD12991+0045759GD24991+0082359GE19MSL   +99999+99999GF199999999999004571999999MA1100955085565MW1615REMMET12401/06/19 08:56:02 METAR KPVU 061556Z 11005KT 10SM -RA SCT015 OVC027 01/00 A2981 RMK AO2 RAB39UPB48E53 SLP109 P0000 T00060000
0264725724241742019010616327+40219-111723FM-15+1371KPVU V0201105N00315009755MN0160935N5+00205+00105999999ADDAA101000021AU110020015AW1615GA1045+007925999GA2085+009755999GD12991+0079259GD24991+0097559GE19MSL   +99999+99999GF199999999999007921999999MA1100985085595MW1615REMMET09301/06/19 09:32:02 METAR KPVU 061632Z 11006KT 10SM -RA SCT026 OVC032 02/01 A2982 RMK AO2 P0000
0319725724241742019010616567+40219-111723FM-15+1371KPVU V0201305N00265007925MN0160935N5+00225+00175101115ADDAA101000021AU110020015AW1615GA1045+004575999GA2075+007925999GA3085+010065999GD12991+0045759GD23991+0079259GD34991+0100659GE19MSL   +99999+99999GF199999999999004571999999MA1101025085625MW1615REMMET11701/06/19 09:56:02 METAR KPVU 061656Z 13005KT 10SM -RA SCT015 BKN026 OVC033 02/02 A2983 RMK AO2 SLP111 P0000 T00220017
0413725724241742019010617567+40219-111723FM-15+1371KPVU V0209999C00005005495MN0160935N5+00285+00175101145ADDAA101000595AA206000891AU110020015AW1615GA1025+003055999GA2075+005495999GA3085+006715999GD11991+0030559GD23991+0054959GD34991+0067159GE19MSL   +99999+99999GF199999999999003051999999KA1060M+00281KA2060N+00061MA1101055085655MD1390139+9999MW1615REMMET14101/06/19 10:56:02 METAR KPVU 061756Z 00000KT 10SM -RA FEW010 BKN018 OVC022 03/02 A2984 RMK AO2 SLP114 P0002 60003 T00280017 10028 20006 53013EQDQ01  00078PRCP06
0226725724241742019010618287+40219-111723FM-15+1371KPVU V0202205N00365004275MN0160935N5+00205+00105999999ADDAA101000021AU110020015AW1615GA1085+004275999GD14991+0042759GE19MSL   +99999+99999GF199999999999004271999999MA1101055085655MW1615REMMET08601/06/19 11:28:02 METAR KPVU 061828Z 22007KT 10SM -RA OVC014 02/01 A2984 RMK AO2 P0000
0262725724241742019010618567+40219-111723FM-15+1371KPVU V0202305N00365003665MN0064375N5+00175+00005101075ADDAA101000595AU110020015AU200001015AW1105AW2615GA1085+003665999GD14991+0036659GE19MSL   +99999+99999GF199999999999003661999999MA1101025085625MW1615REMMET10501/06/19 11:56:02 METAR KPVU 061856Z 23007KT 4SM -RA BR OVC012 02/00 A2983 RMK AO2 SLP107 P0002 T00170000
0306725724241742019010619257+40219-111723FM-15+1371KPVU V0201705N00315002445MN0128755N5+00105+00005999999ADDAA101000395AU120090015AW1415GA1075+002445999GA2085+004275999GD13991+0024451GD24991+0042759GE19AGL   +99999+99999GF199999999999002441999999MA1101025085625REMMET12201/06/19 12:25:01 METAR KPVU 061925Z 17006KT 8SM UP BKN008 OVC014 01/00 A2983 RMK AO2 RAE04UPB04SNB07E22 CIG 007V011 P0001EQDD01      0ADE735
0289725724241742019010619417+40219-111723FM-15+1371KPVU V0201905N00415003965MN0160935N5+00105+00105999999ADDAA101000595AU110020015AW1615GA1025+002445999GA2085+003965999GD11991+0024459GD24991+0039659GE19MSL   +99999+99999GF199999999999002441999999MA1101025085625MW1615REMMET11801/06/19 12:41:01 METAR KPVU 061941Z 19008KT 10SM -RA FEW008 OVC013 01/01 A2983 RMK AO2 RAE04B27UPB04E27SNB07E22 P0002
0267725724241742019010619567+40219-111723FM-15+1371KPVU V0201905N00575003355MN0144845N5+00115+00005101105ADDAA101000595AU110020015AW1615GA1085+003355999GD14991+0033559GE19MSL   +99999+99999GF199999999999003351999999MA1101025085625MW1615REMMET12701/06/19 12:56:02 METAR KPVU 061956Z 19011KT 9SM -RA OVC011 01/00 A2983 RMK AO2 RAE04B27UPB04E27SNB07E22 SLP110 P0002 T00110000
0254725724241742019010620277+40219-111723FM-15+1371KPVU V0202505N00625003355MN0032195N5+00105+00005999999ADDAA101000595AU110020015AU200001015AW1105AW2615GA1085+003355999GD14991+0033559GE19MSL   +99999+99999GF199999999999003351999999MA1101085085685MW1615REMMET09701/06/19 13:27:02 METAR KPVU 062027Z 25012KT 2SM -RA BR OVC011 01/00 A2985 RMK AO2 UPB14E18 P0002
0326725724241742019010620357+40219-111723FM-15+1371KPVU V0203605N00465001525MN0032195N5+00105-00105999999ADDAA101000895AU110030015AU200001015AW1105AW2715GA1075+001525999GA2085+003355999GD13991+0015251GD24991+0033559GE19MSL   +99999+99999GF199999999999001521999999MA1101085085685MW1715OC100725REMMET13001/06/19 13:35:02 METAR KPVU 062035Z 36009G14KT 2SM -SN BR BKN005 OVC011 01/M01 A2985 RMK AO2 RAE28UPB14E18SNB28 CIG 003V008 P0003
0328725724241742019010620387+40219-111723FM-15+1371KPVU V0203505N00415001525MN0008055N5+00105-00105999999ADDAA101001095AU110030015AU200002015AW1305AW2715GA1075+001525999GA2085+003355999GD13991+0015251GD24991+0033559GE19MSL   +99999+99999GF199999999999001521999999MA1101085085685MW1715OC100725REMMET13201/06/19 13:38:02 METAR KPVU 062038Z 35008G14KT 1/2SM -SN FG BKN005 OVC011 01/M01 A2985 RMK AO2 RAE28UPB14E18SNB28 CIG 003V008 P0004
0279725724241742019010620527+40219-111723FM-15+1371KPVU V0203605N00515002135MN0012075N5+00105-00105999999ADDAA101001395AU110030015AU200001015AW1105AW2715GA1085+002135999GD14991+0021351GE19MSL   +99999+99999GF199999999999002131999999MA1101125085715MW1715REMMET12201/06/19 13:52:02 METAR KPVU 062052Z 36010KT 3/4SM -SN BR OVC007 01/M01 A2986 RMK AO2 RAE28UPB14E18SNB28 CIG 003V009 P0005
0297725724241742019010620564+40219-111723FM-15+137199999V0203601N005110009119N001609199+00061-00061101231ADDAA101001531AA203002591AW1101AW2711GD13991+0021311GD24991+0033519GE19MSL   +99999+99999GF199999999999002131999999MA1101121999999REMMET139METAR KPVU 062056Z 36010KT 1SM -SN BR BKN007 OVC011 01/M01 A2986 RMK AO2 RAE28UPB14E18SNB28 CIG 003V009 SLP123 P0006 60010 T00061006 53004=EQDQ01  00258PRCP03
0390725724241742019010620587+40219-111723FM-15+1371KPVU V0203605N00515002135MN0012075N5+00065-00065101235ADDAA101001595AA203002591AU110030015AU200001015AW1105AW2715GA1075+002135999GA2085+003355999GD13991+0021351GD24991+0033559GE19MSL   +99999+99999GF199999999999002131999999MA1101125085715MD1390049+9999MW1715REMMET15801/06/19 13:58:02 METAR KPVU 062058Z 36010KT 3/4SM -SN BR BKN007 OVC011 01/M01 A2986 RMK AO2 RAE28UPB14E18SNB28 CIG 003V009 SLP123 P0006 60010 T00061006 53004EQDQ01  00258PRCP03
0298725724241742019010621047+40219-111723FM-15+1371KPVU V0203505N00415002135MN0012075N5+00105-00105999999ADDAA101000021AU110030015AU200001015AW1105AW2715GA1075+002135999GA2085+003355999GD13991+0021351GD24991+0033559GE19MSL   +99999+99999GF199999999999002131999999MA1101125085715MW1715REMMET11001/06/19 14:04:02 METAR KPVU 062104Z 35008KT 3/4SM -SN BR BKN007 OVC011 01/M01 A2986 RMK AO2 CIG 004V009 P0000
0286725724241742019010621127+40219-111723FM-15+1371KPVU V0203305N00265003965MN0012075N5+00105-00105999999ADDAA101000395AU110030015AU200001015AW1105AW2715GA1045+002135999GA2085+003965999GD12991+0021359GD24991+0039659GE19MSL   +99999+99999GF199999999999002131999999MA1101155085745MW1715REMMET09801/06/19 14:12:02 METAR KPVU 062112Z 33005KT 3/4SM -SN BR SCT007 OVC013 01/M01 A2987 RMK AO2 P0001
0286725724241742019010621137+40219-111723FM-15+1371KPVU V0203305N00265003965MN0012075N5+00105-00105999999ADDAA101000395AU110030015AU200001015AW1105AW2715GA1045+002135999GA2085+003965999GD12991+0021359GD24991+0039659GE19MSL   +99999+99999GF199999999999002131999999MA1101155085745MW1715REMMET09801/06/19 14:13:02 METAR KPVU 062113Z 33005KT 3/4SM -SN BR SCT007 OVC013 01/M01 A2987 RMK AO2 P0001
0295725724241742019010621207+40219-111723FM-15+1371KPVU V0203405N00215002135MN0016095N5+00105+00005999999ADDAA101000395AU110030015AU200001015AW1105AW2715GA1075+002135999GA2085+003965999GD13991+0021351GD24991+0039659GE19MSL   +99999+99999GF199999999999002131999999MA1101155085745MW1715REMMET10701/06/19 14:20:02 METAR KPVU 062120Z 34004KT 1SM -SN BR BKN007 OVC013 01/00 A2987 RMK AO2 CIG 003V009 P0001
0287725724241742019010621257+40219-111723FM-15+1371KPVU V0209999N99999004275MN0024145N5+00105+00005999999ADDAA101000395AU110030015AU200001015AW1105AW2715GA1045+002135999GA2085+004275999GD12991+0021359GD24991+0042759GE19MSL   +99999+99999GF199999999999002131999999MA1101155085745MW1715REMMET09901/06/19 14:25:02 METAR KPVU 062125Z      KT 1 1/2SM -SN BR SCT007 OVC014 01/00 A2987 RMK AO2 P0001
0325725724241742019010621347+40219-111723FM-15+1371KPVU V0209999C00005009755MN0024145N5+00105+00005999999ADDAA101000395AU110030015AU200001015AW1105AW2715GA1025+002135999GA2045+005185999GA3085+009755999GD11991+0021359GD22991+0051859GD34991+0097559GE19MSL   +99999+99999GF199999999999002131999999MA1101155085745MW1715REMMET10601/06/19 14:34:02 METAR KPVU 062134Z 00000KT 1 1/2SM -SN BR FEW007 SCT017 OVC032 01/00 A2987 RMK AO2 P0001
0321725724241742019010621397+40219-111723FM-15+1371KPVU V0202505N00155009755MN0048285N5+00105+00005999999ADDAA101000395AU110030015AU200001015AW1105AW2715GA1025+002135999GA2045+005185999GA3085+009755999GD11991+0021359GD22991+0051859GD34991+0097559GE19MSL   +99999+99999GF199999999999002131999999MA1101155085745MW1715REMMET10201/06/19 14:39:02 METAR KPVU 062139Z 25003KT 3SM -SN BR FEW007 SCT017 OVC032 01/00 A2987 RMK AO2 P0001
0281725724241742019010621567+40219-111723FM-15+1371KPVU V0202305N00265010065MN0112655N5+00065-00065101315ADDAA101000395AU110030015AW1715GA1075+010065999GA2085+012195999GD13991+0100659GD24991+0121959GE19MSL   +99999+99999GF199999999999010061999999MA1101195085775MW1715REMMET11001/06/19 14:56:02 METAR KPVU 062156Z 23005KT 7SM -SN BKN033 OVC040 01/M01 A2988 RMK AO2 SLP131 P0001 T00061006
0290725724241742019010622547+40219-111723FM-15+1371KPVU V0201905N00465013115MN0160935N5+00105-00105999999ADDAA101000021GA1025+001225999GA2045+007625999GA3085+013115999GD11991+0012259GD22991+0076259GD34991+0131159GE19MSL   +99999+99999GF199999999999001221999999MA1101225085805REMMET11101/06/19 15:54:02 METAR KPVU 062254Z 19009KT 10SM FEW004 SCT025 OVC043 01/M01 A2989 RMK AO2 UPB34E36SNE34 P0000
0242725724241742019010622564+40219-111723FM-15+137199999V0201901N005110131119N016093199+00061-00061101341ADDAA101000021GD11991+0012219GD22991+0076219GD34991+0131119GE19MSL   +99999+99999GF199999999999001221999999MA1101221999999REMMET111METAR KPVU 062256Z 19010KT 10SM FEW004 SCT025 OVC043 01/M01 A2989 RMK AO2 UPB34E36SNE34 SLP134 P0000 T00061006=
0307725724241742019010622587+40219-111723FM-15+1371KPVU V0201905N00515013115MN0160935N5+00065-00065101345ADDAA101000021GA1025+000615999GA2045+007625999GA3085+013115999GD11991+0006159GD22991+0076259GD34991+0131159GE19MSL   +99999+99999GF199999999999000611999999MA1101225085805REMMET12801/06/19 15:58:02 METAR KPVU 062258Z 19010KT 10SM FEW002 SCT025 OVC043 01/M01 A2989 RMK AO2 UPB34E36SNE34 SLP134 P0000 T00061006
0221725724241742019010623367+40219-111723FM-15+1371KPVU V0201505N00415011285MN0160935N5+00105-00105999999ADDGA1045+000915999GA2085+011285999GD12991+0009159GD24991+0112859GE19MSL   +99999+99999GF199999999999000911999999MA1101225085805REMMET08401/06/19 16:36:02 METAR KPVU 062336Z 15008KT 10SM SCT003 OVC037 01/M01 A2989 RMK AO2
0339725724241742019010623567+40219-111723FM-15+1371KPVU V0201105N00215011285MN0160935N5+00065-00065101395ADDAA106002891GA1045+000915999GA2085+011285999GD12991+0009159GD24991+0112859GE19MSL   +99999+99999GF199999999999000911999999KA1060M+00281KA2060N+00061MA1101255085835MD1390069+9999REMMET13201/06/19 16:56:02 METAR KPVU 062356Z 11004KT 10SM SCT003 OVC037 01/M01 A2990 RMK AO2 SLP139 60011 T00061006 10028 20006 53006 FZRANOEQDQ01  00278PRCP06
0238725724241742019010700567+40219-111723FM-15+1371KPVU V0209999C00005011585MN0160935N5+00005-00065101485ADDGA1075+011585999GA2085+021345999GD13991+0115859GD24991+0213459GE19MSL   +99999+99999GF199999999999011581999999MA1101355085925REMMET10101/06/19 17:56:01 METAR KPVU 070056Z 00000KT 10SM BKN038 OVC070 00/M01 A2993 RMK AO2 SLP148 T00001006
0201725724241742019010701567+40219-111723FM-15+1371KPVU V0201505N00155021345MN0160935N5-00065-00175101525ADDGA1085+021345999GD14991+0213459GE19MSL   +99999+99999GF199999999999021341999999MA1101355085925REMMET09501/06/19 18:56:01 METAR KPVU 070156Z 15003KT 10SM OVC070 M01/M02 A2993 RMK AO2 SLP152 T10061017
0258725724241742019010702567+40219-111723FM-15+1371KPVU V0201705N00365014025MN0144845N5-00175-00225101505ADDGA1075+014025999GA2075+018295999GD13991+0140259GD23991+0182959GE19MSL   +99999+99999GF199999999999014021999999MA1101325085895MD1090069+9999REMMET10701/06/19 19:56:02 METAR KPVU 070256Z 17007KT 9SM BKN046 BKN060 M02/M02 A2992 RMK AO2 SLP150 T10171022 50006
0272725724241742019010703567+40219-111723FM-15+1371KPVU V0209999C00005021345MN0160935N5-00115-00175101535ADDAA101000021GA1045+012805999GA2085+021345999GD12991+0128059GD24991+0213459GE19MSL   +99999+99999GF199999999999012801999999MA1101355085925REMMET12401/06/19 20:56:02 METAR KPVU 070356Z 00000KT 10SM SCT042 OVC070 M01/M02 A2993 RMK AO2 UPB22E37 SLP153 P0000 T10111017 FZRANO
0246725724241742019010704567+40219-111723FM-15+1371KPVU V0201105N00155015245MN0160935N5-00175-00225101485ADDGA1075+015245999GA2085+022865999GD13991+0152459GD24991+0228659GE19MSL   +99999+99999GF199999999999015241999999MA1101355085925REMMET10901/06/19 21:56:02 METAR KPVU 070456Z 11003KT 10SM BKN050 OVC075 M02/M02 A2993 RMK AO2 SLP148 T10171022 FZRANO
0318725724241742019010705567+40219-111723FM-15+1371KPVU V0201005N00365019815MN0160935N5-00065-00115101395ADDAA106000021GA1085+019815999GD14991+0198159GE19MSL   +99999+99999GF199999999999019811999999KA1060M+00061KA2060N-00171MA1101255085835MD1890059+9999REMMET12601/06/19 22:56:02 METAR KPVU 070556Z 10007KT 10SM OVC065 M01/M01 A2990 RMK AO2 SLP139 60000 T10061011 10006 21017 58005 FZRANOEQDQ01  00002PRCP06Q02  00008PRCP06
0320725724241742019010706567+40219-111723FM-15+1371KPVU V0201305N00155028965MN0160935N5-00065-00115101405ADDGA1025+022865999GA2075+028965999GA3085+033535999GD11991+0228659GD23991+0289659GD34991+0335359GE19MSL   +99999+99999GF199999999999022861999999KA1240M+00391KA2240N-00171MA1101255085835REMMET12601/06/19 23:56:02 METAR KPVU 070656Z 13003KT 10SM FEW075 BKN095 OVC110 M01/M01 A2990 RMK AO2 SLP140 T10061011 400391017 FZRANO
006372572424174201901070659O+40219-111723SOD  +1371KPVU V020999999999999999999999999999+99999+99999999999ADDAT1AU16RA  5AT2AU18SN  5AT3AU01FG  5AT4AU13BR  5AT5AU19UP  5
0207725724241742019010707567+40219-111723FM-15+1371KPVU V0200805N00265022865MN0160935N5+00005-00065101345ADDGA1085+022865999GD14991+0228659GE19MSL   +99999+99999GF199999999999022861999999MA1101195085775REMMET10101/07/19 00:56:02 METAR KPVU 070756Z 08005KT 10SM OVC075 00/M01 A2988 RMK AO2 SLP134 T00001006 FZRANO
0396725724241742019010708567+40219-111723FM-15+1371KPVU V0201905N00725014025MN0160935N5+00115+00005101425ADDAA101000021AA203000021AU110020015AW1615GA1025+008535999GA2075+014025999GA3085+016765999GD11991+0085359GD23991+0140259GD34991+0167659GE19MSL   +99999+99999GF199999999999008531999999MA1101295085865MD1390039+9999MW1615REMMET15001/07/19 01:56:02 METAR KPVU 070856Z 19014KT 10SM -RA FEW028 BKN046 OVC055 01/00 A2991 RMK AO2 UPB22E46RAB46 SLP142 P0000 60000 T00110000 53003 FZRANOEQDQ01  00008PRCP03
0348725724241742019010709197+40219-111723FM-15+1371KPVU V0201705N00825008535MN0064375N5+00105-00105999999ADDAA101000021AU110030015AU200001015AW1105AW2715GA1025+004885999GA2075+008535999GA3085+010365999GD11991+0048859GD23991+0085359GD34991+0103659GE19MSL   +99999+99999GF199999999999004881999999MA1101325085895MW1715REMMET12901/07/19 02:19:02 METAR KPVU 070919Z 17016KT 4SM -SN BR FEW016 BKN028 OVC034 01/M01 A2992 RMK AO2 RAE06UPB06E07SNB07 P0000 FZRANO
0348725724241742019010709287+40219-111723FM-15+1371KPVU V0201605N00515005495MN0032195N5+00105-00105999999ADDAA101000021AU110030015AU200001015AW1105AW2715GA1075+005495999GA2075+008235999GA3085+010065999GD13991+0054959GD23991+0082359GD34991+0100659GE19MSL   +99999+99999GF199999999999005491999999MA1101295085865MW1715REMMET12901/07/19 02:28:02 METAR KPVU 070928Z 16010KT 2SM -SN BR BKN018 BKN027 OVC033 01/M01 A2991 RMK AO2 RAE06UPB06E07SNB07 P0000 FZRANO
0348725724241742019010709387+40219-111723FM-15+1371KPVU V0201605N00365008235MN0048285N5+00005-00105999999ADDAA101000021AU110030015AU200001015AW1105AW2715GA1025+001835999GA2075+008235999GA3085+009755999GD11991+0018359GD23991+0082359GD34991+0097559GE19MSL   +99999+99999GF199999999999001831999999MA1101295085865MW1715REMMET12901/07/19 02:38:02 METAR KPVU 070938Z 16007KT 3SM -SN BR FEW006 BKN027 OVC032 00/M01 A2991 RMK AO2 RAE06UPB06E07SNB07 P0000 FZRANO
0364725724241742019010709457+40219-111723FM-15+1371KPVU V0201605N00365005185MN0028165V5+00005-00105999999ADDAA101000395AU110030015AU200001015AW1105AW2715GA1025+001835999GA2075+005185999GA3085+010365999GD11991+0018359GD23991+0051859GD34991+0103659GE19MSL   +99999+99999GF199999999999001831999999MA1101295085865MW1715REMMET14501/07/19 02:45:02 METAR KPVU 070945Z 16007KT 1 3/4SM -SN BR FEW006 BKN017 OVC034 00/M01 A2991 RMK AO2 VIS 1 1/4V4 RAE06UPB06E07SNB07 P0001 FZRANO
0381725724241742019010709567+40219-111723FM-15+1371KPVU V0201705N00315003355MN0024145N5+00005-00115101435ADDAA101000395AU110030015AU200001015AW1105AW2715GA1025+001835999GA2075+003355999GA3085+010365999GD11991+0018351GD23991+0033559GD34991+0103659GE19MSL   +99999+99999GF199999999999001831999999MA1101295085865MW1715REMMET16201/07/19 02:56:02 METAR KPVU 070956Z 17006KT 1 1/2SM -SN BR FEW006 BKN011 OVC034 00/M01 A2991 RMK AO2 RAE06UPB06E07SNB07 CIG 007V014 SLP143 P0001 T00001011 FZRANO
0333725724241742019010710067+40219-111723FM-15+1371KPVU V0201605N00315002745MN0024145N5+00005-00105999999ADDAA101000021AU110030015AU200001015AW1105AW2715GA1045+001225999GA2075+002745999GA3085+005185999GD12991+0012259GD23991+0027459GD34991+0051859GE19MSL   +99999+99999GF199999999999001221999999MA1101295085865MW1715REMMET11401/07/19 03:06:02 METAR KPVU 071006Z 16006KT 1 1/2SM -SN BR SCT004 BKN009 OVC017 00/M01 A2991 RMK AO2 P0000 FZRANO
0341725724241742019010710197+40219-111723FM-15+1371KPVU V0201205N00265002745MN0032195N5+00005-00105999999ADDAA101000395AU110030015AU200001015AW1105AW2715GA1045+001225999GA2075+002745999GA3085+006715999GD12991+0012251GD23991+0027459GD34991+0067159GE19MSL   +99999+99999GF199999999999001221999999MA1101295085865MW1715REMMET12201/07/19 03:19:02 METAR KPVU 071019Z 12005KT 2SM -SN BR SCT004 BKN009 OVC022 00/M01 A2991 RMK AO2 CIG 007V013 P0001 FZRANO
0329725724241742019010710307+40219-111723FM-15+1371KPVU V0200905N00215007625MN0096565N5+00005-00105999999ADDAA101000395AU110030015AU200001015AW1105AW2715GA1045+001225999GA2075+007625999GA3085+010675999GD12991+0012259GD23991+0076259GD34991+0106759GE19MSL   +99999+99999GF199999999999001221999999MA1101295085865MW1715REMMET11001/07/19 03:30:02 METAR KPVU 071030Z 09004KT 6SM -SN BR SCT004 BKN025 OVC035 00/M01 A2991 RMK AO2 P0001 FZRANO
0306725724241742019010710567+40219-111723FM-15+1371KPVU V0200305N00265007925MN0160935N5+00005-00065101425ADDAA101000395AU110030015AW1715GA1075+007925999GA2085+010365999GD13991+0079259GD24991+0103659GE19MSL   +99999+99999GF199999999999007921999999MA1101295085865MW1715REMMET13501/07/19 03:56:02 METAR KPVU 071056Z 03005KT 10SM -SN BKN026 OVC034 00/M01 A2991 RMK AO2 UPB36E49SNE36B49 SLP142 P0001 T00001006 FZRANO
0382725724241742019010711567+40219-111723FM-15+1371KPVU V0202005N00365008535MN0160935N5+00115+00005101435ADDAA101000021AA206000591AA324004191AU120090015AW1401AW2415GA1085+008535999GD14991+0085359GE19MSL   +99999+99999GF199999999999008531999999KA1060M+00111MA1101325085895MD1390019+9999REMMET15801/07/19 04:56:02 METAR KPVU 071156Z 20007KT 10SM UP OVC028 01/00 A2992 RMK AO2 RAB33E49UPB49SNE33 SLP143 P0000 60002 70016 T00110000 10011 21006 53001 FZRANOEQDQ01  00058PRCP06Q02  00408PRCP24
0233725724241742019010712367+40219-111723FM-15+1371KPVU V0200205N00365009145MN0160935N5+00205-00105999999ADDAA101000021AU120090015AW1401AW2415GA1085+009145999GD14991+0091459GE19MSL   +99999+99999GF199999999999009141999999MA1101355085925REMMET09301/07/19 05:36:02 METAR KPVU 071236Z 02007KT 10SM UP OVC030 02/M01 A2993 RMK AO2 P0000 FZRANO
0262725724241742019010712567+40219-111723FM-15+1371KPVU V0200305N00415008535MN0160935N5+00175-00115101515ADDAA101000021AU110020015AW1615GA1085+008535999GD14991+0085359GE19MSL   +99999+99999GF199999999999008531999999MA1101395085955MW1615REMMET12201/07/19 05:56:02 METAR KPVU 071256Z 03008KT 10SM -RA OVC028 02/M01 A2994 RMK AO2 UPE44RAB44 SLP151 P0000 T00171011 FZRANO
0222725724241742019010713564+40219-111723FM-15+137199999V0202501V007710079219N016093199+00171-00061101621ADDAA101000021AW1611GD14991+0079219GE19MSL   +99999+99999GF199999999999007921999999MA1101491999999OC101241REMMET107METAR KPVU 071356Z 25015G24KT 120V300 10SM -RA OVC026 02/M01 A2997 RMK AO2 UPB20E26 SLP162 P0000 T00171006=
0253725724241742019010713587+40219-111723FM-15+1371KPVU V0201505N00365007925MN0160935N5+00175-00065101625ADDAA101000021AU110020015AW1615GA1085+007925999GD14991+0079259GE19MSL   +99999+99999GF199999999999007921999999MA1101495086045MW1615REMMET11301/07/19 06:58:02 METAR KPVU 071358Z 15007KT 10SM -RA OVC026 02/M01 A2997 RMK AO2 UPB20E26 SLP162 P0000 T00171006
0244725724241742019010714347+40219-111723FM-15+1371KPVU V0203305N00215009145MN0160935N5+00205-00105999999ADDAA101000021GA1025+007325999GA2085+009145999GD11991+0073259GD24991+0091459GE19MSL   +99999+99999GF199999999999007321999999MA1101525086075REMMET09601/07/19 07:34:02 METAR KPVU 071434Z 33004KT 10SM FEW024 OVC030 02/M01 A2998 RMK AO2 RAE23 P0000
0317725724241742019010714567+40219-111723FM-15+1371KPVU V0202805N00155009755MN0160935N5+00285-00065101715ADDAA101000021AA203000021GA1045+006105999GA2085+009755999GD12991+0061059GD24991+0097559GE19MSL   +99999+99999GF199999999999006101999999MA1101565086105MD1390169+9999REMMET12501/07/19 07:56:02 METAR KPVU 071456Z 28003KT 10SM SCT020 OVC032 03/M01 A2999 RMK AO2 RAE23 SLP171 P0000 60000 T00281006 53016EQDQ01  00008PRCP03
0275725724241742019010715567+40219-111723FM-15+1371KPVU V0209999C00005013725MN0160935N5+00285+00005101815ADDGA1045+006105999GA2045+010065999GA3085+013725999GD12991+0061059GD22991+0100659GD34991+0137259GE19MSL   +99999+99999GF199999999999006101999999MA1101665086195REMMET10701/07/19 08:56:02 METAR KPVU 071556Z 00000KT 10SM SCT020 SCT033 OVC045 03/00 A3002 RMK AO2 SLP181 T00280000
0326725724241742019010716567+40219-111723FM-15+1371KPVU V0202405N00465010365MN0160935N5+00285-00065101995ADDAA101000395AU110020015AW1615GA1025+005795999GA2075+010365999GA3085+013415999GD11991+0057959GD23991+0103659GD34991+0134159GE19MSL   +99999+99999GF199999999999005791999999MA1101835086335MW1615REMMET12401/07/19 09:56:02 METAR KPVU 071656Z 24009KT 10SM -RA FEW019 BKN034 OVC044 03/M01 A3007 RMK AO2 RAB19 SLP199 P0001 T00281006
0414725724241742019010717567+40219-111723FM-15+1371KPVU V0202405N00365012195MN0160935N5+00285-00065102055ADDAA101000021AA206000391AU110020015AW1615GA1045+009755999GA2075+012195999GA3085+016765999GD12991+0097559GD23991+0121959GD34991+0167659GE19MSL   +99999+99999GF199999999999009751999999KA1060M+00281KA2060N+00111MA1101905086395MD1190309+9999MW1615REMMET14201/07/19 10:56:02 METAR KPVU 071756Z 24007KT 10SM -RA SCT032 BKN040 OVC055 03/M01 A3009 RMK AO2 SLP205 P0000 60001 T00281006 10028 20011 51030EQDQ01  00028PRCP06
0260725724241742019010718567+40219-111723FM-15+1371KPVU V0202105N00625019815MN0160935N5+00335+00005102025ADDAA101000021GA1045+007625999GA2085+019815999GD12991+0076259GD24991+0198159GE19MSL   +99999+99999GF199999999999007621999999MA1101905086395REMMET11201/07/19 11:56:02 METAR KPVU 071856Z 21012KT 10SM SCT025 OVC065 03/00 A3009 RMK AO2 RAE56 SLP202 P0000 T00330000
0336725724241742019010719567+40219-111723FM-15+1371KPVU V0202105N00725027435MN0160935N5+00395+00005101965ADDAA101000021AU110020015AW1615GA1025+009145999GA2045+021345999GA3085+027435999GD11991+0091459GD22991+0213459GD34991+0274359GE19MSL   +99999+99999GF199999999999009141999999MA1101865086365MW1615OC101085REMMET12601/07/19 12:56:02 METAR KPVU 071956Z 21014G21KT 10SM -RA FEW030 SCT070 OVC090 04/00 A3008 RMK AO2 RAB11 SLP196 P0000 T00390000
0327725724241742019010720567+40219-111723FM-15+1371KPVU V0202205N00825028965MN0160935N5+00395+00005102005ADDAA101000021AA203000021GA1025+013415999GA2075+028965999GD11991+0134159GD23991+0289659GE19MSL   +99999+99999GF199999999999013411999999MA1101935086425MD1390019+9999OC101035REMMET12701/07/19 13:56:02 METAR KPVU 072056Z 22016G20KT 10SM FEW044 BKN095 04/00 A3010 RMK AO2 RAE32 SLP200 P0000 60000 T00390000 53001EQDQ01  00008PRCP03
0256725724241742019010721567+40219-111723FM-15+1371KPVU V0202805N00625030485MN0160935N5+00225-00065102265ADDGA1025+014635999GA2075+030485999GD11991+0146359GD23991+0304859GE19MSL   +99999+99999GF199999999999014631999999MA1102105086575OC101085REMMET11101/07/19 14:56:02 METAR KPVU 072156Z 28012G21KT 10SM FEW048 BKN100 02/M01 A3015 RMK AO2 PRESRR SLP226 T00221006
0288725724241742019010722567+40219-111723FM-15+1371KPVU V0203105N00625015245MN0160935N5+00065-00065102415ADDAA101000021AU110020015AW1615GA1025+010975999GA2085+015245999GD11991+0109759GD24991+0152459GE19MSL   +99999+99999GF199999999999010971999999MA1102245086695MW1615REMMET11701/07/19 15:56:02 METAR KPVU 072256Z 31012KT 10SM -RA FEW036 OVC050 01/M01 A3019 RMK AO2 RAB55 SLP241 P0000 T00061006
0332725724241742019010723517+40219-111723FM-15+1371KPVU V0203405N00575008535MN0160935N5+00105-00105999999ADDAA101000395AU120090015AW1415GA1075+008535999GA2075+018295999GA3085+022865999GD13991+0085359GD23991+0182959GD34991+0228659GE19AGL   +99999+99999GF199999999999008531999999MA1102275086725REMMET11701/07/19 16:51:02 METAR KPVU 072351Z 34011KT 10SM UP BKN028 BKN060 OVC075 01/M01 A3020 RMK AO2 RAE42UPB04E06B50 P0001EQDD01      0ADE735
0391725724241742019010723567+40219-111723FM-15+1371KPVU V0203405N00575009145MN0160935N5+00065-00065102455ADDAA101000395AA206000391AU110020015AW1615GA1075+009145999GA2085+019815999GD13991+0091459GD24991+0198159GE19MSL   +99999+99999GF199999999999009141999999KA1060M+00501KA2060N+00061MA1102305086755MD1190169+9999MW1615REMMET15001/07/19 16:56:02 METAR KPVU 072356Z 34011KT 10SM -RA BKN030 OVC065 01/M01 A3021 RMK AO2 UPB04E06B50E53 SLP245 P0001 60001 T00061006 10050 20006 51016EQDQ01  00028PRCP06
0299725724241742019010800567+40219-111723FM-15+1371KPVU V0203205N00575021345MN0160935N5+00005-00115102485ADDAA101000021GA1025+010675999GA2075+021345999GA3085+027435999GD11991+0106759GD23991+0213459GD34991+0274359GE19MSL   +99999+99999GF199999999999010671999999MA1102345086785REMMET12001/07/19 17:56:01 METAR KPVU 080056Z 32011KT 10SM FEW035 BKN070 OVC090 00/M01 A3022 RMK AO2 RAE30 SLP248 P0000 T00001011
0272725724241742019010801567+40219-111723FM-15+1371KPVU V0203405N00265009755MN0160935N5+00005-00115102565ADDAA101000021GA1075+009755999GA2075+027435999GD13991+0097559GD23991+0274359GE19MSL   +99999+99999GF199999999999009751999999MA1102405086845REMMET12401/07/19 18:56:01 METAR KPVU 080156Z 34005KT 10SM BKN032 BKN090 00/M01 A3024 RMK AO2 UPB11E19RAB19E37 SLP256 P0000 T00001011
0273725724241742019010802567+40219-111723FM-15+1371KPVU V0209999C000052200059N0160935N5-00115-00225102645ADDAA103000021GA1045+009145999GD12991+0091459GE19AGL   +99999+99999GF104995999999009141999999MA1102475086905MD1390169+9999REMMET10701/07/19 19:56:02 METAR KPVU 080256Z 00000KT 10SM SCT030 M01/M02 A3026 RMK AO2 SLP264 60000 T10111022 53016EQDQ01  00008PRCP03D01      0ADE726
0207725724241742019010803567+40219-111723FM-15+1371KPVU V0201705N00155024385MN0112655N5-00225-00335102745ADDGA1075+024385999GD13991+0243859GE19MSL   +99999+99999GF199999999999024381999999MA1102545086965REMMET10101/07/19 20:56:02 METAR KPVU 080356Z 17003KT 7SM BKN080 M02/M03 A3028 RMK AO2 SLP274 T10221033 FZRANO
0208725724241742019010804567+40219-111723FM-15+1371KPVU V0201105N00155024385MN0160935N5-00115-00225102805ADDGA1085+024385999GD14991+0243859GE19MSL   +99999+99999GF199999999999024381999999MA1102645087055REMMET10201/07/19 21:56:02 METAR KPVU 080456Z 11003KT 10SM OVC080 M01/M02 A3031 RMK AO2 SLP280 T10111022 FZRANO
0302725724241742019010805567+40219-111723FM-15+1371KPVU V0209999C00005024385MN0160935N5-00115-00225102875ADDAA106000021GA1085+024385999GD14991+0243859GE19MSL   +99999+99999GF199999999999024381999999KA1060M+00061KA2060N-00221MA1102715087105MD1190199+9999REMMET12601/07/19 22:56:02 METAR KPVU 080556Z 00000KT 10SM OVC080 M01/M02 A3033 RMK AO2 SLP287 60000 T10111022 10006 21022 51019 FZRANOEQDQ01  00008PRCP06
0243725724241742019010806567+40219-111723FM-15+1371KPVU V0209999C00005024385MN0128755N5-00175-00225102935ADDGA1085+024385999GD14991+0243859GE19MSL   +99999+99999GF199999999999024381999999KA1240M+00501KA2240N-00221MA1102785087165REMMET11101/07/19 23:56:02 METAR KPVU 080656Z 00000KT 8SM OVC080 M02/M02 A3035 RMK AO2 SLP293 T10171022 400501022 FZRANO
005172572424174201901080659O+40219-111723SOD  +1371KPVU V020999999999999999999999999999+99999+99999999999ADDAT1AU16RA  5AT2AU18SN  5AT3AU13BR  5AT4AU19UP  5
0227725724241742019010807567+40219-111723FM-15+1371KPVU V0209999C00005022865MN0064375N5-00225-00335102955ADDAU100001015AW1105GA1085+022865999GD14991+0228659GE19MSL   +99999+99999GF199999999999022861999999MA1102785087165REMMET10401/08/19 00:56:02 METAR KPVU 080756Z 00000KT 4SM BR OVC075 M02/M03 A3035 RMK AO2 SLP295 T10221033 FZRANO
0268725724241742019010808567+40219-111723FM-15+1371KPVU V0209999N999992200059N0048285N5-00175-00285102985ADDAU100001015AW1105GA1045+022865999GD12991+0228659GE19AGL   +99999+99999GF104995999999022861999999MA1102815087195MD1190099+9999REMMET11201/08/19 01:56:02 METAR KPVU 080856Z      KT 3SM BR SCT075 M02/M03 A3036 RMK AO2 SLP298 T10171028 51009 FZRANO $EQDD01      0ADE726
0204725724241742019010809567+40219-111723FM-15+1371KPVU V0209999N999992200059N0048285N5-00285-00335103085ADDAU100001015AW1105GA1005+999999999GD10991+9999999GF100991999999999999999999MA1102885087255REMMET10301/08/19 02:56:02 METAR KPVU 080956Z      KT 3SM BR CLR M03/M03 A3038 RMK AO2 SLP308 T10281033 FZRANO $
0191725724241742019010810007+40219-111723FM-15+1371KPVU V0209999N999992200059N0028165N5-00305-00305999999ADDAU100001015AW1105GA1005+999999999GD10991+9999999GF100991999999999999999999MA1102885087255REMMET09001/08/19 03:00:02 METAR KPVU 081000Z      KT 1 3/4SM BR CLR M03/M03 A3038 RMK AO2 FZRANO $
0189725724241742019010810047+40219-111723FM-15+1371KPVU V0209999N999992200059N0012075N5-00205-00305999999ADDAU100001015AW1105GA1005+999999999GD10991+9999999GF100991999999999999999999MA1102885087255REMMET08801/08/19 03:04:02 METAR KPVU 081004Z      KT 3/4SM BR CLR M02/M03 A3038 RMK AO2 FZRANO $
0235725724241742019010810127+40219-111723FM-15+1371KPVU V0209999N999992200059N0020125N5-00305-00305999999ADDAU100001015AW1105GA1045+022865999GD12991+0228659GE19AGL   +99999+99999GF104995999999022861999999MA1102885087255REMMET09301/08/19 03:12:02 METAR KPVU 081012Z      KT 1 1/4SM BR SCT075 M03/M03 A3038 RMK AO2 FZRANO $EQDD01      0ADE726
0210725724241742019010810367+40219-111723FM-15+1371KPVU V0209999C00005022865MN0048285N5-00305-00305999999ADDAU100001015AW1105GA1085+022865999GD14991+0228659GE19MSL   +99999+99999GF199999999999022861999999MA1102885087255REMMET08701/08/19 03:36:02 METAR KPVU 081036Z 00000KT 3SM BR OVC075 M03/M03 A3038 RMK AO2 FZRANO
0224725724241742019010810497+40219-111723FM-15+1371KPVU V0209999C00005022865MN0040235V5-00205-00305999999ADDAU100001015AW1105GA1085+022865999GD14991+0228659GE19MSL   +99999+99999GF199999999999022861999999MA1102885087255REMMET10101/08/19 03:49:02 METAR KPVU 081049Z 00000KT 2 1/2SM BR OVC075 M02/M03 A3038 RMK AO2 VIS 3/4V4 FZRANO
0227725724241742019010810567+40219-111723FM-15+1371KPVU V0209999C00005022865MN0064375N5-00225-00285103125ADDAU100001015AW1105GA1085+022865999GD14991+0228659GE19MSL   +99999+99999GF199999999999022861999999MA1102885087255REMMET10401/08/19 03:56:02 METAR KPVU 081056Z 00000KT 4SM BR OVC075 M02/M03 A3038 RMK AO2 SLP312 T10221028 FZRANO
0321725724241742019010811567+40219-111723FM-15+1371KPVU V0209999C00005021345MN0080475N5-00225-00335103145ADDAA124000591AU100001015AW1105GA1085+021345999GD14991+0213459GE19MSL   +99999+99999GF199999999999021341999999KA1060M-00111KA2060N-00281MA1102915087285MD1190099+9999REMMET12801/08/19 04:56:02 METAR KPVU 081156Z 00000KT 5SM BR OVC070 M02/M03 A3039 RMK AO2 SLP314 70002 T10221033 11011 21028 51009 FZRANOEQDQ01  00058PRCP24
0229725724241742019010812277+40219-111723FM-15+1371KPVU V0209999C000052200059N0032195N5-00305-00405999999ADDAU100001015AW1105GA1025+021345999GD11991+0213459GE19AGL   +99999+99999GF102995999999021341999999MA1102915087285REMMET08701/08/19 05:27:02 METAR KPVU 081227Z 00000KT 2SM BR FEW070 M03/M04 A3039 RMK AO2 FZRANOEQDD01      0ADE726
0185725724241742019010812337+40219-111723FM-15+1371KPVU V0209999C000052200059N0016095N5-00305-00405999999ADDAU100001015AW1105GA1005+999999999GD10991+9999999GF100991999999999999999999MA1102915087285REMMET08401/08/19 05:33:02 METAR KPVU 081233Z 00000KT 1SM BR CLR M03/M04 A3039 RMK AO2 FZRANO
0189725724241742019010812367+40219-111723FM-15+1371KPVU V0209999C000052200059N0008055N5-00305-00405999999ADDAU108002015AW1355GA1005+999999999GD10991+9999999GF100991999999999999999999MA1102915087285REMMET08801/08/19 05:36:02 METAR KPVU 081236Z 00000KT 1/2SM FZFG CLR M03/M04 A3039 RMK AO2 FZRANO
0189725724241742019010812467+40219-111723FM-15+1371KPVU V0209999C000052200059N0004025N5-00305-00405999999ADDAU108002015AW1355GA1005+999999999GD10991+9999999GF100991999999999999999999MA1102915087285REMMET08801/08/19 05:46:02 METAR KPVU 081246Z 00000KT 1/4SM FZFG CLR M03/M04 A3039 RMK AO2 FZRANO
0213725724241742019010812537+40219-111723FM-15+1371KPVU V0209999C00005000915WN0004025N5-00305-00405999999ADDAU108002015AW1355GA1095+000915999GD15991+0009159GE19MSL   +99999+99999GF109991999999000911999999MA1102915087285REMMET09001/08/19 05:53:02 METAR KPVU 081253Z 00000KT 1/4SM FZFG VV003 M03/M04 A3039 RMK AO2 FZRANO
0230725724241742019010812567+40219-111723FM-15+1371KPVU V0209999C00005000915WN0004025N5-00395-00505103215ADDAU108002015AW1355GA1095+000915999GD15991+0009159GE19MSL   +99999+99999GF109991999999000911999999MA1102915087285REMMET10701/08/19 05:56:02 METAR KPVU 081256Z 00000KT 1/4SM FZFG VV003 M04/M05 A3039 RMK AO2 SLP321 T10391050 FZRANO
0230725724241742019010813567+40219-111723FM-15+1371KPVU V0209999C00005000915WN0004025N5-00445-00565103235ADDAU108002015AW1355GA1095+000915999GD15991+0009159GE19MSL   +99999+99999GF109991999999000911999999MA1102955087315REMMET10701/08/19 06:56:02 METAR KPVU 081356Z 00000KT 1/4SM FZFG VV003 M04/M06 A3040 RMK AO2 SLP323 T10441056 FZRANO
0207725724241742019010814207+40219-111723FM-15+1371KPVU V0209999C00005000305MN0004025N5-00405-00505999999ADDAU108002015AW1355GA1085+000305999GD14991+0003059GE19MSL   +99999+99999GF199999999999000301999999MA1102915087285REMMET08401/08/19 07:20:02 METAR KPVU 081420Z 00000KT 1/4SM FZFG OVC001 M04/M05 A3039 RMK AO2
0207725724241742019010814437+40219-111723FM-15+1371KPVU V0209999C00005000915MN0004025N5-00505-00605999999ADDAU108002015AW1355GA1085+000915999GD14991+0009159GE19MSL   +99999+99999GF199999999999000911999999MA1102955087315REMMET08401/08/19 07:43:02 METAR KPVU 081443Z 00000KT 1/4SM FZFG OVC003 M05/M06 A3040 RMK AO2
0243725724241742019010814567+40219-111723FM-15+1371KPVU V0202305N00155000915WN0004025N5-00505-00615103265ADDAU108002015AW1355GA1095+000915999GD15991+0009159GE19MSL   +99999+99999GF109991999999000911999999MA1102955087315MD1390019+9999REMMET10601/08/19 07:56:02 METAR KPVU 081456Z 23003KT 1/4SM FZFG VV003 M05/M06 A3040 RMK AO2 SLP326 T10501061 53001
0215725724241742019010815547+40219-111723FM-15+1371KPVU V0201505N00155000915MN0016095N5-00305-00405999999ADDAU100001015AW1105GA1075+000915999GD13991+0009151GE19MSL   +99999+99999GF199999999999000911999999MA1102985087345REMMET09201/08/19 08:54:02 METAR KPVU 081554Z 15003KT 1SM BR BKN003 M03/M04 A3041 RMK AO2 CIG 002V006
0239725724241742019010815567+40219-111723FM-15+1371KPVU V0201405N001552200059N0016095N5-00335-00395103325ADDAU100001015AW1105GA1045+060965999GD12991+0609659GE19AGL   +99999+99999GF104995999999060961999999MA1103015087375REMMET09701/08/19 08:56:02 METAR KPVU 081556Z 14003KT 1SM BR SCT200 M03/M04 A3042 RMK AO2 SLP332 T10331039EQDD01      0ADE726
0226725724241742019010816297+40219-111723FM-15+1371KPVU V0200705N001552200059N0004025N5-00105-00205999999ADDAU108002015AW1355GA1045+060965999GD12991+0609659GE19AGL   +99999+99999GF104995999999060961999999MA1103055087405REMMET08401/08/19 09:29:02 METAR KPVU 081629Z 07003KT 1/4SM FZFG SCT200 M01/M02 A3043 RMK AO2EQDD01      0ADE726
0224725724241742019010816387+40219-111723FM-15+1371KPVU V0200405N001552200059N0012075N5-00105-00205999999ADDAU100001015AW1105GA1045+060965999GD12991+0609659GE19AGL   +99999+99999GF104995999999060961999999MA1103055087405REMMET08201/08/19 09:38:02 METAR KPVU 081638Z 04003KT 3/4SM BR SCT200 M01/M02 A3043 RMK AO2EQDD01      0ADE726
0226725724241742019010816417+40219-111723FM-15+1371KPVU V0200405N001552200059N0020125N5-00105-00205999999ADDAU100001015AW1105GA1045+060965999GD12991+0609659GE19AGL   +99999+99999GF104995999999060961999999MA1103055087405REMMET08401/08/19 09:41:02 METAR KPVU 081641Z 04003KT 1 1/4SM BR SCT200 M01/M02 A3043 RMK AO2EQDD01      0ADE726
0223725724241742019010816487+40219-111723FM-15+1371KPVU V0200305N002152200059N0008055N5+00005-00105999999ADDAU100002015AW1305GA1045+060965999GD12991+0609659GE19AGL   +99999+99999GF104995999999060961999999MA1103055087405REMMET08101/08/19 09:48:02 METAR KPVU 081648Z 03004KT 1/2SM FG SCT200 00/M01 A3043 RMK AO2EQDD01      0ADE726
0242725724241742019010816567+40219-111723FM-15+1371KPVU V0200205N002652200059N0040235N5+00005-00115103295ADDAU100001015AW1105GA1045+060965999GD12991+0609659GE19AGL   +99999+99999GF104995999999060961999999MA1103055087405REMMET10001/08/19 09:56:02 METAR KPVU 081656Z 02005KT 2 1/2SM BR SCT200 00/M01 A3043 RMK AO2 SLP329 T00001011EQDD01      0ADE726
0226725724241742019010817487+40219-111723FM-15+1371KPVU V0209999C000052200059N0048285N5+00405+00105999999ADDAU100007015AW1051GA1045+060965999GD12991+0609659GE19AGL   +99999+99999GF104995999999060961999999MA1103015087375MW1055REMMET07801/08/19 10:48:02 METAR KPVU 081748Z 00000KT 3SM HZ SCT200 04/01 A3042 RMK AO2EQDD01      0ADE726
0276725724241742019010817567+40219-111723FM-15+1371KPVU V0202605N003152200059N0112655N5+00285-00065103175ADDGA1045+060965999GD12991+0609659GE19AGL   +99999+99999GF104995999999060961999999KA1060M+00391KA2060N-00561MA1103015087375MD1090059+9999REMMET11101/08/19 10:56:02 METAR KPVU 081756Z 26006KT 7SM SCT200 03/M01 A3042 RMK AO2 SLP317 T00281006 10039 21056 50005EQDD01      0ADE726
0219725724241742019010818567+40219-111723FM-15+1371KPVU V0202705N002652200059N0160935N5+00225-00065103095ADDGA1045+060965999GD12991+0609659GE19AGL   +99999+99999GF104995999999060961999999MA1102915087285REMMET09401/08/19 11:56:02 METAR KPVU 081856Z 27005KT 10SM SCT200 02/M01 A3039 RMK AO2 SLP309 T00221006EQDD01      0ADE726
0151725724241742019010819566+40219-111723FM-15+1371KPVU V0202605N002152200059N0160935N5+00225+00005103005ADDGA1045+060965999GD12991+0609659MA1102785087165REMMET09301/08/19 12:56:02 METAR KPVU 081956Z 26004KT 10SM SCT200 02/00 A3035 RMK AO2 SLP300 T00220000
0195725724241742019010820567+40219-111723FM-15+1371KPVU V0202505N002152200059N0160935N5+00285-00065102925ADDGA1005+999999999GD10991+9999999GF100991999999999999999999MA1102745087135MD1690239+9999REMMET09701/08/19 13:56:02 METAR KPVU 082056Z 25004KT 10SM CLR 03/M01 A3034 RMK AO2 SLP292 T00281006 56023
0175725724241742019010821567+40219-111723FM-15+1371KPVU V0202505N002152200059N0160935N5+00335-00065102885ADDGA1005+999999999GD10991+9999999GF100991999999999999999999MA1102715087105REMMET09101/08/19 14:56:02 METAR KPVU 082156Z 25004KT 10SM CLR 03/M01 A3033 RMK AO2 SLP288 T00331006
0219725724241742019010822567+40219-111723FM-15+1371KPVU V0202805N001552200059N0160935N5+00285-00065102835ADDGA1045+060965999GD12991+0609659GE19AGL   +99999+99999GF104995999999060961999999MA1102645087055REMMET09401/08/19 15:56:02 METAR KPVU 082256Z 28003KT 10SM SCT200 03/M01 A3031 RMK AO2 SLP283 T00281006EQDD01      0ADE726
0258725724241742019010823567+40219-111723FM-15+1371KPVU V0203605N00155060965MN0160935N5+00175-00115102795ADDGA1075+060965999GD13991+0609659GE19MSL   +99999+99999GF199999999999060961999999KA1060M+00391KA2060N+00111MA1102575086995MD1890139+9999REMMET11201/08/19 16:56:02 METAR KPVU 082356Z 36003KT 10SM BKN200 02/M01 A3029 RMK AO2 SLP279 T00171011 10039 20011 58013
0200725724241742019010900567+40219-111723FM-15+1371KPVU V0209999C00005060965MN0160935N5+00065-00175102865ADDGA1075+060965999GD13991+0609659GE19MSL   +99999+99999GF199999999999060961999999MA1102615087025REMMET09401/08/19 17:56:01 METAR KPVU 090056Z 00000KT 10SM BKN200 01/M02 A3030 RMK AO2 SLP286 T00061017
0175725724241742019010901567+40219-111723FM-15+1371KPVU V0209999C000052200059N0144845N5-00065-00175102855ADDGA1005+999999999GD10991+9999999GF100991999999999999999999MA1102575086995REMMET09101/08/19 18:56:01 METAR KPVU 090156Z 00000KT 9SM CLR M01/M02 A3029 RMK AO2 SLP285 T10061017
0196725724241742019010902567+40219-111723FM-15+1371KPVU V0200605N001552200059N0160935N5-00065-00225102855ADDGA1005+999999999GD10991+9999999GF100991999999999999999999MA1102545086965MD1890039+9999REMMET09801/08/19 19:56:02 METAR KPVU 090256Z 06003KT 10SM CLR M01/M02 A3028 RMK AO2 SLP285 T10061022 58003
0175725724241742019010903567+40219-111723FM-15+1371KPVU V0202605N002152200059N0160935N5+00005-00115102845ADDGA1005+999999999GD10991+9999999GF100991999999999999999999MA1102575086995REMMET09101/08/19 20:56:02 METAR KPVU 090356Z 26004KT 10SM CLR 00/M01 A3029 RMK AO2 SLP284 T00001011
0181725724241742019010904567+40219-111723FM-15+1371KPVU V0203105N002152200059N0144845N5+00005-00115102735ADDGA1005+999999999GD10991+9999999GF100991999999999999999999MA1102545086965REMMET09701/08/19 21:56:02 METAR KPVU 090456Z 31004KT 9SM CLR 00/M01 A3028 RMK AO2 SLP273 T00001011 FZRANO
0241725724241742019010905567+40219-111723FM-15+1371KPVU V0203405N002152200059N0160935N5-00065-00175102675ADDGA1005+999999999GD10991+9999999GF100991999999999999999999KA1060M+00171KA2060N-00111MA1102515086935MD1890049+9999REMMET11701/08/19 22:56:02 METAR KPVU 090556Z 34004KT 10SM CLR M01/M02 A3027 RMK AO2 SLP267 T10061017 10017 21011 58004 FZRANO
0218725724241742019010906567+40219-111723FM-15+1371KPVU V0203405N001552200059N0112655N5-00115-00225102625ADDGA1005+999999999GD10991+9999999GF100991999999999999999999KA1240M+00391KA2240N-00561MA1102445086875REMMET10801/08/19 23:56:02 METAR KPVU 090656Z 34003KT 7SM CLR M01/M02 A3025 RMK AO2 SLP262 T10111022 400391056 FZRANO
005172572424174201901090659O+40219-111723SOD  +1371KPVU V020999999999999999999999999999+99999+99999999999ADDAT1AU01FG  5AT2AU22FZFG5AT3AU13BR  5AT4AU08HZ  5
0202725724241742019010907567+40219-111723FM-15+1371KPVU V0200405N001552200059N0096565N5-00115-00225102625ADDAU100001015AW1105GA1005+999999999GD10991+9999999GF100991999999999999999999MA1102445086875REMMET10101/09/19 00:56:02 METAR KPVU 090756Z 04003KT 6SM BR CLR M01/M02 A3025 RMK AO2 SLP262 T10111022 FZRANO
0202725724241742019010908567+40219-111723FM-15+1371KPVU V0200505N002152200059N0144845N5-00115-00225102605ADDGA1005+999999999GD10991+9999999GF100991999999999999999999MA1102445086875MD1690059+9999REMMET10401/09/19 01:56:02 METAR KPVU 090856Z 05004KT 9SM CLR M01/M02 A3025 RMK AO2 SLP260 T10111022 56005 FZRANO
0182725724241742019010909567+40219-111723FM-15+1371KPVU V0209999C000052200059N0144845N5-00225-00335102675ADDGA1005+999999999GD10991+9999999GF100991999999999999999999MA1102475086905REMMET09801/09/19 02:56:02 METAR KPVU 090956Z 00000KT 9SM CLR M02/M03 A3026 RMK AO2 SLP267 T10221033 FZRANO
0183725724241742019010910567+40219-111723FM-15+1371KPVU V0202005N001552200059N0160935N5-00175-00285102625ADDGA1005+999999999GD10991+9999999GF100991999999999999999999MA1102445086875REMMET09901/09/19 03:56:02 METAR KPVU 091056Z 20003KT 10SM CLR M02/M03 A3025 RMK AO2 SLP262 T10171028 FZRANO
0241725724241742019010911567+40219-111723FM-15+1371KPVU V0209999C000052200059N0160935N5-00175-00285102505ADDGA1005+999999999GD10991+9999999GF100991999999999999999999KA1060M-00061KA2060N-00221MA1102305086755MD1890139+9999REMMET11701/09/19 04:56:02 METAR KPVU 091156Z 00000KT 10SM CLR M02/M03 A3021 RMK AO2 SLP250 T10171028 11006 21022 58013 FZRANO
0183725724241742019010912567+40219-111723FM-15+1371KPVU V0209999C000052200059N0160935N5-00065-00175102525ADDGA1005+999999999GD10991+9999999GF100991999999999999999999MA1102345086785REMMET09901/09/19 05:56:02 METAR KPVU 091256Z 00000KT 10SM CLR M01/M02 A3022 RMK AO2 SLP252 T10061017 FZRANO
0182725724241742019010913567+40219-111723FM-15+1371KPVU V0203205N002652200059N0160935N5+00005-00225102555ADDGA1005+999999999GD10991+9999999GF100991999999999999999999MA1102375086815REMMET09801/09/19 06:56:02 METAR KPVU 091356Z 32005KT 10SM CLR 00/M02 A3023 RMK AO2 SLP255 T00001022 FZRANO
0258725724241742019010914567+40219-111723FM-15+1371KPVU V0209999C00005054865MN0160935N5+00005-00225102565ADDGA1045+045725999GA2085+054865999GD12991+0457259GD24991+0548659GE19MSL   +99999+99999GF199999999999045721999999MA1102375086815MD1190059+9999REMMET10701/09/19 07:56:02 METAR KPVU 091456Z 00000KT 10SM SCT150 OVC180 00/M02 A3023 RMK AO2 SLP256 T00001022 51005
0238725724241742019010915567+40219-111723FM-15+1371KPVU V0200105N00155054865MN0160935N5+00175-00175102545ADDGA1045+045725999GA2085+054865999GD12991+0457259GD24991+0548659GE19MSL   +99999+99999GF199999999999045721999999MA1102375086815REMMET10101/09/19 08:56:02 METAR KPVU 091556Z 01003KT 10SM SCT150 OVC180 02/M02 A3023 RMK AO2 SLP254 T00171017
0238725724241742019010916567+40219-111723FM-15+1371KPVU V0203205N00215054865MN0160935N5+00225-00175102635ADDGA1045+045725999GA2085+054865999GD12991+0457259GD24991+0548659GE19MSL   +99999+99999GF199999999999045721999999MA1102475086905REMMET10101/09/19 09:56:02 METAR KPVU 091656Z 32004KT 10SM SCT150 OVC180 02/M02 A3026 RMK AO2 SLP263 T00221017
0296725724241742019010917567+40219-111723FM-15+1371KPVU V0202205N00215060965MN0160935N5+00445-00115102645ADDGA1045+045725999GA2075+060965999GD12991+0457259GD23991+0609659GE19MSL   +99999+99999GF199999999999045721999999KA1060M+00501KA2060N-00171MA1102515086935MD1390149+9999REMMET11901/09/19 10:56:02 METAR KPVU 091756Z 22004KT 10SM SCT150 BKN200 04/M01 A3027 RMK AO2 SLP264 T00441011 10050 21017 53014
0240725724241742019010918567+40219-111723FM-15+1371KPVU V0209999V00265060965MN0160935N5+00675-00065102515ADDGA1045+045725999GA2075+060965999GD12991+0457259GD23991+0609659GE19MSL   +99999+99999GF199999999999045721999999MA1102405086845REMMET10301/09/19 11:56:02 METAR KPVU 091856Z VRB05KT 10SM SCT150 BKN200 07/M01 A3024 RMK AO2 SLP251 T00671006 $
0238725724241742019010919567+40219-111723FM-15+1371KPVU V0209999C00005060965MN0160935N5+00785-00065102325ADDGA1025+045725999GA2075+060965999GD11991+0457259GD23991+0609659GE19MSL   +99999+99999GF199999999999045721999999MA1102245086695REMMET10101/09/19 12:56:02 METAR KPVU 091956Z 00000KT 10SM FEW150 BKN200 08/M01 A3019 RMK AO2 SLP232 T00781006
0258725724241742019010920567+40219-111723FM-15+1371KPVU V0203505N00155060965MN0160935N5+00675-00175102295ADDGA1025+045725999GA2075+060965999GD11991+0457259GD23991+0609659GE19MSL   +99999+99999GF199999999999045721999999MA1102205086665MD1690289+9999REMMET10701/09/19 13:56:02 METAR KPVU 092056Z 35003KT 10SM FEW150 BKN200 07/M02 A3018 RMK AO2 SLP229 T00671017 56028
0238725724241742019010921567+40219-111723FM-15+1371KPVU V0209999C00005060965MN0160935N5+00835-00175102255ADDGA1045+045725999GA2075+060965999GD12991+0457259GD23991+0609659GE19MSL   +99999+99999GF199999999999045721999999MA1102175086635REMMET10101/09/19 14:56:02 METAR KPVU 092156Z 00000KT 10SM SCT150 BKN200 08/M02 A3017 RMK AO2 SLP225 T00831017
0238725724241742019010922567+40219-111723FM-15+1371KPVU V0209999C00005060965MN0160935N5+00785-00115102225ADDGA1045+045725999GA2075+060965999GD12991+0457259GD23991+0609659GE19MSL   +99999+99999GF199999999999045721999999MA1102135086605REMMET10101/09/19 15:56:02 METAR KPVU 092256Z 00000KT 10SM SCT150 BKN200 08/M01 A3016 RMK AO2 SLP222 T00781011
0296725724241742019010923567+40219-111723FM-15+1371KPVU V0203605N00215060965MN0160935N5+00335-00175102275ADDGA1045+045725999GA2075+060965999GD12991+0457259GD23991+0609659GE19MSL   +99999+99999GF199999999999045721999999KA1060M+00941KA2060N+00281MA1102135086605MD1890069+9999REMMET11901/09/19 16:56:02 METAR KPVU 092356Z 36004KT 10SM SCT150 BKN200 03/M02 A3016 RMK AO2 SLP227 T00331017 10094 20028 58006
0257725724241742019011000567+40219-111723FM-15+1371KPVU V0209999C000052200059N0160935N5+00225-00225102275ADDGA1025+045725999GA2045+060965999GD11991+0457259GD22991+0609659GE19AGL   +99999+99999GF104995999999045721999999MA1102135086605REMMET10101/09/19 17:56:01 METAR KPVU 100056Z 00000KT 10SM FEW150 SCT200 02/M02 A3016 RMK AO2 SLP227 T00221022EQDD01      0ADE726
0195725724241742019011002567+40219-111723FM-15+1371KPVU V0201205N003152200059N0160935N5+00225-00225102245ADDGA1005+999999999GD10991+9999999GF100991999999999999999999MA1102105086575MD1890029+9999REMMET09701/09/19 19:56:01 METAR KPVU 100256Z 12006KT 10SM CLR 02/M02 A3015 RMK AO2 SLP224 T00221022 58002
0183725724241742019011003567+40219-111723FM-15+1371KPVU V0201005N001552200059N0160935N5-00065-00225102285ADDGA1005+999999999GD10991+9999999GF100991999999999999999999MA1102135086605REMMET09901/09/19 20:56:01 METAR KPVU 100356Z 10003KT 10SM CLR M01/M02 A3016 RMK AO2 SLP228 T10061022 FZRANO
0182725724241742019011004567+40219-111723FM-15+1371KPVU V0209999C000052200059N0160935N5+00065-00285102325ADDGA1005+999999999GD10991+9999999GF100991999999999999999999MA1102205086665REMMET09801/09/19 21:56:02 METAR KPVU 100456Z 00000KT 10SM CLR 01/M03 A3018 RMK AO2 SLP232 T00061028 FZRANO
0240725724241742019011005567+40219-111723FM-15+1371KPVU V0201205N002152200059N0160935N5+00115-00285102325ADDGA1005+999999999GD10991+9999999GF100991999999999999999999KA1060M+00501KA2060N-00061MA1102245086695MD1390129+9999REMMET11601/09/19 22:56:02 METAR KPVU 100556Z 12004KT 10SM CLR 01/M03 A3019 RMK AO2 SLP232 T00111028 10050 21006 53012 FZRANO
0219725724241742019011006567+40219-111723FM-15+1371KPVU V0200805N003652200059N0160935N5-00065-00285102245ADDGA1005+999999999GD10991+9999999GF100991999999999999999999KA1240M+00941KA2240N-00221MA1102175086635REMMET10901/09/19 23:56:02 METAR KPVU 100656Z 08007KT 10SM CLR M01/M03 A3017 RMK AO2 SLP224 T10061028 400941022 FZRANO
001572572424174201901100659O+40219-111723SOD  +1371KPVU V020999999999999999999999999999+99999+99999999999ADDAT1AU13BR  5
0183725724241742019011007567+40219-111723FM-15+1371KPVU V0209999C000052200059N0160935N5-00065-00285102165ADDGA1005+999999999GD10991+9999999GF100991999999999999999999MA1102105086575REMMET09901/10/19 00:56:02 METAR KPVU 100756Z 00000KT 10SM CLR M01/M03 A3015 RMK AO2 SLP216 T10061028 FZRANO
0203725724241742019011008567+40219-111723FM-15+1371KPVU V0200105N001552200059N0160935N5-00115-00285102255ADDGA1005+999999999GD10991+9999999GF100991999999999999999999MA1102175086635MD1590069+9999REMMET10501/10/19 01:56:02 METAR KPVU 100856Z 01003KT 10SM CLR M01/M03 A3017 RMK AO2 SLP225 T10111028 55006 FZRANO
0182725724241742019011009567+40219-111723FM-15+1371KPVU V0201505N003152200059N0160935N5+00065-00335102195ADDGA1005+999999999GD10991+9999999GF100991999999999999999999MA1102175086635REMMET09801/10/19 02:56:02 METAR KPVU 100956Z 15006KT 10SM CLR 01/M03 A3017 RMK AO2 SLP219 T00061033 FZRANO
0183725724241742019011010567+40219-111723FM-15+1371KPVU V0209999C000052200059N0160935N5-00175-00335102175ADDGA1005+999999999GD10991+9999999GF100991999999999999999999MA1102105086575REMMET09901/10/19 03:56:02 METAR KPVU 101056Z 00000KT 10SM CLR M02/M03 A3015 RMK AO2 SLP217 T10171033 FZRANO
0241725724241742019011011567+40219-111723FM-15+1371KPVU V0209999C000052200059N0160935N5-00175-00335102205ADDGA1005+999999999GD10991+9999999GF100991999999999999999999KA1060M+00221KA2060N-00171MA1102075086545MD1890099+9999REMMET11701/10/19 04:56:02 METAR KPVU 101156Z 00000KT 10SM CLR M02/M03 A3014 RMK AO2 SLP220 T10171033 10022 21017 58009 FZRANO
0183725724241742019011012567+40219-111723FM-15+1371KPVU V0209999C000052200059N0160935N5-00175-00395102255ADDGA1005+999999999GD10991+9999999GF100991999999999999999999MA1102075086545REMMET09901/10/19 05:56:02 METAR KPVU 101256Z 00000KT 10SM CLR M02/M04 A3014 RMK AO2 SLP225 T10171039 FZRANO
0182725724241742019011013567+40219-111723FM-15+1371KPVU V0202505N002652200059N0160935N5+00005-00335102265ADDGA1005+999999999GD10991+9999999GF100991999999999999999999MA1102105086575REMMET09801/10/19 06:56:02 METAR KPVU 101356Z 25005KT 10SM CLR 00/M03 A3015 RMK AO2 SLP226 T00001033 FZRANO
